:020000040800F2
:10000000503C0020290200080B330008F12A0008A8
:100010000933000871090008C15100080000000000
:100020000000000000000000000000009101000836
:10003000D70C000800000000D50100085F4E000842
:10004000430200084302000843020008430200087C
:10005000430200084302000843020008430200086C
:10006000430200084302000843020008430200085C
:10007000430200084302000843020008430200084C
:10008000A10C0008430200084302000843020008D4
:10009000430200084302000843020008430200082C
:1000A000430200084302000843020008430200081C
:1000B000430200084302000843020008430200080C
:1000C00043020008430200084302000843020008FC
:1000D00043020008430200084302000843020008EC
:1000E00043020008430200084302000800F002F83F
:1000F00000F03FF80AA090E8000C82448344AAF183
:100100000107DA4501D100F034F8AFF2090EBAE880
:100110000F0013F0010F18BFFB1A43F0010318473B
:100120002079000040790000103A24BF78C878C1D7
:10013000FAD8520724BF30C830C144BF04680C60ED
:10014000704700000023002400250026103A28BF35
:1001500078C1FBD8520728BF30C148BF0B60704739
:10016000642900F0C580002070471FB51FBD10B581
:1001700010BD00F04BFB1146FFF7F7FF05F0AAF9A1
:1001800000F069FB03B4FFF7F2FF03BC00F06CFB67
:10019000224B19680868B0E8F00F80F30988BFF3B4
:1001A0006F8F4FF0000080F311884EF00D0E7047F6
:1001B0000000000006480068006880F3088862B606
:1001C00061B6BFF34F8FBFF36F8F00DF00BF00BF7B
:1001D00008ED00E0EFF30980BFF36F8F0F4B1A6853
:1001E00020E9F00F106008B54FF0500080F311883F
:1001F000BFF34F8FBFF36F8F06F0BCF84FF00000D6
:1002000080F31188BDE8084019680868B0E8F00F6D
:1002100080F30988BFF36F8F704700BF6C00002028
:10022000EFF3058070470000094880470948004700
:10023000FEE7FEE7FEE7FEE7FEE7FEE7FEE7FEE796
:10024000FEE7FEE704480549054A064B70470000F3
:10025000FD4E0008ED00000850360020503C002004
:1002600050380020503800200FB47CB50C0009AA8B
:10027000009001D02044401E084B7B446946019009
:10028000089800F07CFA05461CB10020694600F091
:1002900089FA28467CBC5DF814FB0000310500009B
:1002A00070B5044685690068C10601D5302600E0B6
:1002B0002026C00707D070BDD4E901213046904701
:1002C000206A401C20626D1EF6D570BD70B50446D4
:1002D00085690078C00707D170BDD4E901212020CD
:1002E0009047206A401C20626D1EF6D570BD00004C
:1002F0002DE9F0410646002410687529314616A5FF
:1003000010D0AFF30080002802DA404213A507E0C6
:1003100031688A0701D512A502E0490704D511A565
:10032000012401E0AFF3008000210A2206F1240736
:1003300009E0B0FBF2FCB0FBF2F302FB1C00303032
:1003400078541846491C0028F3D123462A463046E3
:10035000BDE8F04100F0B5B9000000002D0000003C
:100360002B000000200000002DE9F05F89460446C4
:100370004FF0000ADFF874B1FB44C0F820A020461B
:10038000E1688847002874D0252806D0D4E90121E7
:100390009047206A401C2062F1E700265F46204615
:1003A000E16888472028054607DB312D05D27819FA
:1003B00010F8200C08B10643F1E7B00701D526F08C
:1003C0000406C4F81CA00027C4F818A02A2D09D0E0
:1003D000284605F069F838B304EB8708303DC8F8C3
:1003E000185019E059F8041B204604EB870291616C
:1003F000E1688847012F054618D1E069002820DA16
:1004000026F020061DE0D8F8180000EB800005EB70
:1004100040003038C8F818002046E1688847054693
:1004200005F042F80028EED1012F0AD02E2D08D178
:100430002046E16888477F1C0546022F46F02006CB
:10044000C4DBA069002803DA404246F00106A0613F
:10045000F00701D026F010066C2D0BD0682D09D0C6
:100460004C2D39D06A2D35D0742D35D07A2D33D01E
:1004700016E038E0E1682F4620468847B842054636
:1004800009D16C2F26D04FF48060E16806432046E6
:100490008847054604E06C2F1AD04FF4807006435D
:1004A0000DB3A5F14100192802D8203546F40066A5
:1004B0004A462946204626604E46FFF751FE80B147
:1004C00001280BD0F61D26F0070000F1080956E7B9
:1004D0004020E4E78020D8E70020D6E706F10409B1
:1004E0004DE7284652E7206ABDE8F09F17760000E6
:1004F000032A40F2308010F0030C00F0158011F850
:10050000013BBCF1020F624498BF11F801CB00F827
:10051000013B38BF11F8013BA2F1040298BF00F87B
:1005200001CB38BF00F8013B11F0030300F0258038
:10053000083AC0F0088051F8043B083A51F804CB5F
:10054000A0E80810F5E7121D5CBF51F8043B40F825
:10055000043BAFF30080D20724BF11F8013B11F830
:1005600001CB48BF11F8012B24BF00F8013B00F874
:1005700001CB48BF00F8012B704710B5203AC0F0FE
:100580000B80B1E81850203AA0E81850B1E8185094
:10059000A0E81850BFF4F5AF5FEA027C24BFB1E8D1
:1005A0001850A0E8185044BF18C918C0BDE8104042
:1005B0005FEA827C24BF51F8043B40F8043B08BF4B
:1005C0007047D20728BF31F8023B48BF11F8012B12
:1005D00028BF20F8023B48BF00F8012B704702F00B
:1005E000FF0343EA032242EA024200F0EAB84FF076
:1005F000000200B5134694469646203922BFA0E873
:100600000C50A0E80C50B1F12001BFF4F7AF09077E
:1006100028BFA0E80C5048BF0CC05DF804EB89006F
:1006200028BF40F8042B08BF704748BF20F8022BB2
:1006300011F0804F18BF00F8012B70474FF0013CBC
:1006400050F8042B51F8043B9A4221D1A2EB0C0341
:10065000934313EACC1317D150F8042B51F8043B01
:100660009A4215D1A2EB0C03934313EACC130BD19E
:1006700050F8042B51F8043B9A4209D1A2EB0C0329
:10068000934313EACC13DBD04FF00000704700BF58
:10069000D01A01BAB1FA81F101F0180122FA01F081
:1006A000CB40C1F12001DBB2C0B2C01A2CFA01F379
:1006B000D11A914311EAC311E6D1704770477047D0
:1006C00070472DE9F0470D4699469246044600F1E1
:1006D00024080168880604D5E06921F01001216032
:1006E00000E00120A84201DD471B00E00027A169CE
:1006F0007A1902EB0900081AA0612078C00602D41A
:100700002046FFF7CDFD002608E0D4E901211AF8C4
:1007100006009047206A401C761C20624E45F4DBA0
:100720002078C0060AD52046FFF7BAFD06E0D4E9D6
:10073000012130209047206A401C2062381EA7F11A
:100740000107F4DC07E0D4E9012118F8050090471F
:10075000206A401C2062281EA5F10105F3DC20461A
:10076000FFF7B4FD2078000602D50220BDE8F0872F
:100770000120FBE701694A1C02610878704700B557
:100780008FB0CDE901310021059105497944CDE9CA
:10079000031011466846FFF7E7FD0FB000BD0000EB
:1007A000E5FFFFFF0A6802F8010B0A607047D1E914
:1007B00000239A4202D2531C0B60107070474FF016
:1007C00000020429C0F0128010F0030C3FF411AFB6
:1007D000CCF1040CBCF1020F18BF00F8012BA8BF2C
:1007E00020F8022BA1EB0C01FFF703BF5FEAC17CED
:1007F00024BF00F8012B00F8012B48BF00F8012BA3
:100800007047000000487047EC3500207546FFF740
:10081000F9FFAE4605006946534620F007008546BD
:1008200018B020B5FFF70EFDBDE820404FF00006E0
:100830004FF000074FF000084FF0000B21F00701C8
:10084000AC46ACE8C009ACE8C009ACE8C009ACE80B
:10085000C0098D46704710B50446AFF300802046AE
:10086000BDE81040FFF78EBC01491820ABBEFEE783
:10087000260002007047000070B5044600688168D9
:10088000C943C90717D1816821F00101816000F0D7
:100890007FFF05460AE000BF00F07AFF401B0228F8
:1008A00004D920688068C043C00706D020688068EB
:1008B000C043C007F0D0002070BDA06A40F0100017
:1008C000A062E06A40F00100E062012070BD00001B
:1008D000F8B500260446009600688168C943C90738
:1008E0002DD0816841F001018160164816490068E9
:1008F000B0FBF1F000E0401E00900028FBD100F0BA
:1009000047FF054616E000BF00F042FF401B0228EB
:1009100010D920688068C043C0070BD0A06A40F09F
:100920001000A062E06A40F00100E06284F82460F8
:100930000120F8BD20688068C043C007E4D10020D2
:10094000F8BD00004C00002040420F00AFF30080D3
:1009500001229103014800F016BF0000000C014085
:100960004FF48041014800F006BF0000000C014038
:10097000FEE7884201D2084670479042FCD91046F3
:100980007047884201D2084670479042FCD9104611
:100990007047000010B5124C3C2214212078FFF75C
:1009A000F0FF207060780A220021FFF7EAFF6070F4
:1009B00060884FF4FA723C21FFF7DBFF6080A0886B
:1009C0004FF47A726421FFF7D4FFA080E0882822D8
:1009D0000821FFF7CEFFE080BDE8104000F002B82C
:1009E000580000201FB50020019003904FF40050E4
:1009F0000090012002906946014800F0C7FD1FBD2C
:100A0000000C01402DE9FC4106004FF00000304C85
:100A100000900190206800F1010020600FD000F0EC
:100A2000B7FEDFF8B080D8F80010401AB0F57A7F32
:100A300007D2A068401CA0600220BDE8FC81012014
:100A4000FBE7244F00253F1D39E0684600F078F8A9
:100A500018B17878A84230D834E09DF800009DF8AD
:100A600001109DF8032008449DF802101144084429
:100A70009DF80410C0B2814218D19DF8000030707A
:100A80009DF8010070709DF80200B0709DF80300A1
:100A9000F07000F07DFEC8F800006068401C6060E7
:100AA00015B16069401C60610020C6E77878A842F3
:100AB00003D82069401C2061C1E76D1CEDB2787835
:100AC000A842C2D2E068401CE0600320B5E7000005
:100AD000600600205400002070B5144D0646002426
:100AE0006988204600F0CAF8A0B96988012000F0A2
:100AF000C5F878B904E0012004F0DEFC641CA4B25F
:100B000000F016F8012802D16888A042F3D868885E
:100B1000A04201D8032070BDE888A04201D801207E
:100B200000E000203070002070BD00005800002060
:100B30004FF40051014800F019BE0000000C0140C4
:100B40002DE9FF4781464FF400561120CDE90060A2
:100B50000120029003202D4D03903446694628461B
:100B600000F014FD00222146284600F00CFE04F09F
:100B700005FD02284FF0140017D000F0F5FC00BF6F
:100B8000EFF3108472B601223146284600F0FBFDD7
:100B90001E2004F091FCFFF725FF1D4D0020A988C1
:100BA00000F06CF848B11CB103E004F0D9FCE7E7B1
:100BB00062B6032004B0BDE8F087A988012000F0E8
:100BC0005DF80028EFD1A98800F058F80028EAD194
:100BD0005FF00006002509EB06082F466846FFF780
:100BE0007BFF0028DFD16806050E9DF800007F1C02
:100BF0000543FFB2082FF1D3761CF6B288F80050F7
:100C0000052EE7D304B962B60020D3E7000C0140FB
:100C10005800002004480021016041608160C160EB
:100C200001614161704700006006002070B504005A
:100C300020D020783C221421FFF7A3FE0E4D0A227B
:100C4000002128706078FFF79CFE687060884FF480
:100C5000FA723C21FFF78DFE6880A0884FF47A720B
:100C60006421FFF786FEA880E08828220821FFF78C
:100C700080FEE88070BD00005800002070B50C4672
:100C8000054608E0FFF754FFA84201D1002070BDDF
:100C9000012004F011FC641EF4D2032070BD00009A
:100CA000014800F051BB00000802002030B590F868
:100CB00040500124AC40C56B6C60046863604368BD
:100CC000102B036803D099600068C26030BD9A6041
:100CD0000068C16030BD704786B023208DF80400E5
:100CE00003208DF80500A020ADF806004FF49670A3
:100CF0000025ADF808001220A846A946ADF80A0064
:100D0000FFF748FE01A8FFF791FFFFF783FFFFF70A
:100D10001DFE4FF4966004F023FC384C40F6FF7A39
:100D20004FF47A7B0026374601F0CCFF6082618A5F
:100D300005EB450008448508642005FB00F1B1FB84
:100D4000FAF0C0F16400A07201F0DCFFE072002252
:100D500003A92B4801F027F9002204A9284801F033
:100D6000FBF89DF80C10207B814205D19DF80D0009
:100D7000617B884200D10126E17AA07B814200D9C3
:100D800001273E430CD000F003FDA0EB0900B0F5B5
:100D9000FA7F07D300F0FCFC8146FFF7E1FD01E09C
:100DA000FFF7D6FD00F0F4FCA0EB0800584509D38E
:100DB00000F0EEFC80466846FFF724FE607228B122
:100DC00000202072642004F0CBFBABE79DF802000A
:100DD00020719DF8000060719DF803100A20B1FB9E
:100DE000F0F200FB1211A1719DF80110B1FBF0F2BD
:100DF00000FB1210E0710120E3E700000800002072
:100E00001C01002072B6FEE7F8B50024009490F8AB
:100E100024202546012A12D0012280F824204A6885
:100E20001F23072A0DD20668776B521E02EB82023F
:100E300093409F430B6893401F43776319E0022060
:100E4000F8BD06680D2A0AD2376BD21F02EB820268
:100E500093409F430B6893401F43376309E0F76A51
:100E60000D3A02EB820293409F430B6893401F436D
:100E7000F7620A68072306680A2A0AD3F7680A3A5B
:100E800002EB420293409F438B6893401F43F760FD
:100E900008E0376902EB420293409F438B6893401E
:100EA0001F4337610A68102A01D0112A20D1124B42
:100EB00002689A4217D193681B0219D4936843F4CD
:100EC000000393600968102912D10C490C4A096883
:100ED000B1FBF2F101EB8101490000E0491E0091F4
:100EE0000029FBD104E0816A41F0200181620124E4
:100EF00080F824502046F8BD002401404C0000201A
:100F000040420F000068C06C704700002DE9F041BE
:100F10004FF0000704003D467ED0A06A002628B9A5
:100F2000E66284F82460204600F07EF82046FFF751
:100F3000A3FCA16AC90600D420B1A06A40F0100049
:100F4000A06269E0A16A21F4885141F00201A16226
:100F50006268E169237B0A4347EA43010A43A168C7
:100F60004FF48077B94209D0012907D05FF0000122
:100F700094F814C0BCF1010F02D00AE03946F7E73B
:100F8000F3B1A36A43F02003A362E36A43F00103D1
:100F9000E3622368D3F804C02CF4694C4CEA010CDA
:100FA000C3F804C021688B68DFF870C003EA0C0343
:100FB00013438B60A168B9420BD0012909D00CE022
:100FC000DFF85CC0A3690CEB43330B4343F40061CF
:100FD000DFE7218A0D05A5F580152168CB6A23F48A
:100FE00070032B43CB62216889680E4B19409142F4
:100FF00008D1E662A16A21F0020141F00101A1627B
:10100000BDE8F081A06A20F0020040F01000A0626C
:10101000E06A40F00100E0620120F1E7FDF7E1FF46
:1010200000E0FFFFFE0E1FFF00B585B0002100911C
:1010300001910291039100680E49884218D10E482F
:10104000816941F400718161816901F40071049149
:10105000816941F0040181618069694600F0040002
:1010600004903020009003200190044800F08EFA94
:1010700005B000BD002401400010024000080140FE
:101080002DE9F84300270D460446009700F080FB49
:10109000804620688168C90508D5A06A40F0200014
:1010A000A06284F824700120BDE8F8834168C90576
:1010B00003D4C06A10F4700F2AD0022000F012FC92
:1010C0003B490968B1FBF0F62068036939490B42D6
:1010D0004FEA61014FEAA1121FD1C3684FEA611CB8
:1010E00013EA0C0F19D103690B4225D1C0681042D5
:1010F00022D1142023E0681C0AD02DB100F048FB57
:10110000A0EB0800A84203D920680068800725D515
:10111000206800688007EED52DE003690B4202D1FC
:10112000C168114206D0026923490A4206D1C0684B
:10113000084203D1542002E0292000E0FC2046436D
:10114000009816E0681C11D02DB100F021FBA0EB37
:101150000800A8420AD90098B04207D2A06A40F01D
:101160000400A06284F8247003209DE70098401CCE
:101170000090B042E6D321686FF012000860A06AC8
:1011800040F40070A06220688068C0F342400728E5
:101190000CD1207B50B9A06A20F48070A062A06AB4
:1011A000C00403D4A06A40F00100A06200207BE7E5
:1011B0004C000020244992244992240070B5044632
:1011C00090F8240001280DD0012084F82400204646
:1011D000FFF77EFB02004FF0000005D084F82400EA
:1011E000104670BD022070BDA16A40F201239943F0
:1011F00041F48071A1621F4D23681F49AB4218D191
:101200000E6816F4702F14D0A66A46F48016A662F3
:101210000E68760505D5A66A26F4005646F4805673
:10122000A662A66AF6040AD5E66A26F00606E66213
:1012300006E0A66A26F48016A6625E68E9E7E06228
:1012400084F824006FF00200186020688368C3F3FC
:101250004243072B05D1A84208D1096811F4702F29
:1012600004D0816841F480118160B9E7816841F45C
:10127000A001F9E7002801400424014010B504460C
:1012800090F82400012807D0012084F8240020468B
:10129000FFF7F2FA10B107E0022010BDA16A21F4B5
:1012A000885141F00101A162002184F8241010BD91
:1012B00010B590F821100024022903D00421816385
:1012C00001243DE001680A6822F00E020A6001680C
:1012D0000A6822F001020A601A4A0168914201D1AB
:1012E000012121E0174A1432914201D110211BE063
:1012F000144A2832914201D1891515E0114A3C3235
:10130000914201D189140FE00E4A5032914202D12C
:101310004FF4803108E00B4A6432914202D14FF41D
:10132000801101E04FF08071064A083A51600121B6
:1013300080F82110002180F82010416B01B188470E
:10134000204610BD080002402DE9F05FC16B0C681B
:1013500001680B68D0F840C0042202FA0CF2494D33
:10136000DFF824A1494E4A4FDFF828B1DFF828E121
:1013700022422CD05A072AD50A68920603D40A685A
:1013800022F004020A600168A94201D1042219E096
:10139000514501D1402215E0B14202D14FF48062A3
:1013A00010E0B94202D14FF480420BE0594502D11E
:1013B0004FF4802206E0714502D14FF4800201E033
:1013C0004FF080622F4908394A60C16A3BE04FF014
:1013D000020808FA0CF818EA040F4FF000094FF061
:1013E000010235D05FEA837832D50B689B0605D4BD
:1013F0000B6823F00A030B6080F821200168A942E2
:1014000001D1022219E0514501D1202215E0B1425B
:1014100002D14FF4007210E0B94202D14FF40052F1
:101420000BE0594502D14FF4003206E0714502D17C
:101430004FF4001201E04FF00072124908394A607F
:1014400080F82090816A00291AD0BDE8F05F084733
:10145000082505FA0CF5254212D01B0710D50B689C
:1014600023F00E030B6090F84010C36B02FA01F1F9
:101470005960826380F8212080F82090016BE2E7B8
:10148000BDE8F09F080002401C000240300002400E
:1014900044000240580002406C00024030B528B3BE
:1014A00008C8134914221944B1FBF2F18900C16341
:1014B00010498163022141771A6843F6F0718A432B
:1014C000D0E900142143D0E902452C4321430469AB
:1014D0002143446921438469214311431960002158
:1014E0004163012242770177084630BD012030BDBB
:1014F000F8FFFDBF0000024070B5044690F82000E0
:10150000002501280CD0012084F8200094F82160E7
:101510000020012E06D084F820000225284670BD48
:10152000022070BD022684F82160A063206806684E
:1015300026F0010606602046FFF7B8FBE06A0028A7
:101540002068016802D041F00E0106E021F004019C
:1015500001602068016841F00A01016020680168AB
:1015600041F001010160D9E770B5044600F010F9BF
:101570000546601C02D004480078044400F008F9D5
:10158000401BA042FAD370BD400000202DE9F84F67
:10159000DFF8B8910024A9F1040B23460F2709F1C5
:1015A000040AABF1040EC9E00125A5402A40AA4275
:1015B0007DD1674ED1F804C0ACEB0608B44532D0FB
:1015C00014DCBCF1030F3AD009DCBCF1000F2AD0C7
:1015D000BCF1010F1CD0BCF1020F31D11DE0BCF1F8
:1015E000110F17D0BCF1120F2AD119E0B8F5881FDE
:1015F00019D006DCB8F5803F15D0B8F5801F1FD193
:1016000011E0B8F5001F0ED0B8F5041F18D10AE09C
:10161000CB6815E0CB681B1D12E0CB6808330FE0E8
:10162000CB680C330CE08B682BB1012B4FF0080317
:1016300003D0456104E0042302E0056100E00023DB
:10164000FF2A01D8064601E000F104064FEA8405AE
:1016500001D9A5F12005D6F8008007FA05FC28EA93
:101660000C0803FA05F548EA0508C6F800804D683D
:10167000ED0062D5374DAE6946F00106AE61AD6949
:1016800024F0030605F001050095334D06EB050C2B
:10169000DCF80850A607360F07FA06F825EA080511
:1016A000DFF8B880404503D14FF0000817E044E070
:1016B000DFF8AC80404502D14FF001080FE0DFF8C1
:1016C000A480404502D14FF0020808E0DFF898807E
:1016D000404502D14FF0030801E04FF0040808FA3A
:1016E00006F848EA0508CCF808804D68D9F800608B
:1016F000ED024D4601D5164300E096432E604D683D
:10170000DAF80060AD02554601D5164300E0964375
:101710002E604D68DBF80060AD035D4601D51643D1
:1017200000E096432E604D68DEF80060ED037546DC
:1017300001D5164300E096432E60641C0D682A46CE
:10174000E5407FF431AFBDE8F88F000008040140A8
:10175000000011100010024000000140000801408C
:10176000000C014000100140001401408068084056
:1017700000D001207047C26821EA02030A4043EA10
:101780000241016170470AB1016170470904FBE73A
:1017900001488068704700004000002002488168CE
:1017A000027811448160704740000020074810B55E
:1017B000016841F010010160032000F07BF80F2068
:1017C00000F006F800F024F8002010BD00200240D0
:1017D00070B50D4D04464FF47A712878B1FBF0F0E6
:1017E0000A490968B1FBF0F000F083FD48B9102CFC
:1017F00007D200222146501E00F03CF800206C6009
:1018000070BD012070BD0000400000204C00002091
:101810000F4808B5816941F001018161816901F0DA
:1018200001010091C16941F08051C161C06900228C
:1018300000F0805000900F21901E00F01BF805482A
:10184000416821F0E06141F00071416008BD000095
:101850000010024000000140002809DB00F01F02D8
:10186000012191404009800000F1E020C0F8001102
:1018700070470000F0B40E4B1B680C46C3F3022304
:10188000C3F10705042D00D90425191D072901D22C
:10189000002300E0DB1E012606FA05F1491E214067
:1018A00099409E40761E16403143F0BC03F0ECBDDB
:1018B0000CED00E0064900F0070208684FF6FF0350
:1018C000184040EA0220034A1043086070470000B5
:1018D0000CED00E00000FA050149012008627047A4
:1018E00000000E4210B501460020234C012922D0F1
:1018F000022939D010291DD161682268D20119D579
:101900001E48C1F38342C903805C0AD561681B4A43
:10191000C1F34041921E515C194AB2FBF1F14843B8
:1019200001E0184948436168490203D4400003219B
:10193000B0FBF1F010BD226AC2F30121012903D1ED
:10194000920701D5C80310BD022905D1626A92072A
:1019500002D549F6404010BD0329FCD12168890316
:10196000F9D54FF2244010BD00F020F96168C1F3B1
:101970008131491C4900DBE700100240386E000845
:1019800000127A0000093D002DE9F8430546007871
:10199000354CC00754D0E0690026C00008D4E06987
:1019A00040F08050E061E069012600F08050009036
:1019B0002E480168C90512D40168804641F480713F
:1019C0000160FFF7E5FE074605E000BFFFF7E0FE18
:1019D000C01B642823D8D8F80000C005F6D5206ABB
:1019E00010F4407021D0A98801F4407181421CD0CC
:1019F000206A1F49012220F440700A6000220A6018
:101A00002062C00711D0FFF7C3FE074641F28838B5
:101A100008E000BFFFF7BCFEC11B414502D903200F
:101A2000BDE8F883206A8007F4D5206A696820F44D
:101A30004070084320621EB1E06920F08050E061F0
:101A40002878800705D56068A96820F440400843DD
:101A500060602878C00605D56068E96820F48000D9
:101A6000084360600020DBE7001002400070004087
:101A7000400442422DE9F0470F46050061D0434E35
:101A8000306800F00700B84209D2306820F0070043
:101A900038433060306800F00700B84251D1286800
:101AA0003B4C810712D5400703D5606840F4E060E5
:101AB00060602878000703D5606840F4605060607B
:101AC0006068A96820F0F000084360602878C007CB
:101AD00028D06868012810D02168022810D0890712
:101AE00000292EDA616821F0030101436160FFF7EC
:101AF0004FFE804641F288390DE021688903EFE707
:101B00008901EDE7FFF744FEA0EB0801494502D942
:101B10000320BDE8F0876068696800F00C00B0EB56
:101B2000810FEFD1306800F00700B8420BD9306860
:101B300020F0070038433060306800F00700B842FA
:101B400001D00120E5E72878400705D56068E968FD
:101B500020F4E060084360602878000706D56068DC
:101B6000296920F4605040EAC100606000F02EF85E
:101B70006168084AC1F30311515CC8400649086016
:101B800006480068FFF724FE0020C2E7002002405C
:101B900000100240486E00084C0000204400002065
:101BA00001480068704700004C00002004480549C7
:101BB00000684968044AC1F3C221515CC8407047BB
:101BC0004C00002000100240586E00080E4A516878
:101BD0000E4801F00C03042B11D0082B0FD10C4838
:101BE000C1F38343C903C05C0AD55168084AC1F3F5
:101BF0004041921E515C054A5043B0FBF1F07047E2
:101C000004494843704700000010024000127A0067
:101C1000266E000800093D002DE9F84F040070D041
:101C20002078C04DC00749D06868C0F38100012802
:101C300007D06868C0F38100022809D16868C00332
:101C400006D52868800339D560680028E7D035E0DC
:101C50006068B0F5803F0BD010B1B0F5A02F11D067
:101C6000286820F480302860286820F4802002E072
:101C7000286840F480302860606890B1FFF788FDE4
:101C800006460AE0286840F480202860F0E700BF9C
:101C9000FFF77EFD801B642873D828688003F7D582
:101CA0000CE0FFF775FD064605E000BFFFF770FD8D
:101CB000801B6428F0D828688003F7D420789A4ED7
:101CC00080074FF001094FF0000839D5686810F01F
:101CD0000C0F07D06868C0F38100022809D168683A
:101CE000C00306D42868800714D52069012808D1CC
:101CF00010E02069B0B1C6F80090FFF749FD074633
:101D000005E00AE1FFF744FDC01B0228C4D828689B
:101D10008007F7D52868616920F0F80040EAC10023
:101D200028600DE0C6F80080FFF732FD074604E0AA
:101D3000FFF72EFDC01B022823D828688007F7D4A0
:101D4000207800072CD57948A169D9B1C0F8009056
:101D5000FFF71EFD074604E0FFF71AFDC01B02282F
:101D60000FD8686A8007F7D571484FF4FA510068B8
:101D7000B0FBF1F0009000BF0098411E0091FAD234
:101D80000EE080E0C0F80080FFF702FD074604E0A7
:101D9000FFF7FEFCC01B022875D8686A8007F7D4DD
:101DA0002078400760D5E8690027C00008D4E869BA
:101DB00040F08050E861E869012700F08050009011
:101DC0005C480168C90513D40168834641F48071F9
:101DD0000160FFF7DDFC824606E000BFFFF7D8FC9C
:101DE000A0EB0A0064284ED8DBF80000C005F5D54A
:101DF000E06801280AD008B1052813D0286A20F02D
:101E000001002862286A20F0040002E0286A40F0FD
:101E100001002862E06841F2883B98B1FFF7B8FC06
:101E200082460BE0286A40F004002862EEE700BF1B
:101E3000FFF7AEFCA0EB0A0159455AD8286A800783
:101E4000F6D50CE0FFF7A4FC824605E0FFF7A0FC06
:101E5000A0EB0A0159454CD8286A8007F6D41FB177
:101E6000E86920F08050E861E06988B36968C1F3EF
:101E70008101022944D00228C6F8608004D0FFF70F
:101E800087FC044638E034E0FFF782FC074604E0B4
:101E9000FFF77EFCC01B02282BD828688001F7D4EE
:101EA000206AB0F5803F05D16868A16820F4003051
:101EB00008436860D4E908010843696821F4741193
:101EC00008436860C6F86090FFF762FC044606E0CD
:101ED00025E000BFFFF75CFC001B022809D828683A
:101EE0008001F7D51BE000BFFFF752FC001B022862
:101EF00002D90320BDE8F88F28688001F4D40EE0F1
:101F00000128F7D06868226A00F48031914204D138
:101F1000616A00F47010884201D00120EAE70020D5
:101F2000E8E7000000100240000042428004424204
:101F30004C00002000700040024850F8210080B2A0
:101F400070470000006C0040024800EB810091B235
:101F500001607047006C0040F8B505004FF00000CC
:101F600016460C46009006D02CB100226946284641
:101F700000F019F808B10120F8BD287B2070E87B3B
:101F8000E070697B6170A97BA17056B102F060FEC0
:101F9000E070607802F05CFE6070A07802F058FE9D
:101FA000A0700020F8BD2DE9F04791460C465FEA8D
:101FB00000084AD084B3D8F800004068400744D4F1
:101FC000404602F0E3FE4FF461620546B0FBF2F1D9
:101FD000B0FBF2F302FB13503C23B0FBF3F0B5FB74
:101FE000F2F6607002FB1650B0FBF3F203FB120036
:101FF000A070182931D31820B1FBF0F7B1FBF0F233
:1020000000FB12102070404602F0B9FE411C04D0C3
:10201000A84202D9461B02E017E04FF0FF36A7EBBB
:10202000071000EB4000C0EB001005EBC01529467F
:10203000404602F0FAFE40B9701C01D0711900E070
:102040003146404602F0DDFE10B10120BDE8F087C8
:102050003946404602F007FE00E02170B9F1000F5A
:102060000BD0207802F0F4FD2070607802F0F0FDD3
:102070006070A07802F0ECFDA0700020E6E70000A0
:1020800070B5040003D0607C002610B105E001208B
:1020900070BD2674204600F03DF802206074204692
:1020A00000F00AF9042550BB204602F033FE30BB95
:1020B0002068416821F007014160A06820B1144800
:1020C000016821F0010101601148001F0168A26848
:1020D00021F46071114301606068411C04D101204A
:1020E000FFF700FC58B1401E2268C0F30341916025
:1020F000216880B2C860204602F026FE08B16574EF
:10210000C5E7E67301206073A0736074002070BDA2
:10211000306C004008B50068084988420DD1FFF7CF
:10212000DBFB0748C16941F00061C161C069054935
:1021300000F0006000900120086008BD0028004009
:10214000001002403C0442422DE9F0410D460400DB
:102150003BD0C5B3207C01283AD04FF0010884F869
:10216000108002206074E87872B302F068FDE073BA
:10217000687802F064FD6073A87802F060FDA073D7
:10218000C2B2617BE07B02F011FE20732870204612
:1021900002F0FCFD4FF46161B0FBF1F1002518295C
:1021A0002DD91822B1FBF2F1A1EB011101EB410194
:1021B000C1EB011100EBC1163146204602F035FE9D
:1021C0000427C8B90BE000E004E00120BDE8F0817D
:1021D0000220FBE7E07368786073A878CFE72046B9
:1021E00002F0CDFD411C0AD0B04208D2064901449C
:1021F000204602F006FE10B167742574E5E784F806
:10220000118025740020E1E7805101002DE9F041A3
:102210000D46040024D01DB3207C012823D04FF0AC
:10222000010884F81080022060742878EAB102F076
:1022300006FD4FF4616100FB01F6687802F0FFFCD7
:10224000C0EB001006EB8006A87802F0F8FC351809
:102250002946204602F0E9FD0026042710BB0FE0C6
:102260000120BDE8F0810220FBE74FF461614843A3
:102270006978C1EB011100EB8100A9784518E7E707
:102280002068416821F005014160204602F077FD99
:10229000411C0AD0A84208D206490144204602F057
:1022A000B0FD10B167742674DAE784F811802674E3
:1022B0000020D6E78051010070B504000AD02068E4
:1022C000416821F008014160FFF762FA05464FF4CA
:1022D0007A7608E0012070BDFFF75AFA401BB04241
:1022E00001D9032070BD206840680007F4D50020A4
:1022F00070BD10B5401EB0F1807F01D3012010BD2C
:102300004FF0E02460610F21601703F0BDF800205A
:10231000A06107202061002010BD10B590F83C207E
:10232000012A22D0012280F83C20CA688C6822F45D
:10233000407222434C6822F4806222430C6822F4EB
:10234000006222430C6922F4805222434C6922F439
:1023500000522243C969002322F480420A430168E3
:102360004A6480F83C30002010BD022010BD0000FF
:1023700070B590F83C20012A26D0012480F83C401A
:10238000022280F83D2003685A689D6822F070069A
:102390000A6832435A600D4B02689A4208D0B2F183
:1023A000804F05D00A4B9A4202D00A4B9A4204D180
:1023B000496825F080031943916080F83D40002171
:1023C00080F83C10084670BD022070BD002C014012
:1023D00000040040000800402DE9F0410D460400D3
:1023E00003D094F83D0018B108E00120BDE8F08169
:1023F000002084F83C00204600F040F8022084F8D9
:102400003D002068816844F2070291438160211DEC
:10241000206802F075FD226890689169166A2B6841
:10242000AF69034340F20330814341EA0721A868C2
:10243000EF6908434FF6FC418843E96840EA07200A
:10244000014328692F6A000140EA073008436968A0
:102450006D6926F0220646EA051529439360226835
:10246000906154F8460B0162012004F81F09E075E1
:102470002076E0762077A0750020B7E710B586B00B
:10248000002400940194029403940068B0F1804FFA
:1024900030D11948C16941F00101C161C16901F040
:1024A00001010491816941F004018161816901F0B8
:1024B00004010491816941F00801816180696946E4
:1024C00000F0080004904FF4004000900B48FFF724
:1024D0005DF80820CDE90004694609480294FFF739
:1024E00055F80849486820F4407040F0E06040F436
:1024F0008070486006B010BD001002400008014026
:10250000000C01400000014070B590F83E600446A8
:1025100090F83F5090F8423090F84320022021B1CB
:1025200004290ED0012E1BD114E0012E18D1012B4D
:1025300016D184F83E0084F8420001220021206870
:1025400020E0012D0CD1012A0AD184F83F0084F843
:10255000430014E0012D03D1012B01D1012A01D048
:10256000012070BD84F83E0084F83F0084F84200EA
:1025700084F8430001220021206802F0FDFC0122C2
:102580000421206802F0F8FC2068016841F0010194
:102590000160002070BD704730B585B0002100910A
:1025A000019102910391204B0268204902240325E6
:1025B0001F489A420DD18A6942F004028A618969F2
:1025C000039501F0040104910115CDE90014694659
:1025D00025E0184B9A4224D1174A536823F44063EC
:1025E00043F0E06353608A6942F004028A618A69B9
:1025F00002F0040204928A6942F008028A61896941
:10260000039401F008010491C021CDE9001469464A
:10261000FEF7BCFFCDE90054694608480394FEF775
:10262000B5FF05B030BD0000002C01400010024095
:10263000000801400004004000000140000C01407F
:1026400070B5044690F83C0000260D4601280FD0D6
:10265000012084F83C006AB1042A1DD0082A2FD03A
:102660000C2A3FD00126002084F83C00304670BD83
:10267000022070BD206802F001FD2068816941F0F0
:10268000080181612068816921F00401816120686D
:1026900081692A69114311E0206802F017FD206862
:1026A000816941F4006181612068816921F4806160
:1026B0008161206881692A6941EA02218161D2E74A
:1026C000206802F02FFD2068C16941F00801C16156
:1026D0002068C16921F00401C1612068C1692A69CB
:1026E000114311E0206802F049FD2068C16941F4FE
:1026F0000061C1612068C16921F48061C161206805
:10270000C1692A6941EA0221C161ACE710B5040040
:1027100003D094F83D0010B107E0012010BD002067
:1027200084F83C00204600F01FF8022084F83D00A9
:10273000211D206802F0E4FB012084F8460084F8A3
:102740003E0084F83F0084F8400084F8410084F89B
:10275000420084F8430084F8440084F8450084F87B
:102760003D00002010BD000038B505460068184A3D
:102770001849904220D1886940F4006088618869D6
:10278000164C00F400600090134820601020606038
:1027900000208021C4E90201490021618900C4E9C7
:1027A0000510C800E0612046FEF778FE08B1FEF78C
:1027B00029FBEC62656238BD094A9042FBD1C869C9
:1027C00040F00200C861C86900F00200009038BD06
:1027D000002C0140001002406C0002400802002062
:1027E0000004004003498A68904201D1002008702B
:1027F00070470000600000207047000010B50446DC
:10280000022249B104290ED0082913D094F84100BE
:10281000012816D0012010BD94F83E000128F9D1FE
:1028200084F83E200FE094F83F000128F2D184F8AC
:102830003F2008E094F840000128EBD184F84020C4
:1028400001E084F841200122206802F095FB0F4945
:102850002068884203D1426C42F4004242642068FE
:10286000884208D0B0F1804F05D00949884202D093
:102870000849884204D1816801F00701062903D084
:10288000016841F001010160002010BD002C0140F1
:1028900000040040000800402DE9F04117460D00FB
:1028A00004464FF000060CD0042D11D0082D16D090
:1028B00094F84100022819D094F84100012818D05A
:1028C0007CE094F83E00022810D094F83E00F5E732
:1028D00094F83F00022809D094F83F00EEE794F8FE
:1028E0004000022802D094F84000E7E70220BDE84B
:1028F000F081002F62D0002B60D04649464ADFF8B5
:102900001CC102204DB1042D18D0082D27D084F809
:1029100041000C2D44D0012679E084F83E00606A25
:102920008162606A3946C262606AC0F830C022685B
:10293000606A3432FEF7E0FD88BB21E084F83F0096
:10294000A06A8162A06A3946C262A06AC0F830C03B
:102950002268A06A3832FEF7CFFD00BB15E084F88C
:102960004000E06A8162E06A3946C262E06AC0F80B
:1029700030C02268E06A3C32FEF7BEFD78B909E05B
:102980002068C16841F400711EE02068C16841F40C
:10299000806119E02068C16841F4006114E00DE035
:1029A000206B8162206B3946C262206BC0F830C058
:1029B0002268206B4032FEF79FFD08B1012096E7A8
:1029C0002068C16841F48051C16001222946206815
:1029D00002F0D2FA12492068884203D1426C42F4D4
:1029E000004242642068884208D0B0F1804F05D090
:1029F0000C49884202D00C49884204D1816801F018
:102A00000701062903D0016841F001010160304649
:102A10006DE70000934F0008F14F000829500008AF
:102A2000002C0140000400400008004070B50D007B
:102A300004464FF0000607D0042D0CD0082D11D00D
:102A40000C2D16D0012645E02068C16821F40071E4
:102A5000C160606A13E02068C16821F48061C160D0
:102A6000A06A0CE02068C16821F40061C160E06ADE
:102A700005E02068C16821F48051C160206BFEF739
:102A800017FC00222946206802F076FA174B41F223
:102A9000111120688A10984209D1036A0B4206D1AD
:102AA000036A134203D1436C23F400434364206858
:102AB000036A0B4206D1016A114203D1016821F079
:102AC0000101016001203DB1042D08D0082D09D07D
:102AD00084F84100304670BD84F83E00FAE784F87F
:102AE0003F00F7E784F84000F4E70000002C0140C5
:102AF000FEE7000010B50F4C01212046FEF736FE20
:102B000080B102212046FEF731FE68B10421204643
:102B1000FEF72CFE50B108212046FEF727FE38B103
:102B2000002010BD012010BD022010BD032010BDEB
:102B3000042010BD0008014008B500248DF80040B5
:102B40002546174E00F08CFB00F062FB002806D0F3
:102B500002DD4FF0010001E04FF0FF30308200F065
:102B60004FFB08B10120B070FEF712FE401B142885
:102B700011D3FEF70DFE05468DF80040FFF7BAFFB2
:102B8000040008D19DF8000028B100231A466946C8
:102B9000F06903F023FD022002F0E2FCD2E700001E
:102BA000080000200B4800F019F808B900F026F8DA
:102BB000094D05F11604E87818B1A87A02460146D5
:102BC00002E0A2786178207800F032F81E2002F04E
:102BD000C7FCF0E7C00100200800002000B540B1AC
:102BE0000549002208601146104600F021F8002037
:102BF00000BD012000BD00005000002010B50B4CAE
:102C0000206880B10421FFF7F9FD00280CD10821CC
:102C10002068FFF7F3FD002806D12068BDE81040CA
:102C20000C21FFF7EBBD012010BD0000500000207B
:102C300030B50C4601461546002000F00BF8214641
:102C4000012000F007F82946BDE83040022000F0DE
:102C500001B80000084A1268002A0BD0642900D984
:102C600064211268D26A4A436421B2FBF1F189B24D
:102C700000F004B87047000050000020104A1368AC
:102C8000002B12D0032810D280B1012810D00228C6
:102C90000BD10C221868C36A994200D999B24AB183
:102CA000042A09D0082A09D0016470470422F1E7F8
:102CB0000822EFE74163704781637047C163704743
:102CC000500000203EB50420009001200190062015
:102CD0000290002469460A48FEF796F80848FEF775
:102CE0006DFA0A210648FEF7CBF918B90448FEF739
:102CF00009F984B20248FEF7C1FA20463EBD000041
:102D0000EC00002010B500F009F86421484340F6BB
:102D1000FF71B0FBF1F0C0B210BD00003EB5052060
:102D200000900120019006200290002469460A4884
:102D3000FEF76AF80848FEF741FA0A210648FEF74E
:102D40009FF918B90448FEF7DDF884B20248FEF78F
:102D500095FA20463EBD0000EC0000203EB5002460
:102D600011480094019402940E4984600160047338
:102D70000475012505614FF460214460C161FEF7CF
:102D8000C5F808B1FEF73EF80420CDE90005694614
:102D900002940548FEF738F8002801D0FEF732F813
:102DA0003EBD000000240140EC000020094808B5A9
:102DB000416941F0010141614069002200F00100D8
:102DC000009005211020FEF755FDBDE808401020B9
:102DD000FEF742BD001002407CB500F0EEFB012181
:102DE000062326A2084600F01BFD01F0DBFE0022B0
:102DF00001210A2003F05AFB244CE061244800F032
:102E00000FFA244A0021244802F0F6FB60632020D8
:102E100004F12001C500CDE9000100232A461FA1CD
:102E2000204803F0C1FD04F128000824CDE900404A
:102E300000232A461CA11E4803F0B6FD13480023B8
:102E40002C30CDE900402A461AA11C4803F0ACFD05
:102E50000E4800233030CDE900402A4618A11A4818
:102E600003F0A2FD094918202431CDE90001002317
:102E7000A20116A1184803F097FD7CBD4F53204CCA
:102E80006F6164696E672E2E2E000000080000201E
:102E900078010020DC6D0008534E00084B65795422
:102EA00061736B00392B00084C45445461736B000F
:102EB000A52B0008454E565461736B00D90C0008D1
:102EC0005753323831320000655400084F4C4544A6
:102ED0005461736B000000008D3900082DE9F04348
:102EE00085B00025364800950195029503958169C6
:102EF00041F010018161816901F010010491816943
:102F000041F020018161816901F020010491816912
:102F100041F004018161816901F00401049181693A
:102F200041F0080181618069DFF8989000F00800A5
:102F30000490002242F230314846FEF724FC012280
:102F4000970339464846FEF71EFC0F20CDE90005E1
:102F50000124694602941C48FEF718FB2003CDE9C2
:102F60000005694602944846FEF710FB60031126EF
:102F70004FF00308CDE90006CDE9025869464846FE
:102F8000FEF704FBCDE900740227CDE9024769464C
:102F90004846FEF7FBFA30208DE8B1006946484606
:102FA000FEF7F4FA4FF44070CDE90006CDE902488F
:102FB00069464846FEF7EAFA05B0BDE8F08300002E
:102FC00000100240000C0140000801407CB50024C4
:102FD0001E4801941C4900940160611E41604FF439
:102FE00080718160FFF74CF808B1FDF70BFF0121FC
:102FF0001648FEF7A1FF43F2F225A84223D08DF830
:1030000004408DF805408DF80640012201A90F48C3
:10301000FFF7FCF808B1FDF7F5FE01208DF8000080
:103020008DF801008DF8020002468DF803406946D4
:103030000648FFF789F808B1FDF7E4FE2A460121AA
:103040000248FEF781FF7CBD002800401C010020E3
:1030500010B592B000240F941C2108A81094FDF71D
:10306000C6FA20216846FDF7C2FA20481E49C0E989
:1030700000145921C0E9024180210461C0E90541E1
:10308000FFF744FB08B1FDF7BDFE0F940FA91748E9
:103090001094FFF76DF908B1FDF7B4FE6020CDE99B
:1030A00008040A940B940C940D94082208A90F4864
:1030B0000E94FFF7C5FA08B1FDF7A4FE00944FF493
:1030C0000050CDE9044002940194039469460748F6
:1030D0000794FFF722F908B1FDF794FE0348FFF7C4
:1030E0005BFA12B010BD0000002C0140300100203E
:1030F00010B58CB024216846FDF779FA00241648F3
:1031000009944FF080410A94C0E900144FF6FF7112
:10311000C0E902418021046181610120CDE9000400
:103120000C21CDE902040491CDE9054007946946DC
:1031300009480894FFF750F908B1FDF763FE0994B8
:1031400009A905480A94FFF713F9002801D0FDF7F3
:1031500059FE0CB010BD00007801002010B58AB0F7
:10316000002407941C2168460894FDF740FA234880
:10317000214901604721C0E9011440F2E731C0E96B
:10318000031480218161FFF7C1FA08B1FDF73AFE0F
:10319000079407A919480894FFF7EAF808B1FDF762
:1031A00031FE6020CDE900040294002269461348F4
:1031B0000494FFF745FA08B1FDF724FE042269469E
:1031C0000E48FFF73DFA08B1FDF71CFE08226946DC
:1031D0000A48FFF735FA08B1FDF714FE0C226946DC
:1031E0000648FFF72DFA08B1FDF70CFE0348FFF77C
:1031F000D3F90AB010BD000000040040C001002057
:1032000002490022087B0A73704700004C06002028
:1032100002490022B1F908000A8170474C060020DB
:1032200010B5002819D00D4C20600020E0802081CE
:10323000207300F05DF8E072A0726073FEF7A8FAE8
:1032400020613C212068FFF75FF9206847F6FF7195
:10325000026851620068406AA08010BD4C060020E0
:1032600070B5224C206800283ED00068416AA088D2
:10327000A180081A00B200F10801112900D3002032
:10328000E1880844E08004E0801EE0802089401C42
:103290002081B4F906000228F6DA6FF0010100BFC0
:1032A000B4F90600884205DC801CE0802089401EBD
:1032B0002081F5E700F01CF80546FEF769FA0146A3
:1032C000E07AA84201D0E57221612069081A0A2833
:1032D0000AD3A07AA84207D0A572617B814203D1AC
:1032E0008D4201D00120207370BD00004C060020EB
:1032F00010B54FF480510348FEF738FA012800D08A
:10330000002010BD000C0140FEE7FEE710B50021D3
:10331000074C0A46002004EBC1131A54401CC0B2EB
:103320008028FAD3491CC9B20829F3D310BD000084
:103330004C020020F0B50B4424E0044685181DE043
:103340007F2C19D8002917DB3F2915DCCE1701EB9C
:1033500056764FEAE60C0D4F26F0070607EBCC1722
:103360002744A1EB060E97F800C0012606FA0EF6D8
:103370002CEA060C87F800C0641C24B2A542DFDCEE
:10338000491C09B28B42D8DCF0BD00004C02002081
:103390002DE9F04F1E464FF0000904460D46174632
:1033A000C846B1420ED1BC4208DD2746144605E0AE
:1033B0002946204600F062F8641C24B2BC42F7DDC6
:1033C000BDE8F08FBC420DD1B54208DD1D460E466A
:1033D00005E02946204600F051F86D1C2DB2B5429B
:1033E000F7DDEDE703DD274614461D460E46B542E0
:1033F00005DD684205B2704206B24FF00109701B4C
:10340000391B884207DD20462C460546384637469C
:1034100006464FF00108701B4200391B0FFA82FB71
:10342000421A52000FFA82FAC1EB400019E06042E2
:1034300001B203E0684201B203E02146284601E000
:103440002946204600F01AF8BC42B9DA641C24B2BE
:10345000002E02DA06EB0B0003E06D1C2DB206EB2A
:103460000A0006B2B9F1000F03D0B8F1000FE1D0A5
:10347000DDE7B8F1000FE3D0DFE7000010B57F28EB
:1034800013D8002911DB3F290FDCCA1701EB527258
:10349000D410064B22F0070203EBC41318448A1A17
:1034A0000378012191400B43037010BD4C020020B2
:1034B0002DE9F0430446CD1807988846A6182746FC
:1034C00068BB681E0FFA80F909E041463846FFF7ED
:1034D000D5FF49463846FFF7D1FF7F1C3FB2BE42B9
:1034E000F3DC761E474636B209E039462046FFF740
:1034F000C5FF30463946FFF7C1FF7F1C3FB2BD42D2
:10350000F3DCBDE8F083444605E021463846FFF78A
:10351000B5FF641C24B2A542F7DC7F1C3FB2BE425B
:10352000F1DCEEE710B500204FF47A720021491C5F
:103530009142FCD3401C9042F8D3012001F046FB9D
:10354000BDE81040012001F049BB70B500240646DB
:10355000802525FA04F0304000D0012001F03EFB28
:10356000012001F033FB002001F030FB641CE4B2C9
:10357000082CEED3012001F029FBBDE870400020AB
:1035800001F024BB10B5012001F028FB012001F05F
:103590001DFB002001F022FBBDE81040002001F0DF
:1035A00015BB10B5002001F019FB012001F00EFB46
:1035B000BDE81040012001F011BB10B5FFF7B2FFCC
:1035C000AE2001F013FBD52001F010FB802001F0AC
:1035D0000DFBA82001F00AFB3F2001F007FBD320E0
:1035E00001F004FB002001F001FB402001F0FEFA95
:1035F000A12001F0FBFAC82001F0F8FADA2001F06E
:10360000F5FA122001F0F2FA812001F0EFFACF2052
:1036100001F0ECFAD92001F0E9FAF12001F0E6FA24
:10362000DB2001F0E3FA302001F0E0FAA42001F001
:10363000DDFAA62001F0DAFA8D2001F0D7FA142085
:1036400001F0D4FAAF2001F0D1FAFFF75FFEBDE838
:10365000104001F0A7BA0246012000E05043491E85
:10366000FCD27047F0B50B4423E0044685181CE0FB
:103670007F2C18D8002916DB3F2914DCCE1701EB6C
:10368000567C4FEAEC070C4E2CF0070C06EBC716E5
:103690002644A1EB0C0E37784FF0010C0CFA0EFC0F
:1036A00087EA0C073770641C24B2A542E0DC491C91
:1036B00009B28B42D9DCF0BD4C02002010B50C469B
:1036C00040F0B00001F092FA102040EA141001F02E
:1036D0008DFA04F00F00BDE8104001F087BA000039
:1036E00008B5082B0DD0062B0AD10A4B02EB42027B
:1036F00003EB4202C03A00920823062200F00EF8C3
:1037000008BD054B03EB0212A2F5007210230092D4
:103710000822F3E750740008606E00082DE9F04FAE
:103720001F4616460D4682460024FFF703FE7F1E05
:10373000F81707EB50700121DFF898B001EBE007B4
:1037400043E000203DE000BF0AEB00037F2B36D8AA
:10375000E91705EB5171CA1021F00701691A002D14
:1037600003DA521E083112B209B202EB0409B9F1B0
:10377000070F0ED8099A04FB06F802440BEBC91E8A
:1037800018F802201EF803C08A404CEA020C0EF81A
:1037900003C009F10102072A11D80BEBC91202EB91
:1037A0000308099A04FB06FC024498F880301CF8D0
:1037B0000220C1F10801CA40134388F88030401C40
:1037C000C0B2B042C0D3641CE4B2A742B9DCBDE8C9
:1037D000F08F00004C0200202DE9F04700241D4628
:1037E00090468A4681460A27089E14E0291B0A2033
:1037F000491EFFF730FFB8FBF0F0B0FBF7F107FB15
:10380000110204FB069000B2334651463032FFF7F6
:1038100067FF641CE4B2AC42E8D3BDE8F087000067
:103820002DE9FF4F002483B09B4690462546A246D3
:10383000DFF850919EE0100610D403988DF8042014
:10384000641C2844A4B28DF805A000B25B4604991C
:10385000FFF746FF05EB0B0085B28BE00620B0EBCF
:10386000521F0ED1641CA0B28DF8042018F800106D
:10387000002974D08DF80510401C84B28DF806A084
:103880003CE00E20B0EB121F16D1641CA0B28DF8E4
:10389000042018F80010002971D0401C80B28DF867
:1038A000051018F80010002969D08DF80610401C8A
:1038B00084B28DF807A021E01E20B0EBD20F1FD1FB
:1038C000641CA0B28DF8042018F80010002956D00E
:1038D000401C80B28DF8051018F8001000294ED059
:1038E000401C80B28DF8061018F80010002946D050
:1038F000401C8DF8071084B28DF808A0002609E05E
:10390000641CA4B236E0384601A9FCF797FE68B102
:10391000761CB6B206EB860000EB461101EB0900FF
:10392000074619A1FCF78AFE0028ECD1BBF1080F6D
:1039300003D0BBF1060F1DD112E006EB860000EBB1
:10394000461101EB0900401D009003981023284404
:1039500000B21A460499FFF7E1FE103509E00EE0C7
:1039600003980623284400B23F220499FFF7B8FECB
:10397000AD1DADB218F80420002A7FF45CAF07B08B
:10398000BDE8F08F8A76000800000000B8B0FE485D
:103990000DF1780C00F13C0100251EC916938CE84E
:1039A0001600D0E90012CDE91C12D0E90212CDE9CF
:1039B0001A12D0E9041014901795219522952B9591
:1039C000CDE918512495269501202995129503904B
:1039D0000B9000202A952C95049511951395259010
:1039E00028902790FF2031900D200F9010200A90F2
:1039F0000F200E900D9000204FF00E0BCDF830B040
:103A00004FF0010982462E9003F034F832900026E0
:103A10008DF8C060142132A802F0D8FBDB4CB4F959
:103A200010802682002230A9E06902F0E7FE01281A
:103A300002D19DF8C0002070FDF7AAFEA0EB0A009D
:103A4000B0F5FA7F07D3FDF7A3FE8246B9F1000F68
:103A500040D0002081469DF8C070012F3CD0C5B3F6
:103A6000012D7DD0032D7CD0052D7BD0062D7AD065
:103A70000B2D79D00A2D78D0022D77D0042D76D059
:103A8000082D75D0072D74D0012F73D0A07858B1B0
:103A9000A670229800286ED05FF000004FF0010958
:103AA0002290FDF775FE8246B8F1000F72D0229881
:103AB000002870D0179800286ED001286DD00228F9
:103AC0006CD003286BD004286AD00B9901EB080056
:103AD000FEE312E00120BDE7012D0BD06DB1062DF4
:103AE000C5D0092DD1D00B2D7ED00A2D7DD0A6704A
:103AF00001258CE7A670002589E7002202A9A448C9
:103B0000FEF751FA002233A9A148FEF725FAA07862
:103B10000028ECD1FFF7FAFB06239EA20021242007
:103B2000FFF77EFE0A237F2219460020FFF730FCB4
:103B30009DF8CE109DF8CD00CDE900019DF8CF3065
:103B400097A2102106A8FCF78FFB062306AA1821CE
:103B50001C20FFF765FE9DF80A109DF809000BE098
:103B60001FE0B2E057E1ACE131E2D7E295E3F4E3E4
:103B7000F4E3F4E3F4E3F4E3CDE900019DF8083065
:103B80008CA2102106A8FCF76FFB0823262106AAA9
:103B90001C201BE2FBE3FBE3FBE3FBE3FBE3FBE3B8
:103BA000FBE3B8F1000F09DD607800F101006070FF
:103BB00094F90100042807DB667005E004DA6078F8
:103BC000C0B16078401E6070A07800B3607831901A
:103BD000A67014202E90607801280DD0607878B1FE
:103BE000607802280ED001E00CE2B2E2607803288F
:103BF0000AD00CE00320E6E700200425219006E02F
:103C0000022504E0032502E0002005252B9094F90D
:103C1000010000EB40010E2000EB8100A0EB0B0047
:103C200000B2022801DD022004E06FF001018842A9
:103C300000DA084658440FFA80FBFFF767FB0021C3
:103C4000062360A20846FFF7EBFD0A237F221946F0
:103C50000020FFF79DFB06230E2118461E9AFFF752
:103C6000DFFD06231A2118461F9AFFF7D9FD062308
:103C700026211846169AFFF7D3FD0623322118464F
:103C8000209AFFF7CDFDABF1010001B20A2380229B
:103C90000020FFF7E7FC3198FF2815D02E98002868
:103CA000FBD006234BA200214C20FFF7B9FD0620D4
:103CB000319A0090012300216A20521CFFF78CFDED
:103CC0002E98401EC0B22E901DE2B8F1000F05DD07
:103CD00029994FF0010020EA010004E004DA299854
:103CE000A0B14FF000002990A07830B3A670274C07
:103CF000299804F11404205C58B14FF00001299870
:103D00002154207840B14FF0010207E04FF001004C
:103D1000E9E74FF00101F2E74FF000022F4E4FF0BC
:103D200010013046FDF72FFD607808B1012200E058
:103D3000002220213046FDF726FD299838B11B20AE
:103D40000A99401A00B2022803DD022006E00F2083
:103D5000F6E76FF00101884200DA08460A99084444
:103D600000B20A90FFF7D2FA002106231CA20846EF
:103D7000FFF756FD0A237F2219460020FFF708FBB4
:103D8000024C143420782FE0C46D00080800002095
:103D90001C010020536D61727420486F6D65000036
:103DA0003230253032642D253032642D2530326496
:103DB00000000000253032643A253032643A253064
:103DC00032640000536D61727420486F6D65204D40
:103DD000656E75004F50454E3A000000000C0140E2
:103DE000537769746368000008B1F8A200E0FBA291
:103DF000062310210020FFF713FD607808B1FBA215
:103E000000E0FEA206231C210020FFF709FD0A2383
:103E100080220A996FE3B8F1000F05DD2B994FF06E
:103E2000010020EA010004E004DA2B98E0B14FF031
:103E300000002B90A07850B1A6702B98B0B14FF035
:103E40000109FDF7A5FC824600200A2527902B9842
:103E500000EB40010F2000EB81000E99401A00B2E8
:103E6000022807DD02200AE00120E2E70020062503
:103E70002A90ECE76FF00101884200DA08460E99BB
:103E8000084400B20E90FFF741FA00210623DFA29A
:103E90000846FFF7C5FC0A237F2219460020FFF7DA
:103EA00077FA0623102100201A9AFFF7B9FC06239F
:103EB0001C2100201B9AFFF7B3FC0A2380220E99D5
:103EC0007DE0012F08D0B8F1000F08DD2A994FF0EE
:103ED000010020EA010007E04FF0050597E504DA4C
:103EE0002A98F0B14FF000002A90A07860B1A67037
:103EF0002A98C0B14FF0000025904FF0010928909A
:103F0000FDF746FC82460B252A9800EB40010F2066
:103F100000EB81000D99401A00B2022829DD022031
:103F20002CE00120E0E700222FA9BB48FEF73BF878
:103F300000222DA9B848FEF70FF89DF8BC000490A8
:103F40009DF8BD0013909DF8BE0012909DF8B7003B
:103F500011909DF8B50003909DF8B6000B900020DD
:103F600017904FF001092290FDF712FC82460925B7
:103F7000CAE76FF00101884200DA08460D9908444B
:103F800000B20D90FFF7C2F900210623A3A2084654
:103F9000FFF746FC0A237F2219460020FFF7F8F9B5
:103FA000062310210020199AFFF73AFC06231C2152
:103FB0000020149AFFF734FC0A230D998022002078
:103FC000FFF750FB062398A238210020FEE3012FC3
:103FD00018D0A07850B1A6702898B8B15FF0000052
:103FE0004FF001092890FDF7D3FB8246B8F1000F8E
:103FF0002DD02898002825980AD078B1617B01EB54
:1040000008001BE006250020289000E50120E7E7D6
:1040100010B1002025901AE00120FBE7217B01EB85
:10402000080000E0183000B20028FBDB01E018387F
:1040300000B21828FBDA207309E03C3000B20028F7
:10404000FBDB01E03C3800B23C28FBDA6073FFF791
:104050005DF9082377A200211C20FFF7E1FB122362
:104060007F2219460020FFF793F9182320221946D2
:1040700010200096FFF71CFA182320221946502022
:104080000096FFF715FA289820B1259810B9B9F1D4
:10409000000F14D0237BAFF2EC22102106A8FCF70E
:1040A000E3F8062306AA20211820FFF7B9FB289879
:1040B00028B12598012802D1B9F1000F0CD0637BFB
:1040C000AFF21832102106A8FCF7CEF8062306AA94
:1040D00020215820FFF7A4FB0823AFF2043220214F
:1040E0003420FFF79DFB062354A234211420FFF750
:1040F00097FB062353A234215620FFF791FB259806
:1041000010B1012805D0F9E116231E221921112032
:10411000F2E116231E2219215120EDE1012F18D0C2
:10412000A07848B1A6702798B0B100204FF00109DF
:104130002790FDF72DFB8246B8F1000F12D027988B
:1041400080B1A17B01EB480000B2002806DA002014
:1041500007E000202790BFE60120E7E7642800DDA4
:104160006420A073FFF7D2F80021062336A2084688
:10417000FFF756FB0A237F2219460020FFF708F9B4
:10418000062335A210210020FFF74AFB0A236422F0
:10419000202118460096FFF78BF9279810B1B9F146
:1041A000000F0FD0A07B622148436421B0FBF1F0E7
:1041B00010F0FF0206D001200090082321210B20DF
:1041C000FFF776F9A37B27A210214FE053574954FC
:1041D0004348313A204F4E200000000053574954C5
:1041E0004348313A204F4646000000005357495497
:1041F0004348323A204F4E200000000053574954A4
:104200004348323A204F4646000000005379737409
:10421000656D204D656E75001C01002054696D654B
:10422000204D656E750000004B4559313A4D656E65
:1042300075000000414C41524D000000686F7572DE
:10424000000000006D696E00416C61726D20536565
:104250007474696E670000004D5132205448524515
:1042600053480000253364252500000006A8FBF70D
:10427000FBFF062306AA30212C20FFF7D1FA27984E
:1042800040B1B9F1000F05D00E2380221E2100207D
:10429000FFF7E8F90623F8A296E6FFF737F80021C2
:1042A0000623F8A20846FFF7BBFA0A237F22194625
:1042B0000020FFF76DF8207A98B3A0790090237959
:1042C000F3A2102106A8FBF7CFFF062306AA00E001
:1042D00049E310210020FFF7A3FAE0790090637909
:1042E000EFA2102106A8FBF7BFFF062306AA1C2198
:1042F0000020FFF795FAA37AEDA2102106A8FBF79C
:10430000B3FF062306AA28210020FFF789FAE37AE3
:10431000EAA2102106A8FBF7A7FF062306AA34216C
:1043200053E6FFE70623E8A218210820FFF778FAF2
:104330000623EAA224210820FFF772FA607A0328F4
:1043400010D0607A012810D0607A4FF0060302285E
:104350000ED0E6A23021082077E20BE06FE0D1E03A
:1043600076E29BE20623E5A2F4E70623E7A2F1E763
:10437000EAA2EFE721980D2100EB400001EB80005D
:104380000F99401A00B2022808DD02200BE092E2E9
:1043900087E297E2A6E2B5E2C4E2D3E26FF0010160
:1043A000884200DA08460F99B8F1000F084400B2BD
:1043B0000F9008DD219800F10100C0B22190022881
:1043C00007D3002004E004DA219878B3401EC0B27D
:1043D0002190A07860B1A670219840B3E07B269030
:1043E00000204FF001092C90FDF7D2F982460825F4
:1043F000FEF78CFF00210623CBA20846FFF710FA38
:104400000A237F2219460020FEF7C2FF06230E2151
:1044100000201C9AFFF704FA06231A2100201D9A97
:10442000FFF7FEF9092380220F9964E000E001E024
:104430000120CDE70020189007252490D8E714220A
:10444000BC4933A8FCF799F8012F1BD0A07848B1DC
:10445000A6702C98D0B100204FF001092C90FDF7E8
:1044600097F98246B8F1000F1AD02C98C0B126985F
:10447000B8F1000F0CDD0521401CB0FBF1F201FB8F
:10448000120008E0002004252C9027E50120E3E736
:10449000A8B3401EC0B22690E073E07B00F0D8FFC6
:1044A000FEF734FF00210623A3A20846FFF7B8F960
:1044B0000A237F2219460020FEF76AFF0623A1A2E5
:1044C0000E210020FFF7ACF9269833A9062351F8F6
:1044D00020200E212A20FFF7A3F906239BA23821D2
:1044E0000020FFF79DF92C9810B1B9F1000F05D00D
:1044F000092380220D210020FFF7B4F834E3FFE701
:104500000420C7E7189800EB40010E2000EB810063
:104510000C99401A00B2022801DD022004E06FF07D
:104520000101884200DA08460C99084400B20C9058
:10453000A07880B1A67018980028E07801D030B13A
:1045400009E010B10020E07003E00120FBE72498AF
:1045500020B100202490E07810B12DE00120F9E78F
:10456000249878B1B8F1000F26D07B4818990144FF
:1045700011F8012C08EB8800104400B2002816DA6C
:10458000002017E0B8F1000F08DD189800F10100D5
:10459000C0B2189003280FD9002004E00CDA189854
:1045A00018B1401EC0B2189006E00320FBE7642853
:1045B00000DD642001F8010C6748027841788078BA
:1045C000E37813B1A07A014602468DF8CC208DF82D
:1045D000CD108DF8CE00FEF799FE002106235FA2D4
:1045E0000846FFF71DF90A237F2219460020FEF72F
:1045F000CFFE062353A20E210020FFF711F9E07829
:1046000008B159A200E05AA206230E212420FFF788
:1046100007F9249828B11898012802D1B9F1000FA0
:104620000BD0062354A21A210020FFF7F9F8249892
:1046300068B11898022807D009E0062350A21A2171
:104640000020FFF7EDF802E0B9F1000F0BD00623D0
:104650004DA226210020FFF7E3F8249850B11898C6
:10466000032808D097E0062345A226210020FFF763
:10467000D7F890E08FE08BE04B4559313A426163C7
:104680006B000000456E7669726F6E6D656E74002A
:1046900054656D703A2532642E2531644300000064
:1046A00048756D693A2532642E2531642525000050
:1046B0004C696768743A2533642525004149523AAC
:1046C000253364252500000053656E736F722072D8
:1046D000656164696E672E2E2E00000043484B20F2
:1046E0004448543131205749524500004552523A0E
:1046F00020554E4B4E4F574E000000004552523A47
:104700002054494D454F5554000000004552523A3F
:1047100020434845434B53554D0000004552523A03
:1047200020425553590000004C69676874204D655C
:104730006E750000106E000852474220436F6E7481
:10474000726F6C004D6F64653A0000004B45593143
:10475000204261636B0000001E0000204C45442095
:10476000436F6E74726F6C004175746F00000000CF
:104770004D616E75616C00004C4544313A0000009B
:1047800020202020200000004C4544323A00000048
:10479000B9F1000F46D00623F7A232210020FFF71F
:1047A0003FF800240DF1CC0704EB44011A2000EB84
:1047B000810000F0FF08395D3A2041436420B1FBDD
:1047C000F0F0C6B2002008233C2200E03DE000905B
:1047D00041462220FEF76CFE46B1012000900623E0
:1047E000324608F101012320FEF762FE0620009008
:1047F0003A5D032341466220FEF7EEFF641CE4B2FB
:10480000032CD1D3249888B1189878B1B9F1000F4E
:1048100017D00C980923401E01B21E220020FEF77B
:1048200021FF0EE00623AFF2A802B6E70C98092399
:10483000401E01B21E220020FEF714FF249800281B
:1048400005D00623CEA20E214820FEF7E9FF8BE11A
:10485000019604988DF8040013988DF805001298BD
:104860008DF80600009611988DF8030003988DF8D6
:1048700001000B988DF802009DF8B4008DF800003F
:10488000002201A9BF48FDF7C1FC00226946BD48CE
:10489000FDF75AFC062500202290F6E50120FFF7DF
:1048A000FDB81798B8F1000F06DD052801D0401CAF
:1048B00004E00020179060E010B1401EC0B2F9E79C
:1048C0000520F7E7049901EB080000E0183000B27A
:1048D0000028FBDB01E0183800B21828FBDAC0B270
:1048E00004904AE0139901EB080000E03C3000B26C
:1048F0000028FBDB01E03C3800B23C28FBDAC0B208
:1049000013903AE0129901EB080000E03C3000B24D
:104910000028FBDB01E03C3800B23C28FBDAC0B2E7
:1049200012902AE0119901EB080000E0643000B217
:104930000028FBDB01E0643800B26428FBDAC0B277
:1049400011901AE0039901EB080000E00C3000B26E
:104950000128FBDB01E00C3800B20C28FBDCC0B204
:1049600003900AE01F3000B20128FBDB01E01F3892
:1049700000B21F28FBDCC0B20B90FEF7C7FC082377
:1049800081A200211C20FEF74BFF12237F22194633
:104990000020FEF7FDFC182320221946082000966F
:1049A000FEF786FD18232022194630200096FEF7D8
:1049B0007FFD18232022194658200096FEF778FD27
:1049C0000B990398CDE90001AFF62C42102106A8FF
:1049D000119BFBF749FC062306AA00213E20FEF7A7
:1049E0001FFF17980228229853D820B1179810B9A2
:1049F000B9F1000F14D0AFF64C42102106A8049B69
:104A0000FBF732FC062306AA20211020FEF708FF40
:104A1000229828B11798012802D1B9F1000F14D0BB
:104A2000AFF67842102106A8139BFBF71DFC062366
:104A300006AA20213820FEF7F3FE229828B1179805
:104A4000022802D1B9F1000F0CD0AFF6A04210211C
:104A500006A8129BFBF708FC062306AA202160206B
:104A6000FEF7DEFE0623AFF62C0234210C20FEF703
:104A7000D7FE0623AFF6340234213820FEF7D0FEED
:104A8000062343A234216020FEF7CAFE1798E8B33C
:104A900051E028B11798032802D1B9F1000F14D0C2
:104AA000AFF6F842102106A8119BFBF7DDFB0623A9
:104AB00006AA20211020FEF7B3FE229828B11798ED
:104AC000042802D1B9F1000F14D0AFF62052102102
:104AD00006A8039BFBF7C8FB062306AA2021382063
:104AE000FEF79EFE229828B11798052802D1B9F149
:104AF000000F0ED0AFF64C52102106A80B9BFBF70F
:104B0000B3FB0623202106AA602000E016E0FEF792
:104B100087FE06231FA234210C20FEF781FE062308
:104B20001EA234213820FEF77BFE06231CA234216E
:104B30006020FEF775FE1798032805D116231E2264
:104B400019210920FEF78EFD1798012801D00428AD
:104B500005D116231E2219213120FEF783FD179857
:104B6000022804D0052802D000F01CF88DE416239A
:104B70001E2219215920BFE44C4544333A0000005D
:104B800041646A001C01002054494D4500000000AA
:104B90007365630079656172000000006D6F6E00DF
:104BA0006461790070B5084D002400212046FEF7AD
:104BB00085FD05EBC410802100F029F8641CE4B2E7
:104BC000082CF2D370BD00004C02002002464FF4C6
:104BD00080710148FCF7D7BD000C014002464FF43C
:104BE00000710148FCF7CFBD000C014010B5044630
:104BF000FEF7C8FC7820FEF7A8FC0020FEF7A5FC15
:104C00002046FEF7A2FCBDE81040FEF7CABC70B516
:104C10000D460646FEF7B6FC7820FEF796FC4020CF
:104C2000FEF793FC002404E0305DFEF78EFC641C6C
:104C3000E4B2AC42F8D3BDE87040FEF7B2BC010963
:104C400001EB810100F00F0000EB4100C0B27047A2
:104C5000002102E00A38C0B2491C0A28FAD209072A
:104C600040EA116070472DE9F04104460025C07B01
:104C7000627BA37B42E0012A16D0032A14D0052AC6
:104C800012D0072A10D0082A0ED00A2A0CD00C2ADB
:104C90000AD0042A10D0062A0ED0092A0CD00B2ADA
:104CA0000AD0022A0DD028E01F2B0CD30C2A05D1E4
:104CB00001221346401C20E01E2B04D30123521C6A
:104CC0001BE01C2B02D203F1010316E011D183B2C9
:104CD0009E0710D16426B3FBF6F706FB173636B9EC
:104CE0004FF4C876B3FBF6F706FB17331BB91D2349
:104CF00003E01D2B01D1032201236D1C8D42BAD389
:104D0000D1B2E0736173DAB2A27300F04FF820738E
:104D1000BDE8F08170B50446FCF73AFD05464FF456
:104D20007A7606E0FCF734FD401BB04201D903203F
:104D300070BD206840688006F4D52068416841F065
:104D400010014160002070BD70B5044600684168E4
:104D500021F010014160FCF71BFD05464FF47A7607
:104D600007E000BFFCF714FD401BB04201D903204F
:104D700070BD206840688006F4D5002070BD0168D1
:104D8000086A496A89B241EA00407047006881694F
:104D90008AB2C1698BB2816989B28A4203D0C06983
:104DA00061F31F40704743EA02407047F0B5642446
:104DB000C1EBC1030927A500072603EB0113032953
:104DC000B3FBF7F100F5FA60114401440AD2401E2A
:104DD000B0FBF4F201EB9001B0FBF5F0891A084446
:104DE000001D08E0B0FBF4F201EB9001B0FBF5F020
:104DF000891A0844801CB0FBF6F106FB1100C0B212
:104E0000F0BD70B50D4606460024FFF783FF48B994
:104E10003168280C08623168A8B248623046FFF752
:104E200093FF00B10124204670BD70B50D460646C3
:104E30000024FFF76FFF48B93168280C886131689A
:104E4000A8B2C8613046FFF77FFF00B101242046B9
:104E500070BD4FF47A74204600F082FBFBE710B57A
:104E6000FCF79CFC01F0F8FD012803D0BDE81040E0
:104E700001F006BB10BD30B593B028216846FBF7A2
:104E8000B6FB14210AA8FBF7B2FB002401210F9402
:104E90001194052012940090CDE9024110944FF432
:104EA0008030019002250491CDE907504FF4E010C5
:104EB00009906846FCF7B0FE08B172B6FEE70F2015
:104EC000CDE90A054FF48060CDE90C4002210AA823
:104ED0000E94FCF7CFFD08B172B6FEE703200F90E9
:104EE0004FF480701090C00111900FA8FCF74CFD9A
:104EF000002801D072B6FEE713B030BD7047000045
:104F0000F0B50268194B1A4C1A4D4FF08047984281
:104F100005D0B84203D0A04201D0A84203D122F06C
:104F200070064A683243984205D0B84203D0A04286
:104F300001D0A84203D122F44074CA6822434C69CC
:104F400022F08002224302608A68C2620A6882629A
:104F5000984201D109690163012141610169C907D1
:104F600003D0016921F001010161F0BD002C014075
:104F7000000400400008004010B501F01F030121AB
:104F8000046A99408C430462016A9A4011430162A9
:104F900010BD10B5446A0121626A824205D12177B1
:104FA0008069F8B984F83E101CE0A26A824206D1FA
:104FB000022222778069A8B984F83F1012E0E26AE1
:104FC000824206D104222277806958B984F84010C1
:104FD00008E0226B824205D108222277806908B955
:104FE00084F841102046FDF7FDFB0020207710BD1E
:104FF00010B5446A616A814201D101200DE0A16AC5
:10500000814201D1022008E0E16A814201D10420FD
:1050100003E0216B814201D1082020772046FDF773
:10502000EBFB0020207710BD10B5446A0121626AB5
:10503000824203D1217784F83E1019E0A26A8242AD
:1050400004D10220207784F83F1011E0E26A824206
:1050500004D10420207784F8401009E0226B8242BA
:1050600004D10820207784F8411001E084F83D1035
:105070002046FDF790FA0020207710BD30B5036A76
:10508000026A22F0010202624268846924F0730518
:105090000C682C4323F002058B682B430A4DA84271
:1050A0000BD123F00805CB6822F440722B434D69E5
:1050B00023F0040315438A692A43426084614968E6
:1050C0004163036230BD0000002C014030B5026A2C
:1050D000036A23F010030362436884690D6824F4B3
:1050E000E64444EA05248D6822F0200242EA0512D3
:1050F0000B4DA8420ED1CD6822F0800242EA051283
:105100004D6923F4406343EA85038D6922F0400230
:1051100043EA85034360846149688163026230BD6C
:10512000002C014030B5036A026A22F480720262E8
:105130004268C46923F4007324F073050C682C439F
:105140008D6843EA05230C4DA8420ED1CD6823F4A7
:10515000006343EA05234D6922F4405242EA0512F6
:105160008D6923F4806342EA05124260C461496894
:10517000C163036230BD0000002C014030B5046AF9
:10518000026A22F4805202624268C3690D6823F405
:10519000E64343EA05238D6824F4005444EA0534C9
:1051A000064DA84204D14D6922F4804242EA85129C
:1051B0004260C36149680164046230BD002C014053
:1051C000FEE70000F0B50020DFF894E0044601217E
:1051D000AEF5207204EB44031EF8037073445E784E
:1051E0009D78072301FA03FC1CEA070F02D04FF059
:1051F000410C01E04FF0160C22F810C05B1E401C61
:105200005BB2002BEEDA072301FA03F78C46374234
:1052100001D0412700E0162722F810705B1E401CC9
:105220005BB2002BF0DA07230CFA03F62E4201D012
:10523000412600E0162622F810605B1E401C5BB27F
:10524000002BF1DA641CA4B20A2CC3D300210B4654
:1052500022F81030491C89B2401C5029F8D3F0BD07
:10526000F8080020F0B52B24B0FBF4F6552406FB1B
:10527000040000EB40004006040E0020FF25C4F1AE
:10528000FF07052E16D2DFE806F003060A0E11000E
:105290000D70147001E00F7015701870F0BD08707B
:1052A00015701C70F0BD0870177001E00C70107064
:1052B0001D70F0BD0D7010701F70F0BD0149886049
:1052C000704700006000002001480078704700002F
:1052D000600000207FB5374C6078052804D2DFE8F5
:1052E00000F003062135460000F066F85BE0A08878
:1052F000C821B0FBF1F201FB1200642801D9C0F112
:10530000C80064210022C0B2C0EB0020B2FBF1F360
:10531000B2FBF1F5B0FBF1F0C2B2E9B2D8B200F0E5
:1053200059F840E000221146104600F053F8E0889A
:105330000A21B0FBF1F201FB1200FF231A461946C5
:1053400000F058F8E088401CE0802CE002AB01AA95
:105350006946A078FFF786FF9DF808209DF80410A5
:105360009DF8000000F036F8A078801C1AE00025B7
:10537000A17805EB850001EB4000C0B26B4601AAA5
:1053800002A9FFF76FFF9DF800309DF804209DF8FB
:105390000810284600F02EF86D1CADB20A2DE7D398
:1053A000A078C01CA070A088401CA080BDE87F40F1
:1053B00000F02EB86000002000221146104600F0D8
:1053C00009B80000024800218180C18081707047C7
:1053D00060000020F0B515460E46074600242B4617
:1053E00032463946204600F005F8641CA4B20A2C67
:1053F000F5D3F0BD10B50A2806D200EB40040348EF
:10540000025520444170837010BD0000F808002050
:1054100010B50D4CA068002814D02178002911D1B6
:105420000821FDF703FBFFF7CDFE012020704FF4AC
:10543000A073064A0821A068FDF72EFA002801D0C3
:105440000020207010BD00006000002078060020C1
:10545000052803D202494870FFF7B4BF7047000027
:10546000600000200748FFF729FF0020FFF7F0FF4A
:10547000FFF72AFF08B9FFF72DFF1E2000F070F894
:10548000F6E70000300100200907090E002804DBC0
:1054900000F1E02080F80014704700F00F0000F1E8
:1054A000E02080F8141D704730380A2801D201200E
:1054B000704700207047000010B50446FCF770FBF1
:1054C0000349B0FBF1F16143491EFDD210BD00005C
:1054D00000127A00FCF76AF9FFF7CDFCFDF7FEFC3D
:1054E000FDF764FCFDF704FEFDF770FDFDF736FEE9
:1054F000FDF734FCFDF7ACFD01211748FCF71CFD5E
:1055000043F2F224A0421FD014481A210022C17095
:1055100003214170062181700521017001460E486A
:10552000FCF712FE0D480E21C01E01701E214170B5
:10553000002181700A4601460748FCF767FE2246B3
:1055400001210548FCF700FD00F028F8FDF744FCB8
:1055500000F036F8FEE700001C01002003000020E8
:1055600010B5EFF3058111B16FF0050403E00024DD
:1055700008B100F005FE204610BD000010B501F096
:105580006BFA38B1022804D003480068012800D023
:10559000002010BD032010BDBC000020EFF30580EB
:1055A00010B16FF0050070470448016811B14FF069
:1055B000FF3070470121016000207047BC000020CF
:1055C00010B5EFF3058010B16FF0050010BD08486D
:1055D0000168012902D04FF0FF3010BD054A0021BB
:1055E00082F8141D0221016000F078FE002010BD39
:1055F000BC0000200BE000E02DE9FF414FEA010371
:105600004FF00005EFF30581039549BB40B38027B8
:10561000182100244AB3166806B1344696691EB1B3
:105620003146761E382E02D21679F60703D00020B6
:1056300004B0BDE8F081566906B1B708D2F808C0D9
:10564000BCF1000F0DD0D5685C2D18D312693AB1AA
:1056500036B18DE806103A46214601F0D2F90390A2
:105660000DE0D6685EB912694AB903AACDE9001205
:10567000BAB2214601F098F9012800D003950398A9
:10568000D6E700002DE9F041134C0F460546E668C9
:105690002068001D00F040FC681C07D137B121686C
:1056A000BDE8F0410D48091D00F086BC2068354476
:1056B000B5424560216805D2A06BBDE8F041091DE7
:1056C00000F062BC606B091D00F05EFCA06A8542C0
:1056D00000D2A562BDE8F0816C000020080E002019
:1056E0002DE9F041054600F073FC2D4CA068401CEC
:1056F000A06020682B4F10B1606930B32BE02560AB
:10570000A068012827D1002606EB860007EB800061
:1057100000F02CFC761C382EF6D3234800F026FC33
:105720002148143000F022FC1F48283000F01EFCF5
:105730001D483C3000F01AFC1B48503000F016FCAD
:10574000194860631430A06305E02068E96AC06A04
:10575000884200D82560606A401C60626864E86A1C
:105760002169884200D9206100EB800007EB8000AE
:10577000291D00F021FC00F04BFC606900280CD0D2
:105780002068E96AC06A884207D208494FF0805011
:105790000860BFF34F8FBFF36F8FBDE8F08100004B
:1057A0006C00002058090020B80D002004ED00E036
:1057B00038B500F00DFC104C2068C8B90F4800F057
:1057C000D5FB0E48143000F0D1FB0C48E0601430DB
:1057D00020610A4B0020F03B009003F150021021A1
:1057E0000A2000F084FE206010B105A100F092FCB8
:1057F000BDE8384000F00CBCA80000200C0F0020D1
:10580000546D72510000000030B4026C0B46002A47
:105810000BD0C1681144C1608468A14201D3016802
:10582000C16030BC1846FAF763BE30BC70472DE942
:10583000F041856B174604460026026C82B1C7B161
:10584000E068FAF755FEE168206C091AE160226809
:10585000914202D2A168081AE060022F16D017E028
:105860002068A8B9A06801F06FF906460020A06082
:105870000EE06068FAF73CFE216C606808446060E6
:10588000A168884204D32068606001E005B16D1E04
:105890006D1CA5633046BDE8F08110B5044690F854
:1058A000590058B101280CD002280FD0502080F3A5
:1058B0001188BFF34F8FBFF36F8FFEE7206B00F0AF
:1058C000BBFB2046BDE8104000F0B6BB10BD000099
:1058D00010484FF40051420706D0C01D0D4920F07A
:1058E0000700411AC1F500510B4A00230144C2E9E7
:1058F00000030839183A21F0070111604B600B6072
:105900000B1AC0E9001393604FF0004053605061E0
:1059100070470000EC150020D8000020144E154CF4
:10592000A6F29C474FF08058DFF84C9012E000BF81
:1059300000F04EFBF068C568281D00F0EDFAA06885
:10594000401EA0606068401E606000F061FB284659
:10595000FFF7A3FF60680028EAD138680128F9D969
:10596000C9F80080BFF34F8FBFF36F8FF2E70000DD
:10597000F40D00206C00002004ED00E070B51D4621
:10598000049C51B1C4F80020C4E90F010121204654
:1059900000F0E0FD84F84C5070BD2460F4E7000096
:1059A0002DE9F05F8846DDE90B94154683469100AA
:1059B0009A460A9EA522206BFAF711FE6FF00301AA
:1059C000206B01EB8501084420F00707780707D01A
:1059D000502080F31188BFF34F8FBFF36F8FFEE726
:1059E0000025B8F1000F0FD05FF00000221818F862
:1059F000001082F8341018F8001011B1401C102863
:105A0000F4D384F8435001E084F83450382E00D3A6
:105A10003726E662C4E91365201D00F0B2FA04F1EE
:105A2000180000F0AEFA2461C6F138006462A0618B
:105A3000656584F8585052465946384600F05AFA7F
:105A40002060B9F1000F01D0C9F80040BDE8F09F17
:105A500030B5114900E011460A688242FBD34B6819
:105A60005C18844203D14068184448600846436883
:105A70001C18944209D1084C183C2468A24209D051
:105A800052681A4442600A6812680260814200D07B
:105A9000086030BD0460F9E7D800002070B500242C
:105AA00041600B4D0061914206D8D11A8269914242
:105AB00006D2011D286907E09A4203D2994201D318
:105AC000012403E0011DE86800F05EFA204670BD85
:105AD000A800002010B5044600F07AFAA06B28B1A7
