:020000040800F2
:10000000F038002029020008072A0008D922000839
:10001000052A000871090008C1420008000000001C
:100020000000000000000000000000009101000836
:100030003B0B000800000000D50100084740000805
:10004000430200084302000843020008430200087C
:10005000430200084302000843020008430200086C
:10006000430200084302000843020008430200085C
:10007000430200084302000843020008430200084C
:10008000430200084302000843020008430200083C
:10009000430200084302000843020008430200082C
:1000A000430200084302000843020008430200081C
:1000B000430200084302000843020008430200080C
:1000C00043020008430200084302000843020008FC
:1000D00043020008430200084302000843020008EC
:1000E00043020008430200084302000800F002F83F
:1000F00000F03FF80AA090E8000C82448344AAF183
:100100000107DA4501D100F034F8AFF2090EBAE880
:100110000F0013F0010F18BFFB1A43F0010318473B
:10012000E466000004670000103A24BF78C878C174
:10013000FAD8520724BF30C830C144BF04680C60ED
:10014000704700000023002400250026103A28BF35
:1001500078C1FBD8520728BF30C148BF0B60704739
:10016000642900F0C580002070471FB51FBD10B581
:1001700010BD00F04BFB1146FFF7F7FF04F0C6F887
:1001800000F069FB03B4FFF7F2FF03BC00F06CFB67
:10019000224B19680868B0E8F00F80F30988BFF3B4
:1001A0006F8F4FF0000080F311884EF00D0E7047F6
:1001B0000000000006480068006880F3088862B606
:1001C00061B6BFF34F8FBFF36F8F00DF00BF00BF7B
:1001D00008ED00E0EFF30980BFF36F8F0F4B1A6853
:1001E00020E9F00F106008B54FF0500080F311883F
:1001F000BFF34F8FBFF36F8F04F0D4FF4FF00000B9
:1002000080F31188BDE8084019680868B0E8F00F6D
:1002100080F30988BFF36F8F704700BF5000002044
:10022000EFF3058070470000094880470948004700
:10023000FEE7FEE7FEE7FEE7FEE7FEE7FEE7FEE796
:10024000FEE7FEE704480549054A064B70470000F3
:10025000E5400008ED000008F0320020F0380020F2
:10026000F0340020F03400200FB47CB50C0009AA53
:10027000009001D02044401E084B7B446946019009
:10028000089800F04AFA05461CB10020694600F0C3
:1002900057FA28467CBC5DF814FB0000CD04000032
:1002A00070B5044685690068C10601D5302600E0B6
:1002B0002026C00707D070BDD4E901213046904701
:1002C000206A401C20626D1EF6D570BD70B50446D4
:1002D00085690078C00707D170BDD4E901212020CD
:1002E0009047206A401C20626D1EF6D570BD00004C
:1002F0002DE9F0410646002410687529314616A5FF
:1003000010D0AFF30080002802DA404213A507E0C6
:1003100031688A0701D512A502E0490704D511A565
:10032000012401E0AFF3008000210A2206F1240736
:1003300009E0B0FBF2FCB0FBF2F302FB1C00303032
:1003400078541846491C0028F3D123462A463046E3
:10035000BDE8F04100F083B9000000002D0000006E
:100360002B000000200000002DE9F05F89460446C4
:100370004FF0000ADFF874B1FB44C0F820A020461B
:10038000E1688847002874D0252806D0D4E90121E7
:100390009047206A401C2062F1E700265F46204615
:1003A000E16888472028054607DB312D05D27819FA
:1003B00010F8200C08B10643F1E7B00701D526F08C
:1003C0000406C4F81CA00027C4F818A02A2D09D0E0
:1003D000284603F086FF38B304EB8708303DC8F8A1
:1003E000185019E059F8041B204604EB870291616C
:1003F000E1688847012F054618D1E069002820DA16
:1004000026F020061DE0D8F8180000EB800005EB70
:1004100040003038C8F818002046E1688847054693
:1004200003F05FFF0028EED1012F0AD02E2D08D156
:100430002046E16888477F1C0546022F46F02006CB
:10044000C4DBA069002803DA404246F00106A0613F
:10045000F00701D026F010066C2D0BD0682D09D0C6
:100460004C2D39D06A2D35D0742D35D07A2D33D01E
:1004700016E038E0E1682F4620468847B842054636
:1004800009D16C2F26D04FF48060E16806432046E6
:100490008847054604E06C2F1AD04FF4807006435D
:1004A0000DB3A5F14100192802D8203546F40066A5
:1004B0004A462946204626604E46FFF751FE80B147
:1004C00001280BD0F61D26F0070000F1080956E7B9
:1004D0004020E4E78020D8E70020D6E706F10409B1
:1004E0004DE7284652E7206ABDE8F09F27640000E8
:1004F000032A40F2308010F0030C00F0158011F850
:10050000013BBCF1020F624498BF11F801CB00F827
:10051000013B38BF11F8013BA2F1040298BF00F87B
:1005200001CB38BF00F8013B11F0030300F0158147
:10053000083AC0F0088051F8043B083A51F804CB5F
:10054000A0E80810F5E7121D5CBF51F8043B40F825
:10055000043BAFF30080D20724BF11F8013B11F830
:1005600001CB48BF11F8012B24BF00F8013B00F874
:1005700001CB48BF00F8012B704702F0FF0343EAAC
:10058000032242EA024200F01CB94FF0000200B51B
:10059000134694469646203922BFA0E80C50A0E8A6
:1005A0000C50B1F12001BFF4F7AF090728BFA0E854
:1005B0000C5048BF0CC05DF804EB890028BF40F820
:1005C000042B08BF704748BF20F8022B11F0804F62
:1005D00018BF00F8012B70474FF0013C50F8042B76
:1005E00051F8043B9A4221D1A2EB0C03934313EA46
:1005F000CC1317D150F8042B51F8043B9A4215D173
:10060000A2EB0C03934313EACC130BD150F8042B49
:1006100051F8043B9A4209D1A2EB0C03934313EA2D
:10062000CC13DBD04FF00000704700BFD01A01BAE6
:10063000B1FA81F101F0180122FA01F0CB40C1F1C9
:100640002001DBB2C0B2C01A2CFA01F3D11A9143D7
:1006500011EAC311E6D170477047704770472DE922
:10066000F0470D4699469246044600F12408016879
:10067000880604D5E06921F01001216000E0012026
:10068000A84201DD471B00E00027A1697A1902EBAF
:100690000900081AA0612078C00602D42046FFF79E
:1006A000FFFD002608E0D4E901211AF80600904772
:1006B000206A401C761C20624E45F4DB2078C00680
:1006C0000AD52046FFF7ECFD06E0D4E901213020F1
:1006D0009047206A401C2062381EA7F10107F4DC15
:1006E00007E0D4E9012118F805009047206A401C72
:1006F0002062281EA5F10105F3DC2046FFF7E6FD88
:100700002078000602D50220BDE8F0870120FBE733
:1007100001694A1C02610878704700B58FB0CDE9C5
:1007200001310021059105497944CDE903101146B5
:100730006846FFF719FE0FB000BD0000E5FFFFFFA0
:100740000A6802F8010B0A607047D1E900239A4257
:1007500002D2531C0B601070704710B5203AC0F0E5
:100760000B80B1E81850203AA0E81850B1E81850B2
:10077000A0E81850BFF4F5AF5FEA027C24BFB1E8EF
:100780001850A0E8185044BF18C918C0BDE8104060
:100790005FEA827C24BF51F8043B40F8043B08BF69
:1007A0007047D20728BF31F8023B48BF11F8012B30
:1007B00028BF20F8023B48BF00F8012B70474FF0DC
:1007C00000020429C0F0128010F0030C3FF4DFAEE9
:1007D000CCF1040CBCF1020F18BF00F8012BA8BF2C
:1007E00020F8022BA1EB0C01FFF7D1BE5FEAC17C20
:1007F00024BF00F8012B00F8012B48BF00F8012BA3
:1008000070470000004870478C3200207546FFF7A3
:10081000F9FFAE4605006946534620F007008546BD
:1008200018B020B5FFF70EFDBDE820404FF00006E0
:100830004FF000074FF000084FF0000B21F00701C8
:10084000AC46ACE8C009ACE8C009ACE8C009ACE80B
:10085000C0098D46704710B50446AFF300802046AE
:10086000BDE81040FFF78EBC01491820ABBEFEE783
:10087000260002007047000070B5044600688168D9
:10088000C943C90717D1816821F00101816000F0D7
:1008900021FD05460AE000BF00F01CFD401B0228B8
:1008A00004D920688068C043C00706D020688068EB
:1008B000C043C007F0D0002070BDA06A40F0100017
:1008C000A062E06A40F00100E062012070BD00001B
:1008D000F8B500260446009600688168C943C90738
:1008E0002DD0816841F001018160164816490068E9
:1008F000B0FBF1F000E0401E00900028FBD100F0BA
:10090000E9FC054616E000BF00F0E4FC401B0228AD
:1009100010D920688068C043C0070BD0A06A40F09F
:100920001000A062E06A40F00100E06284F82460F8
:100930000120F8BD20688068C043C007E4D10020D2
:10094000F8BD00004400002040420F00AFF30080DB
:1009500001229103014800F0B8BC0000000C0140E6
:100960004FF48041014800F0A8BC0000000C014099
:10097000FEE700F001B800001FB5002001900390D1
:100980004FF400500090012002906946014800F0A9
:100990009FFB1FBD000C01402DE9F04186B0060011
:1009A0004FF00000009001906CD000F093FC3E4F9F
:1009B0003968401AB0F57A7F03D2022006B0BDE84C
:1009C000F0814FF400581120CDE9028001200490FD
:1009D0000320364D0590444602A9284600F078FBD6
:1009E00000222146284600F070FC03F0DFFC0228BC
:1009F0004FF0140016D000F059FB00BFEFF3108445
:100A000072B601224146284600F05FFC1E2003F02A
:100A10006FFCFFF7B1FFC821002000F07DF838B16E
:100A20001CB103E003F0B4FCE8E762B60320C5E7BD
:100A3000C821012000F070F80028F1D1C82100F091
:100A40006BF80028ECD100254FEA0D0808EB0500F3
:100A500000F02EF80028E3D16D1CEDB2052DF5D382
:100A600004B962B69DF800009DF801109DF80220BF
:100A70009DF8033001441A4411449DF80420C9B282
:100A80008A4201D0012099E730709DF80100707012
:100A90009DF80200B0709DF80300F07000F01AFCA1
:100AA000386000208AE700004C000020000C014064
:100AB0002DE9F0410024064625467821002000F06B
:100AC0002BF888B97821012000F026F860B923209E
:100AD00003F00EFC00F018F8012808D00027782158
:100AE000002000F019F820B10320BDE8F0810127B3
:100AF000F5E760066D1CEDB247EA1064082DDCD303
:100B000034700020F1E700004FF40051014800F07C
:100B1000CFBB0000000C014070B50C46054608E054
:100B2000FFF7F2FFA84201D1002070BD012003F0C1
:100B3000DFFB641EF4D2032070BD7047002508B5AA
:100B40002E462F46FFF715FFFFF700FF4FF4966084
:100B500003F01EFC294C40F6FF784FF47A7900BF71
:100B600001F0A4FCE081E18905EB4500084485081B
:100B700064206843B0FBF8F0C0F16400A07201F09B
:100B8000B5FCE072E07A32280BD900F0A3FBC01B61
:100B9000B0F5FA7F07D300F09DFB0746FFF7E0FEB4
:100BA00001E0FFF7D5FE00F095FB801B484509D317
:100BB00000F090FB06466846FFF7EEFE607228B133
:100BC00000202072642003F0E3FBC9E79DF80200D7
:100BD00020719DF8000060719DF803100A20B1FBA0
:100BE000F0F200FB1211A1719DF80110B1FBF0F2BF
:100BF00000FB1210E0710120E3E700000800002074
:100C000072B6FEE7F8B50024009490F8242025463B
:100C1000012A12D0012280F824204A681F23072AC3
:100C20000DD20668776B521E02EB820293409F43FF
:100C30000B6893401F43776319E00220F8BD0668F4
:100C40000D2A0AD2376BD21F02EB820293409F43D8
:100C50000B6893401F43376309E0F76A0D3A02EBD4
:100C6000820293409F430B6893401F43F7620A68D8
:100C7000072306680A2A0AD3F7680A3A02EB4202F7
:100C800093409F438B6893401F43F76008E03769A8
:100C900002EB420293409F438B6893401F433761AE
:100CA0000A68102A01D0112A20D1124B02689A42F8
:100CB00017D193681B0219D4936843F4000393601F
:100CC0000968102912D10C490C4A0968B1FBF2F1EC
:100CD00001EB8101490000E0491E00910029FBD190
:100CE00004E0816A41F020018162012480F82450EF
:100CF0002046F8BD002401404400002040420F007F
:100D00000068C06C704700002DE9F0414FF000070B
:100D100004003D467ED0A06A002628B9E66284F829
:100D20002460204600F07EF82046FFF7A5FDA16A6A
:100D3000C90600D420B1A06A40F01000A06269E0AA
:100D4000A16A21F4885141F00201A1626268E1695F
:100D5000237B0A4347EA43010A43A1684FF48077A3
:100D6000B94209D0012907D05FF0000194F814C0FE
:100D7000BCF1010F02D00AE03946F7E7F3B1A36AEC
:100D800043F02003A362E36A43F00103E3622368B4
:100D9000D3F804C02CF4694C4CEA010CC3F804C02D
:100DA00021688B68DFF870C003EA0C0313438B6083
:100DB000A168B9420BD0012909D00CE0DFF85CC072
:100DC000A3690CEB43330B4343F40061DFE7218A53
:100DD0000D05A5F580152168CB6A23F470032B431C
:100DE000CB62216889680E4B1940914208D1E662B6
:100DF000A16A21F0020141F00101A162BDE8F08188
:100E0000A06A20F0020040F01000A062E06A40F00A
:100E10000100E0620120F1E7FDF7E1FF00E0FFFFE4
:100E2000FE0E1FFF00B585B00021009101910291D7
:100E3000039100680E49884218D10E48816941F437
:100E400000718161816901F400710491816941F04F
:100E5000040181618069694600F00400049030203B
:100E6000009003200190044800F032F905B000BD65
:100E70000024014000100240000801402DE9F84321
:100E800000270D460446009700F024FA80462068AB
:100E90008168C90508D5A06A40F02000A06284F8E6
:100EA00024700120BDE8F8834168C90503D4C06AF5
:100EB00010F4700F2AD0022000F0A8FA3B4909680C
:100EC000B1FBF0F62068036939490B424FEA610132
:100ED0004FEAA1121FD1C3684FEA611C13EA0C0F3D
:100EE00019D103690B4225D1C068104222D11420C8
:100EF00023E0681C0AD02DB100F0ECF9A0EB08004B
:100F0000A84203D920680068800725D520680068BA
:100F10008007EED52DE003690B4202D1C168114272
:100F200006D0026923490A4206D1C068084203D1AB
:100F3000542002E0292000E0FC204643009816E0FF
:100F4000681C11D02DB100F0C5F9A0EB0800A84233
:100F50000AD90098B04207D2A06A40F00400A0620B
:100F600084F8247003209DE70098401C0090B04254
:100F7000E6D321686FF012000860A06A40F40070A8
:100F8000A06220688068C0F3424007280CD1207B13
:100F900050B9A06A20F48070A062A06AC00403D493
:100FA000A06A40F00100A06200207BE7440000201E
:100FB000244992244992240070B5044690F82400F4
:100FC00001280DD0012084F824002046FFF780FC82
:100FD00002004FF0000005D084F82400104670BDD8
:100FE000022070BDA16A40F20123994341F480714F
:100FF000A1621F4D23681F49AB4218D10E6816F439
:10100000702F14D0A66A46F48016A6620E68760584
:1010100005D5A66A26F4005646F48056A662A66A4E
:10102000F6040AD5E66A26F00606E66206E0A66A37
:1010300026F48016A6625E68E9E7E06284F8240080
:101040006FF00200186020688368C3F34243072BE7
:1010500005D1A84208D1096811F4702F04D0816825
:1010600041F480118160B9E7816841F4A001F9E79A
:10107000002801400424014010B5044690F82400E3
:10108000012807D0012084F824002046FFF7F4FB54
:1010900010B107E0022010BDA16A21F4885141F08F
:1010A0000101A162002184F8241010BD70B504462E
:1010B00000F010F90546601C02D004480078044492
:1010C00000F008F9401BA042FAD370BD38000020A0
:1010D0002DE9F84FDFF8B8910024A9F1040B23465D
:1010E0000F2709F1040AABF1040EC9E00125A54060
:1010F0002A40AA427DD1674ED1F804C0ACEB060865
:10110000B44532D014DCBCF1030F3AD009DCBCF199
:10111000000F2AD0BCF1010F1CD0BCF1020F31D15D
:101120001DE0BCF1110F17D0BCF1120F2AD119E04C
:10113000B8F5881F19D006DCB8F5803F15D0B8F592
:10114000801F1FD111E0B8F5001F0ED0B8F5041FA5
:1011500018D10AE0CB6815E0CB681B1D12E0CB6804
:1011600008330FE0CB680C330CE08B682BB1012BFC
:101170004FF0080303D0456104E0042302E0056159
:1011800000E00023FF2A01D8064601E000F1040632
:101190004FEA840501D9A5F12005D6F8008007FAA9
:1011A00005FC28EA0C0803FA05F548EA0508C6F824
:1011B00000804D68ED0062D5374DAE6946F00106FE
:1011C000AE61AD6924F0030605F001050095334DCD
:1011D00006EB050CDCF80850A607360F07FA06F8F0
:1011E00025EA0805DFF8B880404503D14FF0000834
:1011F00017E044E0DFF8AC80404502D14FF0010831
:101200000FE0DFF8A480404502D14FF0020808E06B
:10121000DFF89880404502D14FF0030801E04FF01D
:10122000040808FA06F848EA0508CCF808804D6872
:10123000D9F80060ED024D4601D5164300E0964313
:101240002E604D68DAF80060AD02554601D51643B0
:1012500000E096432E604D68DBF80060AD035D460C
:1012600001D5164300E096432E604D68DEF800601D
:10127000ED03754601D5164300E096432E60641CCD
:101280000D682A46E5407FF431AFBDE8F88F0000D5
:10129000080401400000111000100240000001404D
:1012A00000080140000C0140001001400014014002
:1012B0008068084000D001207047C26821EA02031C
:1012C0000A4043EA0241016170470AB10161704777
:1012D0000904FBE7014880687047000038000020DF
:1012E000024881680278114481607047380000200C
:1012F000074810B5016841F010010160032000F0BB
:101300006DF80F2000F006F800F024F8002010BD62
:101310000020024070B50D4D04464FF47A712878D4
:10132000B1FBF0F00A490968B1FBF0F000F075FD7F
:1013300048B9102C07D200222146501E00F02EF88A
:1013400000206C6070BD012070BD000038000020DE
:10135000440000200F4808B5816941F00101816116
:10136000816901F001010091C16941F08051C161C1
:10137000C069002200F0805000900F21901E00F004
:101380000DF80548416821F0E06141F000714160CD
:1013900008BD00000010024000000140F0B40E4BF8
:1013A0001B680C46C3F30223C3F10705042D00D9C3
:1013B0000425191D072901D2002300E0DB1E0126A8
:1013C00006FA05F1491E214099409E40761E1640BE
:1013D0003143F0BC02F075BF0CED00E0064900F0AF
:1013E000070208684FF6FF03184040EA0220034A4C
:1013F00010430860704700000CED00E00000FA05A3
:10140000014901200862704700000E4210B50146F4
:101410000020234C012922D0022939D010291DD1C6
:1014200061682268D20119D51E48C1F38342C903FD
:10143000805C0AD561681B4AC1F34041921E515C31
:10144000194AB2FBF1F1484301E018494843616889
:10145000490203D440000321B0FBF1F010BD226A21
:10146000C2F30121012903D1920701D5C80310BDA0
:10147000022905D1626A920702D549F6404010BDA3
:101480000329FCD121688903F9D54FF2244010BD0E
:1014900000F020F96168C1F38131491C4900DBE7A4
:1014A00000100240485C000800127A0000093D006C
:1014B0002DE9F84305460078354CC00754D0E06963
:1014C0000026C00008D4E06940F08050E061E06987
:1014D000012600F0805000902E480168C90512D402
:1014E0000168804641F480710160FFF7F3FE074612
:1014F00005E000BFFFF7EEFEC01B642823D8D8F834
:101500000000C005F6D5206A10F4407021D0A988EB
:1015100001F4407181421CD0206A1F49012220F44D
:1015200040700A6000220A602062C00711D0FFF7F5
:10153000D1FE074641F2883808E000BFFFF7CAFE37
:10154000C11B414502D90320BDE8F883206A80070A
:10155000F4D5206A696820F44070084320621EB107
:10156000E06920F08050E0612878800705D5606848
:10157000A96820F44040084360602878C00605D57B
:101580006068E96820F48000084360600020DBE7C1
:101590000010024000700040400442422DE9F04734
:1015A0000F46050061D0434E306800F00700B84296
:1015B00009D2306820F0070038433060306800F00E
:1015C0000700B84251D128683B4C810712D540072B
:1015D00003D5606840F4E06060602878000703D5B8
:1015E000606840F4605060606068A96820F0F000B6
:1015F000084360602878C00728D06868012810D0A8
:101600002168022810D0890700292EDA616821F0AC
:10161000030101436160FFF75DFE804641F28839B6
:101620000DE021688903EFE78901EDE7FFF752FE3E
:10163000A0EB0801494502D90320BDE8F0876068A6
:10164000696800F00C00B0EB810FEFD1306800F05A
:101650000700B8420BD9306820F0070038433060EB
:10166000306800F00700B84201D00120E5E7287893
:10167000400705D56068E96820F4E06008436060D1
:101680002878000706D56068296920F4605040EA90
:10169000C100606000F02EF86168084AC1F30311D0
:1016A000515CC8400649086006480068FFF732FEF2
:1016B0000020C2E70020024000100240585C0008F1
:1016C000440000203C0000200148006870470000F2
:1016D000440000200448054900684968044AC1F3F1
:1016E000C221515CC84070474400002000100240F5
:1016F000685C00080E4A51680E4801F00C03042B88
:1017000011D0082B0FD10C48C1F38343C903C05C2F
:101710000AD55168084AC1F34041921E515C054AFE
:101720005043B0FBF1F07047044948437047000054
:101730000010024000127A00365C000800093D00EB
:101740002DE9F84F040070D02078C04DC00749D073
:101750006868C0F38100012807D06868C0F3810081
:10176000022809D16868C00306D52868800339D5E6
:1017700060680028E7D035E06068B0F5803F0BD0A6
:1017800010B1B0F5A02F11D0286820F48030286067
:10179000286820F4802002E0286840F48030286027
:1017A000606890B1FFF796FD06460AE0286840F4AD
:1017B00080202860F0E700BFFFF78CFD801B6428C5
:1017C00073D828688003F7D50CE0FFF783FD064641
:1017D00005E000BFFFF77EFD801B6428F0D8286875
:1017E0008003F7D420789A4E80074FF001094FF01C
:1017F000000839D5686810F00C0F07D06868C0F38E
:101800008100022809D16868C00306D428688007CF
:1018100014D52069012808D110E02069B0B1C6F8BC
:101820000090FFF757FD074605E00AE1FFF752FD7C
:10183000C01B0228C4D828688007F7D528686169CA
:1018400020F0F80040EAC10028600DE0C6F80080F2
:10185000FFF740FD074604E0FFF73CFDC01B0228F0
:1018600023D828688007F7D4207800072CD579483A
:10187000A169D9B1C0F80090FFF72CFD074604E03C
:10188000FFF728FDC01B02280FD8686A8007F7D52C
:1018900071484FF4FA510068B0FBF1F0009000BFBE
:1018A0000098411E0091FAD20EE080E0C0F800805E
:1018B000FFF710FD074604E0FFF70CFDC01B0228F0
:1018C00075D8686A8007F7D42078400760D5E86942
:1018D0000027C00008D4E86940F08050E861E8695A
:1018E000012700F0805000905C480168C90513D4BE
:1018F0000168834641F480710160FFF7EBFC82468A
:1019000006E000BFFFF7E6FCA0EB0A0064284ED813
:10191000DBF80000C005F5D5E06801280AD008B161
:10192000052813D0286A20F001002862286A20F0D8
:10193000040002E0286A40F001002862E06841F2F9
:10194000883B98B1FFF7C6FC82460BE0286A40F05E
:1019500004002862EEE700BFFFF7BCFCA0EB0A0121
:1019600059455AD8286A8007F6D50CE0FFF7B2FC33
:10197000824605E0FFF7AEFCA0EB0A0159454CD8C2
:10198000286A8007F6D41FB1E86920F08050E8612A
:10199000E06988B36968C1F38101022944D0022853
:1019A000C6F8608004D0FFF795FC044638E034E0C8
:1019B000FFF790FC074604E0FFF78CFCC01B0228F1
:1019C0002BD828688001F7D4206AB0F5803F05D174
:1019D0006868A16820F4003008436860D4E9080111
:1019E0000843696821F4741108436860C6F8609080
:1019F000FFF770FC044606E025E000BFFFF76AFC35
:101A0000001B022809D828688001F7D51BE000BF19
:101A1000FFF760FC001B022802D90320BDE8F88F05
:101A200028688001F4D40EE00128F7D06868226AA3
:101A300000F48031914204D1616A00F47010884250
:101A400001D00120EAE70020E8E700000010024092
:101A500000004242800442424400002000700040E6
:101A6000024850F8210080B270470000006C00402E
:101A7000024800EB810091B201607047006C0040A9
:101A8000F8B505004FF0000016460C46009006D051
:101A90002CB100226946284600F019F808B101204F
:101AA000F8BD287B2070E87BE070697B6170A97BC2
:101AB000A17056B102F0C0F9E070607802F0BCF994
:101AC0006070A07802F0B8F9A0700020F8BD2DE990
:101AD000F04791460C465FEA00084AD084B3D8F834
:101AE00000004068400744D4404602F043FA4FF4F7
:101AF00061620546B0FBF2F1B0FBF2F302FB13505A
:101B00003C23B0FBF3F0B5FBF2F6607002FB16501D
:101B1000B0FBF3F203FB1200A070182931D3182098
:101B2000B1FBF0F7B1FBF0F200FB12102070404661
:101B300002F019FA411C04D0A84202D9461B02E067
:101B400017E04FF0FF36A7EB071000EB4000C0EBAB
:101B5000001005EBC0152946404602F05AFA40B97C
:101B6000701C01D0711900E03146404602F03DFA88
:101B700010B10120BDE8F0873946404602F067F910
:101B800000E02170B9F1000F0BD0207802F054F979
:101B90002070607802F050F96070A07802F04CF983
:101BA000A0700020E6E7000070B5040003D0607C60
:101BB000002610B105E0012070BD2674204600F01B
:101BC0003DF802206074204600F00AF9042550BB5D
:101BD000204602F093F930BB2068416821F00701EC
:101BE0004160A06820B11448016821F00101016042
:101BF0001148001F0168A26821F46071114301605F
:101C00006068411C04D10120FFF700FC58B1401E60
:101C10002268C0F303419160216880B2C860204609
:101C200002F086F908B16574C5E7E67301206073B8
:101C3000A0736074002070BD306C004008B500686F
:101C4000084988420DD1FFF7DBFB0748C16941F025
:101C50000061C161C069054900F000600090012089
:101C6000086008BD00280040001002403C044242C9
:101C70002DE9F0410D4604003BD0C5B3207C01287E
:101C80003AD04FF0010884F8108002206074E878A0
:101C900072B302F0C8F8E073687802F0C4F86073B9
:101CA000A87802F0C0F8A073C2B2617BE07B02F0BA
:101CB00071F920732870204602F05CF94FF46161DD
:101CC000B0FBF1F1002518292DD91822B1FBF2F152
:101CD000A1EB011101EB4101C1EB011100EBC116B8
:101CE0003146204602F095F90427C8B90BE000E020
:101CF00004E00120BDE8F0810220FBE7E073687892
:101D00006073A878CFE7204602F02DF9411C0AD075
:101D1000B04208D206490144204602F066F910B1EB
:101D200067742574E5E784F8118025740020E1E7E5
:101D3000805101002DE9F0410D46040024D01DB36F
:101D4000207C012823D04FF0010884F81080022065
:101D500060742878EAB102F066F84FF4616100FB24
:101D600001F6687802F05FF8C0EB001006EB800621
:101D7000A87802F058F835182946204602F049F9AB
:101D80000026042710BB0FE00120BDE8F0810220EF
:101D9000FBE74FF4616148436978C1EB011100EB47
:101DA0008100A9784518E7E72068416821F005011E
:101DB0004160204602F0D7F8411C0AD0A84208D260
:101DC00006490144204602F010F910B167742674E8
:101DD000DAE784F8118026740020D6E780510100EC
:101DE00070B504000AD02068416821F00801416004
:101DF000FFF770FA05464FF47A7608E0012070BDCF
:101E0000FFF768FA401BB04201D9032070BD20687B
:101E100040680007F4D5002070BD10B5401EB0F139
:101E2000807F01D3012010BD4FF0E02460610F21BD
:101E3000601702F046FA0020A06107202061002010
:101E400010BD000070B590F83C20012A26D0012476
:101E500080F83C40022280F83D2003685A689D6863
:101E600022F070060A6832435A600D4B02689A42AB
:101E700008D0B2F1804F05D00A4B9A4202D00A4BEB
:101E80009A4204D1496825F080031943916080F893
:101E90003D40002180F83C10084670BD022070BD16
:101EA000002C014000040040000800402DE9F041F2
:101EB0000D46040003D094F83D0018B108E001205D
:101EC000BDE8F081002084F83C00204600F040F896
:101ED000022084F83D002068816844F207029143A3
:101EE0008160211D206802F0FFF8226890689169E6
:101EF000166A2B68AF69034340F20330814341EA1D
:101F00000721A868EF6908434FF6FC418843E96858
:101F100040EA0720014328692F6A000140EA0730A0
:101F2000084369686D6926F0220646EA05152943CB
:101F300093602268906154F8460B0162012004F816
:101F40001F09E0752076E0762077A0750020B7E7BE
:101F500010B586B0002400940194029403940068A4
:101F6000B0F1804F30D11948C16941F00101C16120
:101F7000C16901F001010491816941F004018161AD
:101F8000816901F004010491816941F008018161D6
:101F90008069694600F0080004904FF4004000900A
:101FA0000B48FFF795F80820CDE900046946094879
:101FB0000294FFF78DF80849486820F4407040F01B
:101FC000E06040F48070486006B010BD0010024030
:101FD00000080140000C01400000014070B590F87D
:101FE0003E60044690F83F5090F8423090F843200D
:101FF000022021B104290ED0012E1BD114E0012EA4
:1020000018D1012B16D184F83E0084F84200012239
:102010000021206820E0012D0CD1012A0AD184F88A
:102020003F0084F8430014E0012D03D1012B01D1BE
:10203000012A01D0012070BD84F83E0084F83F00E1
:1020400084F8420084F8430001220021206802F055
:1020500087F801220421206802F082F820680168D4
:1020600041F001010160002070BD000010B586B094
:102070000021009101910291039100681649884264
:1020800028D11648416821F4406141F0E061416087
:102090001348816941F004018161816901F0040103
:1020A0000491816941F0080181618069022400F096
:1020B00008000490C020CDE9000469460948039453
:1020C000FFF706F80320CDE90004694606480394AB
:1020D000FEF7FEFF06B010BD000400400000014006
:1020E0000010024000080140000C014070B5044699
:1020F00090F83C0000260D4601280FD0012084F8FE
:102100003C006AB1042A1DD0082A2FD00C2A3FD0E7
:102110000126002084F83C00304670BD022070BDCE
:10212000206802F02BF82068816941F00801816184
:102130002068816921F004018161206881692A6930
:10214000114311E0206802F041F82068816941F4F0
:10215000006181612068816921F48061816120686A
:1021600081692A6941EA02218161D2E7206802F08F
:1021700059F82068C16941F00801C1612068C1694E
:1021800021F00401C1612068C1692A69114311E08D
:10219000206802F073F82068C16941F40061C161F0
:1021A0002068C16921F48061C1612068C1692A6920
:1021B00041EA0221C161ACE710B5040003D094F8F4
:1021C0003D0010B107E0012010BD002084F83C0064
:1021D000204600F01FF8022084F83D00211D2068F1
:1021E00001F082FF012084F8460084F83E0084F864
:1021F0003F0084F8400084F8410084F8420084F8ED
:10220000430084F8440084F8450084F83D00002031
:1022100010BD000008B500680649884208D106488C
:10222000C16941F00201C161C06900F00200009083
:1022300008BD0000000400400010024010B5044634
:10224000022249B104290ED0082913D094F8410084
:10225000012816D0012010BD94F83E000128F9D1C4
:1022600084F83E200FE094F83F000128F2D184F872
:102270003F2008E094F840000128EBD184F840208A
:1022800001E084F841200122206801F069FF0F4934
:102290002068884203D1426C42F4004242642068C4
:1022A000884208D0B0F1804F05D00949884202D059
:1022B0000849884204D1816801F00701062903D04A
:1022C000016841F001010160002010BD002C0140B7
:1022D0000004004000080040FEE7000010B50F4C6D
:1022E00001212046FEF7E4FF80B102212046FEF7DF
:1022F000DFFF68B104212046FEF7DAFF50B1082164
:102300002046FEF7D5FF38B1002010BD012010BDDA
:10231000022010BD032010BD042010BD00080140A4
:1023200008B500248DF800402546174E00F016FB36
:1023300000F0ECFA002806D002DD4FF0010001E0C9
:102340004FF0FF30B08100F0D9FA08B10120B07031
:10235000FEF7C0FF401B142811D3FEF7BBFF054654
:102360008DF80040FFF7BAFF040008D19DF8000087
:1023700028B100231A466946B06903F047F80220E5
:1023800002F006F8D2E70000080000200B4800F039
:1023900019F808B900F026F8094D05F11204E8789B
:1023A00018B1A87A0246014602E0A2786178207846
:1023B00000F032F81E2001F0EBFFF0E75C01002096
:1023C0000800002000B540B1054900220860114610
:1023D000104600F021F8002000BD012000BD0000E3
:1023E0004800002010B50B4C206880B10421FFF795
:1023F00025FF00280CD108212068FFF71FFF0028C7
:1024000006D12068BDE810400C21FFF717BF01205E
:1024100010BD00004800002030B50C4601461546AE
:10242000002000F00BF82146012000F007F82946B3
:10243000BDE83040022000F001B80000084A1268F0
:10244000002A0BD0642900D964211268D26A4A4359
:102450006421B2FBF1F189B200F004B870470000CA
:1024600048000020104A1368002B12D0032810D215
:1024700080B1012810D002280BD10C221868C36A41
:10248000994200D999B24AB1042A09D0082A09D040
:10249000016470470422F1E70822EFE741637047C7
:1024A00081637047C1637047480000203EB5042037
:1024B00000900120019006200290002469460A48FD
:1024C000FEF7A0FB0848FEF777FD0A210648FEF755
:1024D000D5FC18B90448FEF713FC84B20248FEF795
:1024E000CBFD20463EBD0000D000002010B500F01E
:1024F00009F86421484340F6FF71B0FBF1F0C0B227
:1025000010BD00003EB5052000900120019006207E
:102510000290002469460A48FEF774FB0848FEF75B
:102520004BFD0A210648FEF7A9FC18B90448FEF73E
:10253000E7FB84B20248FEF79FFD20463EBD000047
:10254000D00000203EB5002411480094019402946C
:102550000E498460016004730475012505614FF420
:1025600060214460C161FEF7CFFB08B1FEF748FB74
:102570000420CDE90005694602940548FEF742FBB8
:10258000002801D0FEF73CFB3EBD000000240140C6
:10259000D00000207CB500F08EFB0121062321A293
:1025A000084600F0BBFC01F0F1FB002201210A20EB
:1025B00002F094FE1F4CA0611F4800F0AFF91F4AC3
:1025C00000211F4801F030FFE062202004F11C01CF
:1025D000C500CDE9000100232A461AA11B4803F0DB
:1025E000FBF804F124000824CDE9004000232A462A
:1025F00017A1194803F0F0F80E4800232830CDE960
:1026000000402A4615A1174803F0E6F809491820AA
:102610002031CDE900010023A20113A1154803F0E8
:10262000DBF87CBD4F53204C6F6164696E672E2EC2
:102630002E0000000800002014010020005C0008AB
:102640003B4000084B65795461736B0021230008FF
:102650004C45445461736B008D230008454E56541D
:1026600061736B003D0B00084F4C45445461736B24
:1026700000000000893000082DE9F04385B00025F6
:1026800036480095019502950395816941F0100146
:102690008161816901F010010491816941F020019B
:1026A0008161816901F020010491816941F0040197
:1026B0008161816901F004010491816941F008019F
:1026C00081618069DFF8989000F008000490002292
:1026D00042F230314846FEF7F8FD012297033946B1
:1026E0004846FEF7F2FD0F20CDE9000501246946BA
:1026F00002941C48FEF7ECFC2003CDE90005694676
:1027000002944846FEF7E4FC600311264FF00308EC
:10271000CDE90006CDE9025869464846FEF7D8FCE7
:10272000CDE900740227CDE9024769464846FEF725
:10273000CFFC30208DE8B10069464846FEF7C8FC62
:102740004FF44070CDE90006CDE90248694648469D
:10275000FEF7BEFC05B0BDE8F083000000100240AB
:10276000000C0140000801407CB500241E48019483
:102770001C4900940160611E41604FF480718160CA
:10278000FFF712FA08B1FEF73BFA01211648FFF7EE
:1027900067F943F2F225A84223D08DF804408DF862
:1027A00005408DF80640012201A90F48FFF7C2FA43
:1027B00008B1FEF725FA01208DF800008DF8010020
:1027C0008DF8020002468DF8034069460648FFF77F
:1027D0004FFA08B1FEF714FA2A4601210248FFF722
:1027E00047F97CBD002800400001002010B58CB0E6
:1027F00024216846FDF7C9FE0024164809944FF0CD
:1028000080410A94C0E900144FF6FF71C0E902410B
:102810008021046181610120CDE900040C21CDE912
:1028200002040491CDE905400794694609480894DB
:10283000FFF73CFB08B1FEF7E3F9099409A9054845
:102840000A94FFF7FFFA002801D0FEF7D9F90CB07F
:1028500010BD00001401002010B58AB000240794B8
:102860001C2168460894FDF790FE23482149016029
:102870004721C0E9011440F2E731C0E90314802187
:102880008161FFF799FC08B1FEF7BAF9079407A92F
:1028900019480894FFF7D6FA08B1FEF7B1F960209D
:1028A000CDE9000402940022694613480494FFF71E
:1028B0001DFC08B1FEF7A4F9042269460E48FFF793
:1028C00015FC08B1FEF79CF9082269460A48FFF793
:1028D0000DFC08B1FEF794F90C2269460648FFF793
:1028E00005FC08B1FEF78CF90348FFF7BFFB0AB0FF
:1028F00010BD0000000400405C01002002490022DD
:10290000087B0A7370470000A405002002490022DA
:10291000B1F908000A817047A405002010B500280D
:1029200019D00D4C20600020E0802081207300F041
:102930005DF8E072A0726073FEF7CCFC20613C2170
:102940002068FFF74BFB206847F6FF710268516271
:102950000068406AA08010BDA405002070B5224C1C
:10296000206800283ED00068416AA088A180081A2B
:1029700000B200F10801112900D30020E188081AF3
:10298000E08004E0801EE0802089401C2081B4F9B2
:1029900006000228F6DA6FF0010100BFB4F9060064
:1029A000884205DC801CE0802089401E2081F5E7FC
:1029B00000F01CF80546FEF78DFC0146E07AA842BF
:1029C00001D0E57221612069081A0A280AD3A07A89
:1029D000A84207D0A572617B814203D18D4201D00C
:1029E0000120207370BD0000A405002010B54FF435
:1029F00080510348FEF75CFC012800D0002010BD88
:102A0000000C0140FEE7FEE710B50021074C0A4626
:102A1000002004EBC1131A54401CC0B28028FAD322
:102A2000491CC9B20829F3D310BD0000A40100203D
:102A3000F0B50B4424E0044685181DE07F2C19D81E
:102A4000002917DB3F2915DCCE1701EB56764FEA3C
:102A5000E60C0D4F26F0070607EBCC172744A1EB39
:102A6000060E97F800C0012606FA0EF62CEA060CB0
:102A700087F800C0641C24B2A542DFDC491C09B2FF
:102A80008B42D8DCF0BD0000A40100202DE9F04FFE
:102A90001E464FF0000904460D461746C846B1428F
:102AA0000ED1BC4208DD2746144605E029462046E3
:102AB00000F062F8641C24B2BC42F7DDBDE8F08F80
:102AC000BC420DD1B54208DD1D460E4605E0294643
:102AD000204600F051F86D1C2DB2B542F7DDEDE750
:102AE00003DD274614461D460E46B54205DD684205
:102AF00005B2704206B24FF00109701B391B8842C3
:102B000007DD20462C4605463846374606464FF038
:102B10000108701B4200391B0FFA82FB421A520057
:102B20000FFA82FAC1EB400019E0604201B203E003
:102B3000684201B203E02146284601E029462046CA
:102B400000F01AF8BC42B9DA641C24B2002E02DA92
:102B500006EB0B0003E06D1C2DB206EB0A0006B27B
:102B6000B9F1000F03D0B8F1000FE1D0DDE7B8F103
:102B7000000FE3D0DFE7000010B57F2813D800294D
:102B800011DB3F290FDCCA1701EB5272D410064B40
:102B900022F0070203EBC41318448A1A03780121B8
:102BA00091400B43037010BDA40100202DE9F043B8
:102BB0000446CD1807988846A618274668BB681EA5
:102BC0000FFA80F909E041463846FFF7D5FF49463C
:102BD0003846FFF7D1FF7F1C3FB2BE42F3DC761EC2
:102BE000474636B209E039462046FFF7C5FF304672
:102BF0003946FFF7C1FF7F1C3FB2BD42F3DCBDE8A1
:102C0000F083444605E021463846FFF7B5FF641CD3
:102C100024B2A542F7DC7F1C3FB2BE42F1DCEEE7F6
:102C200010B500204FF47A720021491C9142FCD368
:102C3000401C9042F8D3012001F0BCF8BDE81040E0
:102C4000012001F0BFB870B500240646802525FAA2
:102C500004F0304000D0012001F0B4F8012001F070
:102C6000A9F8002001F0A6F8641CE4B2082CEED309
:102C7000012001F09FF8BDE87040002001F09AB8F3
:102C800010B5012001F09EF8012001F093F800201A
:102C900001F098F8BDE81040002001F08BB810B5A5
:102CA000002001F08FF8012001F084F8BDE8104009
:102CB000012001F087B810B5FFF7B2FFAE2001F098
:102CC00089F8D52001F086F8802001F083F8A8204B
:102CD00001F080F83F2001F07DF8D32001F07AF870
:102CE000002001F077F8402001F074F8A12001F0F5
:102CF00071F8C82001F06EF8DA2001F06BF81220AC
:102D000001F068F8812001F065F8CF2001F062F849
:102D1000D92001F05FF8F12001F05CF8DB2001F030
:102D200059F8302001F056F8A42001F053F8A620FD
:102D300001F050F88D2001F04DF8142001F04AF810
:102D4000AF2001F047F8FFF75FFEBDE8104001F04B
:102D50001DB80246012000E05043491EFCD27047D6
:102D6000F0B50B4423E0044685181CE07F2C18D8EE
:102D7000002916DB3F2914DCCE1701EB567C4FEA05
:102D8000EC070C4E2CF0070C06EBC7162644A1EB03
:102D90000C0E37784FF0010C0CFA0EFC87EA0C078A
:102DA0003770641C24B2A542E0DC491C09B28B4296
:102DB000D9DCF0BDA401002010B50C4640F0B000F5
:102DC00001F008F8102040EA141001F003F804F0B4
:102DD0000F00BDE8104000F0FDBF000008B5082B53
:102DE0000DD0062B0AD10A4B02EB420203EB420242
:102DF000C03A00920823062200F00EF808BD054BE9
:102E000003EB0212A2F50072102300920822F3E7EE
:102E100060620008705C00082DE9F04F1F461646FE
:102E20000D4682460024FFF703FE7F1EF81707EBCE
:102E300050700121DFF898B001EBE00743E000207B
:102E40003DE000BF0AEB00037F2B36D8E91705EB06
:102E50005171CA1021F00701691A002D03DA521EC0
:102E6000083112B209B202EB0409B9F1070F0ED80A
:102E7000099A04FB06F802440BEBC91E18F802205D
:102E80001EF803C08A404CEA020C0EF803C009F198
:102E90000102072A11D80BEBC91202EB0308099AA9
:102EA00004FB06FC024498F880301CF80220C1F1B3
:102EB0000801CA40134388F88030401CC0B2B042B9
:102EC000C0D3641CE4B2A742B9DCBDE8F08F0000B7
:102ED000A40100202DE9F04700241D4690468A46B3
:102EE00081460A27089E14E0291B0A20491EFFF785
:102EF00030FFB8FBF0F0B0FBF7F107FB110204FB69
:102F0000069000B2334651463032FFF767FF641C2B
:102F1000E4B2AC42E8D3BDE8F08700002DE9FF4FF2
:102F2000002483B09B4690462546A246DFF8509188
:102F30009EE0100610D403988DF80420641C2844E9
:102F4000A4B28DF805A000B25B460499FFF746FFD6
:102F500005EB0B0085B28BE00620B0EB521F0ED1C3
:102F6000641CA0B28DF8042018F80010002974D059
:102F70008DF80510401C84B28DF806A03CE00E20B0
:102F8000B0EB121F16D1641CA0B28DF8042018F803
:102F90000010002971D0401C80B28DF8051018F87F
:102FA0000010002969D08DF80610401C84B28DF8FD
:102FB00007A021E01E20B0EBD20F1FD1641CA0B2ED
:102FC0008DF8042018F80010002956D0401C80B25B
:102FD0008DF8051018F8001000294ED0401C80B262
:102FE0008DF8061018F80010002946D0401C8DF806
:102FF000071084B28DF808A0002609E0641CA4B272
:1030000036E0384601A9FDF7E7FA68B1761CB6B29A
:1030100006EB860000EB461101EB0900074619A1FB
:10302000FDF7DAFA0028ECD1BBF1080F03D0BBF1B1
:10303000060F1DD112E006EB860000EB461101EBF6
:103040000900401D009003981023284400B21A463E
:103050000499FFF7E1FE103509E00EE0039806231E
:10306000284400B23F220499FFF7B8FEAD1DADB26F
:1030700018F80420002A7FF45CAF07B0BDE8F08F99
:103080009A64000800000000AAB0FD48002500F185
:1030900030014FF00E0B1EC915931D91CDE90D2483
:1030A000D0E901121C921491006826900120189515
:1030B00008901A95049016950B95FF201B95249067
:1030C0000C950D2007901020199506901E95002054
:1030D0000A950595CDF80CB04FF001098246209075
:1030E00002F0E0FB259000268DF88C60142125A8C5
:1030F00001F084FFE34CB4F90C70A681002223A9EF
:10310000A06902F093FA012802D19DF88C0020708A
:10311000FEF7E0F8A0EB0A00B0F5FA7F07D3FEF760
:10312000D9F88246B9F1000F36D0002081469DF8CB
:103130008C00012832D075B3012D78D0032D77D0C3
:10314000052D76D0022D75D0042D74D0072D73D0A7
:10315000062D72D0A07858B1A6701B9800286DD0AB
:103160005FF000004FF001091B90FEF7B3F88246B4
:10317000002F70D01B9800286ED0169800286CD0B5
:1031800001286BD002286AD0032869D0042868D0AF
:1031900004983844C5E30AE00120C7E7012D03D0B5
:1031A0002DB1A67001259EE7A67000259BE70022A1
:1031B00002A9B548FEF78BFC002227A9B248FEF70A
:1031C0005FFCA0780028ECD1FFF71EFC0623AFA21D
:1031D00000212420FFF7A2FE0A237F2219460020A7
:1031E000FFF754FC9DF89E109DF89D00CDE900016D
:1031F0009DF89F30A8A2102110A8FDF735F80623EE
:1032000010AA18211C20FFF789FE9DF80A109DF8CE
:103210000900CDE900019DF80830A4A2102110A8F2
:10322000FDF722F80823262110AA1C2005E206E05B
:103230009AE00DE1A3E109E25EE275E273E3002F9B
:1032400010DD607800F10100607094F9010004283D
:103250000EDB66700CE0FFE3FFE3FFE3FFE3FFE359
:10326000FFE3FFE304DA6078A8B16078401E607085
:10327000A078D8B160782490A6701420209060784F
:1032800001280AD0607860B1607802280BD060789D
:1032900003280AD00AE00320E9E70020042519905A
:1032A00004E0022502E0032500E0052594F9010071
:1032B00000EB40010E2000EB8100A0EB0B0000B200
:1032C000022801DD022004E06FF00101884200DAEB
:1032D000084658440FFA80FBFFF796FB00210623AF
:1032E00076A20846FFF71AFE0A237F22194600201D
:1032F000FFF7CCFB06230E2118461D9AFFF70EFEA2
:1033000006231A2118460D9AFFF708FE06232621E8
:103310001846159AFFF702FE0623322118460E9A28
:10332000FFF7FCFDABF1010001B20A23802200206F
:10333000FFF716FD2498FF2815D020980028FBD011
:10334000062362A200214C20FFF7E8FD0620249A04
:103350000090012300216A20521CFFF7BBFD20983A
:10336000401EC0B2209093E3002F05DD1E994FF060
:10337000010020EA010004E004DA1E98A0B14FF039
:1033800000001E90A07830B3A6703E4C1E9804F149
:103390001004205C58B14FF000011E982154207891
:1033A00040B14FF0010207E04FF00100E9E74FF0B4
:1033B0000101F2E74FF00002464E4FF01001304697
:1033C000FDF783FF607808B1012200E00022202190
:1033D0003046FDF77AFF1E9838B11B200699401A37
:1033E00000B2022803DD022006E00F20F6E76FF0AE
:1033F0000101884200DA08460699084400B20690A6
:10340000FFF702FB0021062333A20846FFF786FDE3
:103410000A237F2219460020FFF738FB194C10348D
:10342000207808B12EA200E031A20623102100204E
:10343000FFF774FD607808B131A200E034A20623E2
:103440001C210020FFF76AFD0A238022069947E12C
:10345000A078A0B1A670002221A90B48FEF737FB87
:10346000002222A90848FEF70BFB9DF884000C906F
:103470009DF885000B909DF886000A9050E061E071
:10348000F45B00080800002000010020536D617209
:103490007420486F6D6500003230253032642D2570
:1034A0003032642D25303264000000002530326453
:1034B0003A253032643A253032640000536D61722F
:1034C0007420486F6D65204D656E75004F50454EF8
:1034D0003A000000000C01405377697463680000F3
:1034E000535749544348313A204F4E2000000000C2
:1034F000535749544348313A204F46460000000094
:10350000535749544348323A204F4E2000000000A0
:10351000535749544348323A204F46460000000072
:103520009DF88B0005909DF8890008909DF88A0011
:103530000490002016904FF001091B90FDF7CAFE81
:1035400082460825FFF760FA00210623F6A2084606
:10355000FFF7E4FC0A237F2219460020FFF796FAC2
:10356000062310210020269AFFF7D8FC0A23802288
:103570000F210020FFF7F4FB0623EEA2D2E0FFF7B5
:1035800043FA00210623EEA20846FFF7C7FC0A23F0
:103590007F2219460020FFF779FA207A90B3A079AC
:1035A00000902379E9A2102110A8FCF75DFE062304
:1035B00010AA10210020FFF7B1FCE0790090637998
:1035C000E6A2102110A8FCF74FFE062310AA1C212A
:1035D0000020FFF7A3FCA37AE4A2102110A8FCF7B7
:1035E00043FE062310AA28210020FFF797FCE37A68
:1035F000E1A2102110A8FCF737FE062310AA3421FF
:10360000002043E2FFE70623DEA218210820FFF78F
:1036100085FC0623E0A224210820FFF77FFC607AC6
:1036200003280BD0607A01280BD0607A4FF0060394
:10363000022809D0DCA23021082027E20623DEA2DE
:10364000F9E70623E0A2F6E7E3A2F4E719980D21D3
:1036500000EB400001EB80000799401A00B20228FD
:1036600001DD022004E06FF00101884200DA084623
:103670000799002F084400B2079008DD199800F15F
:103680000100C0B21990022807D3002004E004DA38
:10369000199850B3401EC0B21990A07818B1A67006
:1036A000199820B30725FFF7AFF900210623CDA213
:1036B0000846FFF733FC0A237F2219460020FFF754
:1036C000E5F906230E210020149AFFF727FC0623B4
:1036D0001A2100201C9AFFF721FC09230799802258
:1036E0005FF00000FFF73CFB31E30120D4E700204E
:1036F000189006251A90D6E7FFF786F900210623D1
:10370000BBA20846FFF70AFC0A237F2219460020C5
:10371000FFF7BCF90623B9A21C210820FFF7FEFB26
:103720000623B8A238216BE7189800EB40010E2061
:1037300000EB81000399401A00B2022801DD02204B
:1037400004E06FF00101884200DA0846039908445A
:1037500000B20390A07880B1A67018980028E07895
:1037600001D030B109E010B10020E07003E0012089
:10377000FBE71A9820B100201A90E07810B12AE0F7
:103780000120F9E71A9868B12FB3A14818990144AC
:1037900011F8012C07EB8700104400B2002815DA5D
:1037A000002016E0002F08DD189800F10100C0B2DB
:1037B000189003280FD9002004E00CDA189818B1EB
:1037C000401EC0B2189006E00320FBE7642800DD2D
:1037D000642001F8010C8E490A7848788978E378EA
:1037E00013B1A07A014602468DF89C208DF89D0009
:1037F0008DF89E10FFF708F90021062385A20846E0
:10380000FFF78CFB0A237F2219460020FFF73EF9C1
:10381000062383A20E210020FFF780FBE07808B189
:1038200081A200E082A206230E212420FFF776FB6E
:103830001A9828B11898012802D1B9F1000F0BD0BD
:1038400006237DA21A210020FFF768FB1A9868B1B1
:103850001898022807D009E0062379A21A2100202F
:10386000FFF75CFB02E0B9F1000F0BD0062376A254
:1038700026210020FFF752FB1A9868B118980328F8
:1038800007D009E006236EA226210020FFF746FBA1
:1038900002E0B9F1000F45D006236DA232210020CD
:1038A000FFF73CFB002427AF04EB44011A2000EB98
:1038B000810000F0FF08385D3A2148436421B0FBE5
:1038C000F1F0C6B20020009008233C22414622209D
:1038D000FFF76CF946B1012000900623324608F14B
:1038E00001012320FFF762F9062000903A5D0323CF
:1038F00041466220FFF7EEFA641CE4B2032CD3D3F6
:103900001A9868B1189858B1B9F1000F07D0039808
:103910000923401E01B21E220020FFF721FAB1E068
:10392000A5E015E19FE0B4E053797374656D204D17
:10393000656E75004B4559313A4D656E7500000056
:10394000456E7669726F6E6D656E740054656D704C
:103950003A2532642E2531644300000048756D69B4
:103960003A2532642E253164252500004C696768AC
:10397000743A2533642525004149523A253364259C
:103980002500000053656E736F7220726561646973
:103990006E672E2E2E00000043484B2044485431C1
:1039A00031205749524500004552523A20554E4B5E
:1039B0004E4F574E000000004552523A2054494D98
:1039C000454F5554000000004552523A20434845A7
:1039D000434B53554D0000004552523A2042555337
:1039E000590000004C69676874204D656E750000D1
:1039F00052474220436F6E74726F6C00544F444FB5
:103A0000000000004B455931204261636B0000000B
:103A10001A0000204C454420436F6E74726F6C0096
:103A20004D6F64653A0000004175746F000000003E
:103A30004D616E75616C00004C4544313A000000E8
:103A400020202020200000004C4544323A00000095
:103A50004C4544333A00000084E01DE02CE03AE09D
:103A600048E056E064E00623AFF22C0216E7039824
:103A70000923401E01B21E220020FFF771F91A9897
:103A8000002805D00623B6A20E214820FFF746FAEB
:103A90005DE10120FFF766BB1698002F06DD0528C3
:103AA00001D0401C04E0002016905BE010B1401EE5
:103AB000C0B2F9E70520F7E70C98384400E0183069
:103AC00000B20028FBDB01E0183800B21828FBDA4E
:103AD000C0B20C9046E00B98384400E03C3000B295
:103AE0000028FBDB01E03C3800B23C28FBDAC0B226
:103AF0000B9037E00A98384400E03C3000B20028D0
:103B0000FBDB01E03C3800B23C28FBDAC0B20A9093
:103B100028E00598384400E0643000B20028FBDB60
:103B200001E0643800B26428FBDAC0B2059019E005
:103B30000898384400E00C3000B20128FBDB01E0BB
:103B40000C3800B20C28FBDCC0B208900AE01F3031
:103B500000B20128FBDB01E01F3800B21F28FBDCAC
:103B6000C0B20490FEF750FF08237EA200211C2063
:103B7000FFF7D4F912237F2219460020FEF786FFB3
:103B800018232022194608200096FFF70FF8182363
:103B90002022194630200096FFF708F8182320222B
:103BA000194658200096FFF701F804990898CDE9C6
:103BB0000001AFF21C72102110A8059BFCF754FB0A
:103BC000062310AA00213E20FFF7A8F91698022824
:103BD0001B9851D820B1169810B9B9F1000F14D024
:103BE000AFF24072102110A80C9BFCF73DFB06239E
:103BF00010AA20211020FFF791F91B9828B11698E0
:103C0000012802D1B9F1000F14D0AFF2687210216F
:103C100010A80B9BFCF728FB062310AA20213820B4
:103C2000FFF77CF91B9828B11698022802D1B9F148
:103C3000000F0CD0AFF29472102110A80A9BFCF771
:103C400013FB062310AA20216020FFF767F9062343
:103C500046A234210C20FFF761F9062345A2342146
:103C60003820FFF75BF9062343A234216020FFF7D9
:103C700055F91698E8B351E028B11698032802D1F7
:103C8000B9F1000F14D0AFF2E472102110A8059B17
:103C9000FCF7EAFA062310AA20211020FFF73EF9CC
:103CA0001B9828B11698042802D1B9F1000F14D03E
:103CB000AFF61002102110A8089BFCF7D5FA0623D6
:103CC00010AA20213820FFF729F91B9828B116984F
:103CD000052802D1B9F1000F0ED0AFF6380210213D
:103CE00010A8049BFCF7C0FA0623202110AA60202C
:103CF00000E016E0FFF712F9062320A234210C2081
:103D0000FFF70CF906231FA234213820FFF706F92C
:103D100006231DA234216020FFF700F9169803281E
:103D200005D116231E2219210920FFF719F816982C
:103D3000012801D0042805D116231E221921312083
:103D4000FFF70EF81698022805D0052803D000F0DA
:103D50001DF8FFF7C8B916231E2219215920C1E406
:103D600041646A0054494D4500000000686F757257
:103D7000000000006D696E00736563007965617213
:103D8000000000006D6F6E006461790070B5084D31
:103D9000002400212046FFF70FF805EBC410802116
:103DA00000F029F8641CE4B2082CF2D370BD0000C6
:103DB000A401002002464FF480710148FDF785BA46
:103DC000000C014002464FF400710148FDF77DBA36
:103DD000000C014010B50446FEF752FF7820FEF7B4
:103DE00032FF0020FEF72FFF2046FEF72CFFBDE834
:103DF0001040FEF754BF70B50D460646FEF740FF73
:103E00007820FEF720FF4020FEF71DFF002404E08D
:103E1000305DFEF718FF641CE4B2AC42F8D3BDE895
:103E20007040FEF73CBF010901EB810100F00F007B
:103E300000EB4100C0B27047002102E00A38C0B276
:103E4000491C0A28FAD2090740EA116070472DE997
:103E5000F04104460025C07B627BA37B42E0012A3F
:103E600016D0032A14D0052A12D0072A10D0082A07
:103E70000ED00A2A0CD00C2A0AD0042A10D0062A06
:103E80000ED0092A0CD00B2A0AD0022A0DD028E025
:103E90001F2B0CD30C2A05D101221346401C20E015
:103EA0001E2B04D30123521C1BE01C2B02D203F156
:103EB000010316E011D183B29E0710D16426B3FB33
:103EC000F6F706FB173636B94FF4C876B3FBF6F7AC
:103ED00006FB17331BB91D2303E01D2B01D1032261
:103EE00001236D1C8D42BAD3D1B2E0736173DAB293
:103EF000A27300F04FF82073BDE8F08170B504465E
:103F0000FDF7E8F905464FF47A7606E0FDF7E2F9A9
:103F1000401BB04201D9032070BD20684068800674
:103F2000F4D52068416841F010014160002070BD67
:103F300070B504460068416821F010014160FDF74A
:103F4000C9F905464FF47A7607E000BFFDF7C2F9DC
:103F5000401BB04201D9032070BD20684068800634
:103F6000F4D5002070BD0168086A496A89B241EA47
:103F700000407047006881698AB2C1698BB281696B
:103F800089B28A4203D0C06961F31F40704743EA97
:103F900002407047F0B56424C1EBC1030927A500B6
:103FA000072603EB01130329B3FBF7F100F5FA60D1
:103FB000114401440AD2401EB0FBF4F201EB90011F
:103FC000B0FBF5F0891A0844001D08E0B0FBF4F2DC
:103FD00001EB9001B0FBF5F0891A0844801CB0FB9E
:103FE000F6F106FB1100C0B2F0BD70B50D460646F5
:103FF0000024FFF783FF48B93168280C0862316854
:10400000A8B248623046FFF793FF00B10124204672
:1040100070BD70B50D4606460024FFF76FFF48B926
:104020003168280C88613168A8B2C8613046FFF752
:104030007FFF00B10124204670BD4FF47A74204602
:1040400000F0A6F9FBE710B5FDF74AF901F01CFCFA
:10405000012803D0BDE8104001F02AB910BD30B5E9
:1040600093B028216846FCF790FA14210AA8FCF7BF
:104070008CFA002401210F941194052012940090D1
:10408000CDE9024110944FF4803001900225049153
:10409000CDE907504FF4E01009906846FDF750FB5A
:1040A00008B172B6FEE70F20CDE90A054FF4806033
:1040B000CDE90C4002210AA80E94FDF76FFA08B171
:1040C00072B6FEE703200F904FF480701090C0018D
:1040D00011900FA8FDF7ECF9002801D072B6FEE7A9
:1040E00013B030BD70470000F0B50268194B1A4C90
:1040F0001A4D4FF08047984205D0B84203D0A042F5
:1041000001D0A84203D122F070064A683243984297
:1041100005D0B84203D0A04201D0A84203D122F476
:104120004074CA6822434C6922F080022243026034
:104130008A68C2620A688262984201D10969016391
:10414000012141610169C90703D0016921F0010121
:104150000161F0BD002C0140000400400008004057
:1041600010B501F01F030121046A99408C430462D9
:10417000016A9A401143016210BD000030B5036A24
:10418000026A22F0010202624268846924F0730527
:104190000C682C4323F002058B682B430A4DA84280
:1041A0000BD123F00805CB6822F440722B434D69F4
:1041B00023F0040315438A692A43426084614968F5
:1041C0004163036230BD0000002C014030B5026A3B
:1041D000036A23F010030362436884690D6824F4C2
:1041E000E64444EA05248D6822F0200242EA0512E2
:1041F0000B4DA8420ED1CD6822F0800242EA051292
:104200004D6923F4406343EA85038D6922F040023F
:1042100043EA85034360846149688163026230BD7B
:10422000002C014030B5036A026A22F480720262F7
:104230004268C46923F4007324F073050C682C43AE
:104240008D6843EA05230C4DA8420ED1CD6823F4B6
:10425000006343EA05234D6922F4405242EA051205
:104260008D6923F4806342EA05124260C4614968A3
:10427000C163036230BD0000002C014030B5046A08
:10428000026A22F4805202624268C3690D6823F414
:10429000E64343EA05238D6824F4005444EA0534D8
:1042A000064DA84204D14D6922F4804242EA8512AB
:1042B0004260C36149680164046230BD002C014062
:1042C000FEE70907090E002804DB00F1E02080F872
:1042D0000014704700F00F0000F1E02080F8141D7A
:1042E000704730380A2801D20120704700207047FB
:1042F00010B50446FDF7E8F90349B0FBF1F161435D
:10430000491EFDD210BD000000127A00FCF7F0FF3C
:10431000FFF7A5FEFEF7B0F9FEF768FAFEF724FAFC
:10432000FEF79AFAFEF70EF901211748FDF798FB00
:1043300043F2F224A0421FD014481A210022C17077
:1043400003214170062181700521017001460E484C
:10435000FDF78EFC0D480E21C01E01701E2141701C
:10436000002181700A4601460748FDF7E3FC22461A
:1043700001210548FDF77CFB00F028F8FEF70AF95B
:1043800000F036F8FEE700000001002003000020E6
:1043900010B5EFF3058111B16FF0050403E00024BF
:1043A00008B100F005FE204610BD000010B501F078
:1043B0006BFA38B1022804D003480068012800D005
:1043C000002010BD032010BDA0000020EFF30580E9
:1043D00010B16FF0050070470448016811B14FF04B
:1043E000FF3070470121016000207047A0000020CD
:1043F00010B5EFF3058010B16FF0050010BD08484F
:104400000168012902D04FF0FF3010BD054A00219C
:1044100082F8141D0221016000F078FE002010BD1A
:10442000A00000200BE000E02DE9FF414FEA01036E
:104430004FF00005EFF30581039549BB40B380279A
:10444000182100244AB3166806B1344696691EB195
:104450003146761E382E02D21679F60703D0002098
:1044600004B0BDE8F081566906B1B708D2F808C0BB
:10447000BCF1000F0DD0D5685C2D18D312693AB18C
:1044800036B18DE806103A46214601F0D2F9039084
:104490000DE0D6685EB912694AB903AACDE90012E7
:1044A000BAB2214601F098F9012800D0039503988B
:1044B000D6E700002DE9F041134C0F460546E668AB
:1044C0002068001D00F040FC681C07D137B121684E
:1044D000BDE8F0410D48091D00F086BC2068354458
:1044E000B5424560216805D2A06BBDE8F041091DC9
:1044F00000F062BC606B091D00F05EFCA06A8542A2
:1045000000D2A562BDE8F08150000020A80A00207A
:104510002DE9F041054600F073FC2D4CA068401CCD
:10452000A06020682B4F10B1606930B32BE025608C
:10453000A068012827D1002606EB860007EB800043
:1045400000F02CFC761C382EF6D3234800F026FC15
:104550002148143000F022FC1F48283000F01EFCD7
:104560001D483C3000F01AFC1B48503000F016FC8F
:10457000194860631430A06305E02068E96AC06AE6
:10458000884200D82560606A401C60626864E86AFE
:104590002169884200D9206100EB800007EB800090
:1045A000291D00F021FC00F04BFC606900280CD0B4
:1045B0002068E96AC06A884207D208494FF08050F3
:1045C0000860BFF34F8FBFF36F8FBDE8F08100002D
:1045D00050000020F8050020580A002004ED00E0FB
:1045E00038B500F00DFC104C2068C8B90F4800F039
:1045F000D5FB0E48143000F0D1FB0C48E0601430BD
:1046000020610A4B0020F03B009003F15002102182
:104610000A2000F084FE206010B105A100F092FC99
:10462000BDE8384000F00CBC8C000020AC0B002032
:10463000546D72510000000030B4026C0B46002A29
:104640000BD0C1681144C1608468A14201D30168E4
:10465000C16030BC1846FBF74BBF30BC70472DE93A
:10466000F041856B174604460026026C82B1C7B143
:10467000E068FBF73DFFE168206C091AE160226801
:10468000914202D2A168081AE060022F16D017E00A
:104690002068A8B9A06801F06FF906460020A06064
:1046A0000EE06068FBF724FF216C606808446060DE
:1046B000A168884204D32068606001E005B16D1EE6
:1046C0006D1CA5633046BDE8F08110B5044690F836
:1046D000590058B101280CD002280FD0502080F387
:1046E0001188BFF34F8FBFF36F8FFEE7206B00F091
:1046F000BBFB2046BDE8104000F0B6BB10BD00007B
:1047000010484FF40051420706D0C01D0D4920F05B
:104710000700411AC1F500510B4A00230144C2E9C8
:1047200000030839183A21F0070111604B600B6053
:104730000B1AC0E9001393604FF0004053605061C2
:10474000704700008C120020BC000020144E154C55
:10475000A6F29C474FF08058DFF84C9012E000BF63
:1047600000F04EFBF068C568281D00F0EDFAA06867
:10477000401EA0606068401E606000F061FB28463B
:10478000FFF7A3FF60680028EAD138680128F9D94B
:10479000C9F80080BFF34F8FBFF36F8FF2E70000BF
:1047A000940A00205000002004ED00E070B51D4682
:1047B000049C51B1C4F80020C4E90F010121204636
:1047C00000F0E0FD84F84C5070BD2460F4E7000078
:1047D0002DE9F05F8846DDE90B941546834691008C
:1047E0009A460A9EA522206BFBF7C7FE6FF00301D5
:1047F000206B01EB8501084420F00707780707D0FC
:10480000502080F31188BFF34F8FBFF36F8FFEE707
:104810000025B8F1000F0FD05FF00000221818F843
:10482000001082F8341018F8001011B1401C102844
:10483000F4D384F8435001E084F83450382E00D388
:104840003726E662C4E91365201D00F0B2FA04F1D0
:10485000180000F0AEFA2461C6F138006462A0616D
:10486000656584F8585052465946384600F05AFA61
:104870002060B9F1000F01D0C9F80040BDE8F09FF9
:1048800030B5114900E011460A688242FBD34B68FB
:104890005C18844203D14068184448600846436865
:1048A0001C18944209D1084C183C2468A24209D033
:1048B00052681A4442600A6812680260814200D05D
:1048C000086030BD0460F9E7BC00002070B500242A
:1048D00041600B4D0061914206D8D11A8269914224
:1048E00006D2011D286907E09A4203D2994201D3FA
:1048F000012403E0011DE86800F05EFA204670BD67
:104900008C00002010B5044600F07AFAA06B28B1A4
:104910005FF0000400F094FA204610BD0124F9E78E
:1049200030B589B03C4D6EE00498002806DADDE928
:104930000601059A90470498002864DB069C60698C
:1049400010B1201D00F000FA03A800F0D7F80246CD
:1049500004980A2857D2DFE800F00505052D334AF0
:1049600005052D3394F8280040F0010084F8280054
:104970000599A069059B01442046FFF7A7FF68B38E
:10498000216A2046884794F8280040073BD500203C
:1049900000900598A169002342181946204601F0AD
:1049A000F5F8D8B9502080F31188BFF34F8FBFF3CB
:1049B0006F8FFEE714F8280F20F00100207022E02E
:1049C00094F8280040F0010084F828000598A061C0
:1049D00028B1811813462046FFF778FF13E05020D6
:1049E00080F31188BFF34F8FBFF36F8FFEE794F80A
:1049F0002800810703D4204600F036FA03E020F0B7
:104A0000010084F82800002204A9286800F00EFEA6
:104A1000002889D109B030BD8C0000202DE9FC416F
:104A20000F46054600F0B6FB01A800F067F8044603
:104A3000019818B101F018F8BDE8FC81254EAFB11E
:104A400030690068D0B30027291B3A46306800F06F
:104A50008DFA01F009F80028EED11F494FF080507F
:104A60000860BFF34F8FBFF36F8FE5E7A542EBD828
:104A700000F0FAFFF0682746C068C468201D00F007
:104A800063F994F82800410719D5A0692B4641190C
:104A90003A462046FFF71AFFA8B100200346014618
:104AA00000902A46204601F071F860B9502080F34A
:104AB0001188BFF34F8FBFF36F8FFEE707E020F041
:104AC000010084F82800216A20468847B4E70127BE
:104AD000BAE700008C00002004ED00E00648416BBE
:104AE000096829B1416BC968C96849688162704722
:104AF0004FF0FF31FAE700005000002070B5054686
:104B000000F0D0FE064E0446B068844203D200F0A6
:104B100009F8012000E0002028602046B46070BD44
:104B20008C000020F8B5194D20E0C068C468066804
:104B3000201D00F009F9216A2046884794F82800D2
:104B4000400713D5A0693044B04206D924616060A3
:104B5000211DE86800F030F908E000200346014616
:104B600000903246204601F011F838B1E86801683B
:104B70000029DAD12969C5E90310F8BD502080F376
:104B80001188BFF34F8FBFF36F8FFEE78C000020BB
:104B900008484068401C4FF0500080F3118804D052
:104BA000BFF34F8FBFF36F8FFEE7BFF34F8FBFF39E
:104BB0006F8FFEE7C4000020074CE068016841B138
:104BC000C0680021D0F80000FFF728FFFFF7A8FE1B
:104BD000F3E701210020F7E78C0000202DE9F041E8
:104BE000044600F00DF994F9455004F1240609E05B
:104BF000606A48B1304600F0FFFE08B100F04CFAA0
:104C00006D1E6DB2002DF3DC4FF0FF3684F8456069
:104C100000F016F900F0F4F894F9445004F110078C
:104C200009E0206948B1384600F0E6FE08B100F01E
:104C300033FA6D1E6DB2002DF3DC84F84460BDE8DC
:104C4000F04100F0FDB800002DE9F04105460027D5
:104C500000F0A0FA324E306808B9FFF751FD7069D4
:104C600005424ED1C5B3083568070ED005F00700E0
:104C7000C0F108000544680707D0502080F3118870
:104C8000BFF34F8FBFF36F8FFEE72DB37068854280
:104C900037D82348183001460C6801E020460C46FE
:104CA0006168A94202D221680029F7D131688C429B
:104CB00027D007682168016060680837411B102908
:104CC0000FD96019420708D0502080F31188BFF334
:104CD0004F8FBFF36F8FFEE713E041606560FFF712
:104CE000CFFD61687068401A7060B268904200D26F
:104CF000B060706901430020C4E90001F068401C05
:104D0000F06000F0B1FE780707D0502080F31188E2
:104D1000BFF34F8FBFF36F8FFEE73846BDE8F081DA
:104D2000A400002010B5031F4FF080741C601B1FEF
:104D300021F001011960191F024B0B601439403832
:104D40000A6010BD914B0008D0E9013201699A60F8
:104D5000D0E901235A604A68824201D182684A60E0
:104D6000002202610868401E086008687047000061
:104D7000034B036003F15C00086080201060704703
:104D8000D40B0020044B036003F15C0008604FF477
:104D90008070106070470000300E002000F10801A4
:104DA0004FF0FF32C0E90112C160016100210160D2
:104DB000704700210161704730B50B685A1C02D062
:104DC00000F1080202E0026904E022465468256806
:104DD0009D42FAD953684B6099608A6051600861BE
:104DE0000168491C016030BD42684A6093688B606D
:104DF00093685960916008610168491C01607047BF
:104E0000502080F31188BFF34F8FBFF36F8F0A4993
:104E10004868401C486001280CD10848006810F020
:104E2000FF0F07D0502080F31188BFF34F8FBFF3DF
:104E30006F8FFEE770470000C400002004ED00E023
:104E40000849486828B1401E486001D180F31188A4
:104E50007047502080F31188BFF34F8FBFF36F8FDF
:104E6000FEE70000C400002070B500282AD0164DCF
:104E7000A0F1080460686969084207D1502080F3F6
:104E80001188BFF34F8FBFF36F8FFEE722683AB1EF
:104E9000502080F31188BFF34F8FBFF36F8FFEE771
:104EA0008843606000F076F960686968084468606B
:104EB0002046FFF7E5FC2869401C2861BDE87040EA
:104EC00000F0D2BD70BD0000A40000204FF0E02033
:104ED00000210161816105494FF47A720968B1FBD3
:104EE000F2F1491E41610721016170474400002031
:104EF00010B5FBF795F9114910280ED300F1E02009
:104F000090F8F0030A78904207D2502080F311887D
:104F1000BFF34F8FBFF36F8FFEE7094800688968C2
:104F200000F4E060884207D9502080F31188BFF375
:104F30004F8FBFF36F8FFEE710BD0000C40000204D
:104F40000CED00E010B5084B002200BF53F83240D2
:104F50001CB1521C082AF9D310BD43F8321003EBE0
:104F6000C201486010BD0000B805002070B51546AC
:104F70000E460446FFF744FF94F944100020491CF4
:104F800001D184F8440094F94510491C01D184F8FA
:104F90004500FFF755FFA06B28B92A46314604F1BA
:104FA000240000F097F82046BDE87040FFF716BED9
:104FB00010B5020014D00F48006B38B1502080F3B8
:104FC0001188BFF34F8FBFF36F8FFEE700F0E2F859
:104FD00000211046FFF76EFA00F046FD002807D1C9
:104FE00005494FF080500860BFF34F8FBFF36F8FBC
:104FF00010BD00005000002004ED00E070B50D462B
:1050000004000BD095B11E4A106BB8B1502080F34C
:105010001188BFF34F8FBFF36F8FFEE7502080F3EF
:105020001188BFF34F8FBFF36F8FFEE7502080F3DF
:105030001188BFF34F8FBFF36F8FFEE700F0AAF820
:10504000D26823685919934204D98B420AD99142F4
:1050500002D807E08B42FAD9881A21600021FFF7B5
:1050600029FA00E0216000F0FFFC002807D1054983
:105070004FF080500860BFF34F8FBFF36F8F70BD4C
:105080005000002004ED00E002490A6A0260C9688D
:10509000416070475000002001490120C8617047FD
:1050A0005000002010B50C4650B10949096818316C
:1050B000FFF782FE2046BDE810400121FFF7FAB954
:1050C000502080F31188BFF34F8FBFF36F8FFEE73F
:1050D0005000002070B514460D4668B10A490968B1
:1050E0001831FFF781FE0CB14FF0FF3521462846FD
:1050F000BDE87040FFF7DEB9502080F31188BFF3A0
:105100004F8FBFF36F8FFEE75000002030B587B0A0
:105110000024039405AA04A903A80494FFF728FE19
:10512000DDE903010094CDE90110002315A1174822
:10513000059A00F07EFB164D0028E8621FD000F0B3
:10514000F5FC012809D0401C19D1502080F31188AA
:10515000BFF34F8FBFF36F8FFEE7502080F31188AE
:10516000BFF34F8FBFF36F8F4FF0FF30A862012066
:105170006861EC6007B0BDE8304000F045B807B0AA
:1051800030BD000049444C45000000004D47000878
:10519000500000200248016B491C01637047000069
:1051A00050000020164810B5016B11B10121C161FA
:1051B00010BD0021C1610169124A01E0B9B1491E67
:1051C00001EB810352F82330002BF7D001EB810370
:1051D00002EB830202F1080453685B685360A34248
:1051E00001D15B685360DA680260016110BD502034
:1051F00080F31188BFF34F8FBFF36F8FFEE700007E
:1052000050000020F80500201CB5264908780190C0
:10521000FF20087008788DF800009DF800009DF8C8
:10522000002000F0F000904207D0502080F3118859
:10523000BFF34F8FBFF36F8FFEE79DF800001A4C4E
:1052400000F0500020700720A06005E09DF80020CD
:1052500052008DF80020401E9DF800201206F5D463
:10526000A060032807D0502080F31188BFF34F8F30
:10527000BFF36F8FFEE74FF44070A0600198087095
:105280000A48016841F470010160016841F0704111
:105290000160FFF71BFE00206060FAF78BFF002023
:1052A0001CBD000000E400E0C400002020ED00E090
:1052B00010B5502080F31188BFF34F8FBFF36F8F6D
:1052C00000F0F6FA18B104494FF080500860002051
:1052D00080F3118810BD000004ED00E0F8B517461A
:1052E0000E46050013D005FB06F05030FFF7ACFC6E
:1052F00004000AD0002084F8460004F150023B4626
:10530000314628460094FFF751FA2046F8BD502058
:1053100080F31188BFF34F8FBFF36F8FFEE738B56F
:10532000049D18B153B1CAB181B120E0502080F37F
:105330001188BFF34F8FBFF36F8FFEE7502080F3CC
:105340001188BFF34F8FBFF36F8FFEE7502080F3BC
:105350001188BFF34F8FBFF36F8FFEE739B1502035
:1053600080F31188BFF34F8FBFF36F8FFEE7502498
:105370001C46012384F846302B460094FFF716FAAA
:10538000204638BD70B50D46040025D0FFF738FD26
:10539000D4E90F20216802FB0011A1600021A16364
:1053A000216861600A46D4E90F01401E00FB01211B
:1053B000E16021464FF0FF3001F8440F487004F1DE
:1053C00010008DB1FFF7EAFC04F12400FFF7E6FCC2
:1053D000FFF736FD012070BD502080F31188BFF328
:1053E0004F8FBFF36F8FFEE721690029F0D000F0E7
:1053F00003FB0028ECD004494FF080500860BFF355
:105400004F8FBFF36F8FE3E704ED00E02DE9FF4717
:1054100082B01D468A464FF00008040003D0BAF15E
:10542000000F08D011E0502080F31188BFF34F8F98
:10543000BFF36F8FFEE7206C38B1502080F31188E6
:10544000BFF34F8FBFF36F8FFEE7022D0AD1E06BE2
:10545000012807D0502080F31188BFF34F8FBFF38E
:105460006F8FFEE700F010FA3F4F4FF000094FF04A
:10547000805648B9049838B1502080F31188BFF3A2
:105480004F8FBFF36F8FFEE7FFF7BAFCA06BE16BA6
:10549000884207D3022D05D00498D0B1B8F1000F8F
:1054A0001AD01EE02A4651462046FFF7D8F8616A16
:1054B00019B104F1240000F09FFA20B13E60BFF35F
:1054C0004F8FBFF36F8FFFF7BBFC012006B0BDE825
:1054D000F087FFF7B5FC22E06846FFF7D5FD4FF0F7
:1054E0000108FFF7ADFCFFF755FEFFF789FC94F9C3
:1054F0004400401C01D184F8449094F94500401CBC
:1055000001D184F84590FFF79BFC04A9684600F0A0
:1055100029F930B12046FFF761FB00F0A5FA002021
:10552000D4E7FFF76DFCA06BE16B884213D1FFF766
:1055300087FC04F110000499FFF7B4FD2046FFF743
:105540004DFB00F091FA00289ED13E60BFF34F8FD3
:10555000BFF36F8F98E7FFF773FC2046FFF73EFB22
:1055600000F082FA90E7000004ED00E02DE9F0473A
:105570001F4690468946040003D0B9F1000F08D0B9
:1055800011E0502080F31188BFF34F8FBFF36F8F6E
:10559000FEE7206C38B1502080F31188BFF34F8FA5
:1055A000BFF36F8FFEE7022F0AD1E06B012807D00F
:1055B000502080F31188BFF34F8FBFF36F8FFEE74A
:1055C000FFF796FC5020EFF3118680F31188BFF3AC
:1055D0004F8FBFF36F8FA06BE16B884206D3022F12
:1055E00004D0002086F31188BDE8F08794F9455077
:1055F000A06B3A4649462046FFF731F8681C04D0B4
:105600006D1C84F845500120ECE7606A0028FAD050
:1056100004F1240000F0F0F90028F4D0B8F1000FF4
:10562000F1D00121C8F80010EDE700002DE9F7479F
:10563000002683B08A46040003D0BAF1000F08D0D8
:1056400011E0502080F31188BFF34F8FBFF36F8FAD
:10565000FEE7206C38B1502080F31188BFF34F8FE4
:10566000BFF36F8FFEE700F00FF9DFF8F4804FF023
:1056700000094FF0805748B9059838B1502080F3A1
:105680001188BFF34F8FBFF36F8FFEE7FFF7B8FBB3
:10569000A56BC5B151462046FEF7CEFF6D1EA56332
:1056A000206950B104F1100000F0A6F928B1C8F843
:1056B0000070BFF34F8FBFF36F8FFFF7C1FB012067
:1056C00006B0BDE8F087059808B11EB106E0FFF707
:1056D000B7FB27E06846FFF7D7FC0126FFF7B0FBD2
:1056E000FFF758FDFFF78CFB94F94400401C01D1F3
:1056F00084F8449094F94500401C01D184F8459009
:10570000FFF79EFB05A9684600F02CF8002820460C
:105710000AD0FFF763FA00F0A7F92046FFF7F2F886
:105720000028B3D00020CBE7FFF7ECF890B104F1EC
:1057300024000599FFF7B6FC2046FFF74FFA00F06A
:1057400093F90028A2D1C8F80070BFF34F8FBFF3C0
:105750006F8F9BE72046FFF741FA00F085F995E748
:1057600004ED00E02DE9F0410C46050011D0C4B174
:10577000FFF746FB174BDA686E682068911B471CE1
:1057800017D02F681B6A9F4219D0964217D8012460
:1057900010E0502080F31188BFF34F8FBFF36F8F5D
:1057A000FEE7502080F31188BFF34F8FBFF36F8F58
:1057B000FEE70024FFF744FB2046BDE8F081884265
:1057C00005D9401A20602846FFF75EFCF1E700206B
:1057D0002060DCE7500000202DE9FF5F8346DDE913
:1057E0000E87994616468A469000FFF72DFA050067
:1057F0001CD05C20FFF728FA040014D00020256399
:1058000084F85900CDE90240CDE900874B46324685
:1058100051465846FEF7DCFF2046FEF779FE012090
:1058200004B0BDE8F09F2846FFF71EFB4FF0FF30A5
:10583000F6E7F0B585B0DDE90B640A9DA6B1DCB1F1
:105840005C2700972663022684F85960002604AF7F
:10585000CDE90246CDE90057FEF7BAFF2046FEF734
:1058600057FE049805B0F0BD502080F31188BFF3B7
:105870004F8FBFF36F8FFEE7502080F31188BFF387
:105880004F8FBFF36F8FFEE70548416919B1006B79
:1058900018B10020704701207047022070470000B7
:1058A000500000200148C0687047000050000020F0
:1058B0002DE9F0412E4C0027206B28B1A069401C37
:1058C000A0613846BDE8F081E668761CE66013D139
:1058D000606B006838B1502080F31188BFF34F8FA0
:1058E000BFF36F8FFEE7606BA16B6163A063206AFB
:1058F000401C2062FFF7F2F8A06ADFF87880864249
:1059000009D3606B0068A0B1606BC068C568686847
:10591000864211D2A0622068C06A00EB800158F86C
:105920002100012800D90127E0690028C9D00127FA
:10593000C7E74FF0FF30EDE7281DFFF705FAA86A2B
:1059400018B105F11800FFF7FFF9E86A21698842EC
:1059500000D9206100EB800108EB8100291DFFF7D1
:1059600043FAE86A2168C96A8842CAD30127C8E7AE
:1059700050000020F805002070B504004FF0000131
:1059800033D01B4D2868844207D0502080F3118803
:10599000BFF34F8FBFF36F8FFEE7206D38B1401E0E
:1059A0002065E36CE26A9A421FD040B11DE05020AE
:1059B00080F31188BFF34F8FBFF36F8FFEE7201D79
:1059C000FFF7C2F9E06CE062C0F13800A061E06A64
:1059D0002969884200D92861064900EB800001EB63
:1059E0008000211DFFF700FA0121084670BD00006C
:1059F00050000020F805002070B5C068C46854B19C
:105A000004F118000646FFF79FF9144D286B50B1BA
:105A10003146134815E0502080F31188BFF34F8FB3
:105A2000BFF36F8FFEE7201DFFF78EF9E06A29694B
:105A3000884200D928610B4900EB800001EB80000F
:105A4000211DFFF7D1F9E06A2968C96A884202D9A5
:105A50000120E86170BD002070BD000050000020F2
:105A6000800A0020F80500202DE9F0472C4D002485
:105A70002746286B38B1FFF7C3F9286B401E28630F
:105A8000286B40B146E0502080F31188BFF34F8F60
:105A9000BFF36F8FFEE7A968224E0120D1B3A6F5B0
:105AA000916980463068E0B1F068C46804F118007C
:105AB000FFF74AF9201DFFF747F9E06A2969884294
:105AC00000D9286100EB800109EB8100211DFFF75F
:105AD0008BF9E06A2968C96A8842E3D3C5F81C805B
