:020000040800F2
:10000000A838002029020008472000086D1A0008BF
:100010004520000877080008693500080000000046
:100020000000000000000000000000009101000836
:100030007908000800000000D5010008F732000828
:10004000430200084302000843020008430200087C
:10005000430200084302000843020008430200086C
:10006000430200084302000843020008430200085C
:10007000430200084302000843020008430200084C
:10008000430200084302000843020008430200083C
:10009000430200084302000843020008430200082C
:1000A000430200084302000843020008430200081C
:1000B000430200084302000843020008430200080C
:1000C00043020008430200084302000843020008FC
:1000D00043020008430200084302000843020008EC
:1000E00043020008430200084302000800F002F83F
:1000F00000F03FF80AA090E8000C82448344AAF183
:100100000107DA4501D100F034F8AFF2090EBAE880
:100110000F0013F0010F18BFFB1A43F0010318473B
:100120003C5900005C590000103A24BF78C878C1DF
:10013000FAD8520724BF30C830C144BF04680C60ED
:10014000704700000023002400250026103A28BF35
:1001500078C1FBD8520728BF30C148BF0B60704739
:10016000642900F0C580002070471FB51FBD10B581
:1001700010BD00F04BFB1146FFF7F7FF03F00CFA40
:1001800000F069FB03B4FFF7F2FF03BC00F06CFB67
:10019000224B19680868B0E8F00F80F30988BFF3B4
:1001A0006F8F4FF0000080F311884EF00D0E7047F6
:1001B0000000000006480068006880F3088862B606
:1001C00061B6BFF34F8FBFF36F8F00DF00BF00BF7B
:1001D00008ED00E0EFF30980BFF36F8F0F4B1A6853
:1001E00020E9F00F106008B54FF0500080F311883F
:1001F000BFF34F8FBFF36F8F04F008F94FF000008B
:1002000080F31188BDE8084019680868B0E8F00F6D
:1002100080F30988BFF36F8F704700BF3C00002058
:10022000EFF3058070470000094880470948004700
:10023000FEE7FEE7FEE7FEE7FEE7FEE7FEE7FEE796
:10024000FEE7FEE704480549054A064B70470000F3
:100250008F330008ED000008A8320020A8380020E5
:10026000A8340020A83400200FB47CB50C0009AAE3
:10027000009001D02044401E084B7B446946019009
:10028000089800F04AFA05461CB10020694600F0C3
:1002900057FA28467CBC5DF814FB0000CD04000032
:1002A00070B5044685690068C10601D5302600E0B6
:1002B0002026C00707D070BDD4E901213046904701
:1002C000206A401C20626D1EF6D570BD70B50446D4
:1002D00085690078C00707D170BDD4E901212020CD
:1002E0009047206A401C20626D1EF6D570BD00004C
:1002F0002DE9F0410646002410687529314616A5FF
:1003000010D0AFF30080002802DA404213A507E0C6
:1003100031688A0701D512A502E0490704D511A565
:10032000012401E0AFF3008000210A2206F1240736
:1003300009E0B0FBF2FCB0FBF2F302FB1C00303032
:1003400078541846491C0028F3D123462A463046E3
:10035000BDE8F04100F083B9000000002D0000006E
:100360002B000000200000002DE9F05F89460446C4
:100370004FF0000ADFF874B1FB44C0F820A020461B
:10038000E1688847002874D0252806D0D4E90121E7
:100390009047206A401C2062F1E700265F46204615
:1003A000E16888472028054607DB312D05D27819FA
:1003B00010F8200C08B10643F1E7B00701D526F08C
:1003C0000406C4F81CA00027C4F818A02A2D09D0E0
:1003D000284603F0DAF838B304EB8708303DC8F854
:1003E000185019E059F8041B204604EB870291616C
:1003F000E1688847012F054618D1E069002820DA16
:1004000026F020061DE0D8F8180000EB800005EB70
:1004100040003038C8F818002046E1688847054693
:1004200003F0B3F80028EED1012F0AD02E2D08D109
:100430002046E16888477F1C0546022F46F02006CB
:10044000C4DBA069002803DA404246F00106A0613F
:10045000F00701D026F010066C2D0BD0682D09D0C6
:100460004C2D39D06A2D35D0742D35D07A2D33D01E
:1004700016E038E0E1682F4620468847B842054636
:1004800009D16C2F26D04FF48060E16806432046E6
:100490008847054604E06C2F1AD04FF4807006435D
:1004A0000DB3A5F14100192802D8203546F40066A5
:1004B0004A462946204626604E46FFF751FE80B147
:1004C00001280BD0F61D26F0070000F1080956E7B9
:1004D0004020E4E78020D8E70020D6E706F10409B1
:1004E0004DE7284652E7206ABDE8F09F8B56000092
:1004F000032A40F2308010F0030C00F0158011F850
:10050000013BBCF1020F624498BF11F801CB00F827
:10051000013B38BF11F8013BA2F1040298BF00F87B
:1005200001CB38BF00F8013B11F0030300F0158147
:10053000083AC0F0088051F8043B083A51F804CB5F
:10054000A0E80810F5E7121D5CBF51F8043B40F825
:10055000043BAFF30080D20724BF11F8013B11F830
:1005600001CB48BF11F8012B24BF00F8013B00F874
:1005700001CB48BF00F8012B704702F0FF0343EAAC
:10058000032242EA024200F01CB94FF0000200B51B
:10059000134694469646203922BFA0E80C50A0E8A6
:1005A0000C50B1F12001BFF4F7AF090728BFA0E854
:1005B0000C5048BF0CC05DF804EB890028BF40F820
:1005C000042B08BF704748BF20F8022B11F0804F62
:1005D00018BF00F8012B70474FF0013C50F8042B76
:1005E00051F8043B9A4221D1A2EB0C03934313EA46
:1005F000CC1317D150F8042B51F8043B9A4215D173
:10060000A2EB0C03934313EACC130BD150F8042B49
:1006100051F8043B9A4209D1A2EB0C03934313EA2D
:10062000CC13DBD04FF00000704700BFD01A01BAE6
:10063000B1FA81F101F0180122FA01F0CB40C1F1C9
:100640002001DBB2C0B2C01A2CFA01F3D11A9143D7
:1006500011EAC311E6D170477047704770472DE922
:10066000F0470D4699469246044600F12408016879
:10067000880604D5E06921F01001216000E0012026
:10068000A84201DD471B00E00027A1697A1902EBAF
:100690000900081AA0612078C00602D42046FFF79E
:1006A000FFFD002608E0D4E901211AF80600904772
:1006B000206A401C761C20624E45F4DB2078C00680
:1006C0000AD52046FFF7ECFD06E0D4E901213020F1
:1006D0009047206A401C2062381EA7F10107F4DC15
:1006E00007E0D4E9012118F805009047206A401C72
:1006F0002062281EA5F10105F3DC2046FFF7E6FD88
:100700002078000602D50220BDE8F0870120FBE733
:1007100001694A1C02610878704700B58FB0CDE9C5
:1007200001310021059105497944CDE903101146B5
:100730006846FFF719FE0FB000BD0000E5FFFFFFA0
:100740000A6802F8010B0A607047D1E900239A4257
:1007500002D2531C0B601070704710B5203AC0F0E5
:100760000B80B1E81850203AA0E81850B1E81850B2
:10077000A0E81850BFF4F5AF5FEA027C24BFB1E8EF
:100780001850A0E8185044BF18C918C0BDE8104060
:100790005FEA827C24BF51F8043B40F8043B08BF69
:1007A0007047D20728BF31F8023B48BF11F8012B30
:1007B00028BF20F8023B48BF00F8012B70474FF0DC
:1007C00000020429C0F0128010F0030C3FF4DFAEE9
:1007D000CCF1040CBCF1020F18BF00F8012BA8BF2C
:1007E00020F8022BA1EB0C01FFF7D1BE5FEAC17C20
:1007F00024BF00F8012B00F8012B48BF00F8012BA3
:100800007047000000487047483200207546FFF7E7
:10081000F9FFAE4605006946534620F007008546BD
:1008200018B020B5FFF70EFDBDE820404FF00006E0
:100830004FF000074FF000084FF0000B21F00701C8
:10084000AC46ACE8C009ACE8C009ACE8C009ACE80B
:10085000C0098D46704710B50446AFF300802046AE
:10086000BDE81040FFF78EBC01491820ABBEFEE783
:10087000260002007047FEE7704772B6FEE70000F0
:100880002DE9F84FDFF8B8910024A9F1040B2346B5
:100890000F2709F1040AABF1040EC9E00125A540B8
:1008A0002A40AA427DD1674ED1F804C0ACEB0608BD
:1008B000B44532D014DCBCF1030F3AD009DCBCF1F2
:1008C000000F2AD0BCF1010F1CD0BCF1020F31D1B6
:1008D0001DE0BCF1110F17D0BCF1120F2AD119E0A5
:1008E000B8F5881F19D006DCB8F5803F15D0B8F5EB
:1008F000801F1FD111E0B8F5001F0ED0B8F5041FFE
:1009000018D10AE0CB6815E0CB681B1D12E0CB685C
:1009100008330FE0CB680C330CE08B682BB1012B54
:100920004FF0080303D0456104E0042302E00561B1
:1009300000E00023FF2A01D8064601E000F104068A
:100940004FEA840501D9A5F12005D6F8008007FA01
:1009500005FC28EA0C0803FA05F548EA0508C6F87C
:1009600000804D68ED0062D5374DAE6946F0010656
:10097000AE61AD6924F0030605F001050095334D25
:1009800006EB050CDCF80850A607360F07FA06F848
:1009900025EA0805DFF8B880404503D14FF000088C
:1009A00017E044E0DFF8AC80404502D14FF0010889
:1009B0000FE0DFF8A480404502D14FF0020808E0C4
:1009C000DFF89880404502D14FF0030801E04FF076
:1009D000040808FA06F848EA0508CCF808804D68CB
:1009E000D9F80060ED024D4601D5164300E096436C
:1009F0002E604D68DAF80060AD02554601D5164309
:100A000000E096432E604D68DBF80060AD035D4664
:100A100001D5164300E096432E604D68DEF8006075
:100A2000ED03754601D5164300E096432E60641C25
:100A30000D682A46E5407FF431AFBDE8F88F00002D
:100A400008040140000011100010024000000140A5
:100A500000080140000C014000100140001401405A
:100A60008068084000D0012070470AB101617047DA
:100A70000904FBE701488068704700002800002057
:100A80000248816802781144816070472800002084
:100A9000074810B5016841F010010160032000F023
:100AA0006DF80F2000F006F800F024F8002010BDCB
:100AB0000020024070B50D4D04464FF47A7128783D
:100AC000B1FBF0F00A490968B1FBF0F000F06FFDEE
:100AD00048B9102C07D200222146501E00F02EF8F3
:100AE00000206C6070BD012070BD00002800002057
:100AF000340000200F4808B5816941F0010181618F
:100B0000816901F001010091C16941F08051C16129
:100B1000C069002200F0805000900F21901E00F06C
:100B20000DF80548416821F0E06141F00071416035
:100B300008BD00000010024000000140F0B40E4B60
:100B40001B680C46C3F30223C3F10705042D00D92B
:100B50000425191D072901D2002300E0DB1E012610
:100B600006FA05F1491E214099409E40761E164026
:100B70003143F0BC02F0F9BC0CED00E0064900F096
:100B8000070208684FF6FF03184040EA0220034AB4
:100B900010430860704700000CED00E00000FA050B
:100BA000014901200862704700000E4210B501465D
:100BB0000020234C012922D0022939D010291DD12F
:100BC00061682268D20119D51E48C1F38342C90366
:100BD000805C0AD561681B4AC1F34041921E515C9A
:100BE000194AB2FBF1F1484301E0184948436168F2
:100BF000490203D440000321B0FBF1F010BD226A8A
:100C0000C2F30121012903D1920701D5C80310BD08
:100C1000022905D1626A920702D549F6404010BD0B
:100C20000329FCD121688903F9D54FF2244010BD76
:100C300000F01AF96168C1F38131491C4900DBE712
:100C400000100240AC4E000800127A0000093D007E
:100C50002DE9F84305460078354CC00754D0E069CB
:100C60000026C00008D4E06940F08050E061E069EF
:100C7000012600F0805000902E480168C90512D46A
:100C80000168804641F480710160FFF7F3FE07467A
:100C900005E000BFFFF7EEFEC01B642823D8D8F89C
:100CA0000000C005F6D5206A10F4407021D0A98854
:100CB00001F4407181421CD0206A1F49012220F4B6
:100CC00040700A6000220A602062C00711D0FFF75E
:100CD000D1FE074641F2883808E000BFFFF7CAFEA0
:100CE000C11B414502D90320BDE8F883206A800773
:100CF000F4D5206A696820F44070084320621EB170
:100D0000E06920F08050E0612878800705D56068B0
:100D1000A96820F44040084360602878C00605D5E3
:100D20006068E96820F48000084360600020DBE729
:100D30000010024000700040400442422DE9F0479C
:100D40000F46050061D0434E306800F00700B842FE
:100D500009D2306820F0070038433060306800F076
:100D60000700B84251D128683B4C810712D5400793
:100D700003D5606840F4E06060602878000703D520
:100D8000606840F4605060606068A96820F0F0001E
:100D9000084360602878C00728D06868012810D010
:100DA0002168022810D0890700292EDA616821F015
:100DB000030101436160FFF75DFE804641F288391F
:100DC0000DE021688903EFE78901EDE7FFF752FEA7
:100DD000A0EB0801494502D90320BDE8F08760680F
:100DE000696800F00C00B0EB810FEFD1306800F0C3
:100DF0000700B8420BD9306820F007003843306054
:100E0000306800F00700B84201D00120E5E72878FB
:100E1000400705D56068E96820F4E0600843606039
:100E20002878000706D56068296920F4605040EAF8
:100E3000C100606000F028F86168084AC1F303113E
:100E4000515CC8400649086006480068FFF732FE5A
:100E50000020C2E70020024000100240BC4E000803
:100E6000340000202C00002004480549006849682F
:100E7000044AC1F3C221515CC840704734000020CD
:100E800000100240CC4E00080E4A51680E4801F096
:100E90000C03042B11D0082B0FD10C48C1F3834352
:100EA000C903C05C0AD55168084AC1F34041921E8B
:100EB000515C054A5043B0FBF1F070470449484388
:100EC000704700000010024000127A009A4E00089D
:100ED00000093D002DE9F84F040070D02078C04D86
:100EE000C00749D06868C0F38100012807D068684E
:100EF000C0F38100022809D16868C00306D52868BC
:100F0000800339D560680028E7D035E06068B0F527
:100F1000803F0BD010B1B0F5A02F11D0286820F47D
:100F200080302860286820F4802002E0286840F49F
:100F300080302860606890B1FFF79CFD06460AE0AB
:100F4000286840F480202860F0E700BFFFF792FD9A
:100F5000801B642873D828688003F7D50CE0FFF75E
:100F600089FD064605E000BFFFF784FD801B64286D
:100F7000F0D828688003F7D420789A4E80074FF085
:100F800001094FF0000839D5686810F00C0F07D040
:100F90006868C0F38100022809D16868C00306D4DC
:100FA0002868800714D52069012808D110E020693D
:100FB000B0B1C6F80090FFF75DFD074605E00AE115
:100FC000FFF758FDC01B0228C4D828688007F7D552
:100FD0002868616920F0F80040EAC10028600DE04F
:100FE000C6F80080FFF746FD074604E0FFF742FD24
:100FF000C01B022823D828688007F7D42078000770
:101000002CD57948A169D9B1C0F80090FFF732FD1D
:10101000074604E0FFF72EFDC01B02280FD8686AC0
:101020008007F7D571484FF4FA510068B0FBF1F032
:10103000009000BF0098411E0091FAD20EE080E0BF
:10104000C0F80080FFF716FD074604E0FFF712FD29
:10105000C01B022875D8686A8007F7D4207840073B
:1010600060D5E8690027C00008D4E86940F08050E6
:10107000E861E869012700F0805000905C48016851
:10108000C90513D40168834641F480710160FFF7FC
:10109000F1FC824606E000BFFFF7ECFCA0EB0A0083
:1010A00064284ED8DBF80000C005F5D5E0680128BB
:1010B0000AD008B1052813D0286A20F00100286260
:1010C000286A20F0040002E0286A40F0010028624B
:1010D000E06841F2883B98B1FFF7CCFC82460BE018
:1010E000286A40F004002862EEE700BFFFF7C2FC68
:1010F000A0EB0A0159455AD8286A8007F6D50CE0BA
:10110000FFF7B8FC824605E0FFF7B4FCA0EB0A014C
:1011100059454CD8286A8007F6D41FB1E86920F0F9
:101120008050E861E06988B36968C1F381010229F0
:1011300044D00228C6F8608004D0FFF79BFC044628
:1011400038E034E0FFF796FC074604E0FFF792FC36
:10115000C01B02282BD828688001F7D4206AB0F57C
:10116000803F05D16868A16820F4003008436860BA
:10117000D4E908010843696821F4741108436860E0
:10118000C6F86090FFF776FC044606E025E000BF55
:10119000FFF770FC001B022809D828688001F7D5EA
:1011A0001BE000BFFFF766FC001B022802D90320EA
:1011B000BDE8F88F28688001F4D40EE00128F7D04C
:1011C0006868226A00F48031914204D1616A00F4B7
:1011D0007010884201D00120EAE70020E8E7000013
:1011E00000100240000042428004424234000020CD
:1011F00000700040024850F8210080B270470000A3
:10120000006C0040024800EB810091B20160704721
:10121000006C0040F8B505004FF0000016460C4683
:10122000009006D02CB100226946284600F019F83B
:1012300008B10120F8BD287B2070E87BE070697B55
:101240006170A97BA17056B101F04EFFE07060782B
:1012500001F04AFF6070A07801F046FFA070002006
:10126000F8BD2DE9F04791460C465FEA00084AD0E8
:1012700084B3D8F800004068400744D4404601F0E9
:10128000D1FF4FF461620546B0FBF2F1B0FBF2F31F
:1012900002FB13503C23B0FBF3F0B5FBF2F6607099
:1012A00002FB1650B0FBF3F203FB1200A0701829EA
:1012B00031D31820B1FBF0F7B1FBF0F200FB1210B4
:1012C0002070404601F0A7FF411C04D0A84202D97B
:1012D000461B02E017E04FF0FF36A7EB071000EBCC
:1012E0004000C0EB001005EBC0152946404601F058
:1012F000E8FF40B9701C01D0711900E0314640464A
:1013000001F0CBFF10B10120BDE8F087394640461F
:1013100001F0F5FE00E02170B9F1000F0BD020784C
:1013200001F0E2FE2070607801F0DEFE6070A078CF
:1013300001F0DAFEA0700020E6E7000070B50400BE
:1013400003D0607C002610B105E0012070BD26743A
:10135000204600F03DF802206074204600F00AF9B3
:10136000042550BB204601F021FF30BB20684168B6
:1013700021F007014160A06820B11448016821F004
:10138000010101601148001F0168A26821F4607129
:10139000114301606068411C04D10120FFF706FC85
:1013A00058B1401E2268C0F303419160216880B2A9
:1013B000C860204601F014FF08B16574C5E7E67304
:1013C00001206073A0736074002070BD306C004019
:1013D00008B50068084988420DD1FFF7E1FB0748CE
:1013E000C16941F00061C161C069054900F0006058
:1013F00000900120086008BD002800400010024055
:101400003C0442422DE9F0410D4604003BD0C5B3F7
:10141000207C01283AD04FF0010884F81080022087
:101420006074E87872B301F056FEE073687801F0FA
:1014300052FE6073A87801F04EFEA073C2B2617BC9
:10144000E07B01F0FFFE20732870204601F0EAFEE9
:101450004FF46161B0FBF1F1002518292DD9182254
:10146000B1FBF2F1A1EB011101EB4101C1EB011163
:1014700000EBC1163146204601F023FF0427C8B90E
:101480000BE000E004E00120BDE8F0810220FBE772
:10149000E07368786073A878CFE7204601F0BBFE60
:1014A000411C0AD0B04208D206490144204601F04E
:1014B000F4FE10B167742574E5E784F81180257493
:1014C0000020E1E7805101002DE9F0410D460400C4
:1014D00024D01DB3207C012823D04FF0010884F8CC
:1014E0001080022060742878EAB101F0F4FD4FF416
:1014F000616100FB01F6687801F0EDFDC0EB0010C2
:1015000006EB8006A87801F0E6FD3518294620464E
:1015100001F0D7FE0026042710BB0FE00120BDE834
:10152000F0810220FBE74FF4616148436978C1EB29
:10153000011100EB8100A9784518E7E720684168B0
:1015400021F005014160204601F065FE411C0AD0F2
:10155000A84208D206490144204601F09EFE10B17F
:1015600067742674DAE784F8118026740020D6E7C1
:101570008051010070B504000AD02068416821F054
:1015800008014160FFF776FA05464FF47A7608E0E5
:10159000012070BDFFF76EFA401BB04201D9032055
:1015A00070BD206840680007F4D5002070BD10B5FC
:1015B000401EB0F1807F01D3012010BD4FF0E02428
:1015C00060610F21601701F0D0FF0020A0610720AB
:1015D0002061002010BD000070B590F83C20012A69
:1015E00026D0012480F83C40022280F83D20036888
:1015F0005A689D6822F070060A6832435A600D4BA3
:1016000002689A4208D0B2F1804F05D00A4B9A4244
:1016100002D00A4B9A4204D1496825F0800319434D
:10162000916080F83D40002180F83C10084670BD74
:10163000022070BD002C0140000400400008004062
:101640002DE9F0410D46040003D094F83D0018B197
:1016500008E00120BDE8F081002084F83C0020462D
:1016600000F040F8022084F83D002068816844F2D0
:10167000070291438160211D206801F089FE2268E4
:1016800090689169166A2B68AF69034340F2033092
:10169000814341EA0721A868EF6908434FF6FC41FE
:1016A0008843E96840EA0720014328692F6A00015E
:1016B00040EA0730084369686D6926F0220646EA69
:1016C0000515294393602268906154F8460B016226
:1016D000012004F81F09E0752076E0762077A075D8
:1016E0000020B7E710B586B000240094019402945E
:1016F00003940068B0F1804F30D11948C16941F0BE
:101700000101C161C16901F001010491816941F0E8
:1017100004018161816901F004010491816941F052
:10172000080181618069694600F0080004904FF467
:10173000004000900B48FFF7A3F80820CDE9000413
:10174000694609480294FFF79BF80849486820F465
:10175000407040F0E06040F48070486006B010BD1A
:101760000010024000080140000C01400000014050
:1017700070B590F83E60044690F83F5090F84230C3
:1017800090F84320022021B104290ED0012E1BD154
:1017900014E0012E18D1012B16D184F83E0084F8F4
:1017A000420001220021206820E0012D0CD1012AF5
:1017B0000AD184F83F0084F8430014E0012D03D1DE
:1017C000012B01D1012A01D0012070BD84F83E0017
:1017D00084F83F0084F8420084F84300012200218D
:1017E000206801F011FE01220421206801F00CFEA6
:1017F0002068016841F001010160002070BD000017
:1018000010B586B00021009101910291039100680A
:101810001649884228D11648416821F4406141F0B8
:10182000E06141601348816941F00401816181698F
:1018300001F004010491816941F00801816180692E
:10184000022400F008000490C020CDE9000469469D
:1018500009480394FFF714F80320CDE90004694612
:1018600006480394FFF70CF806B010BD00040040D2
:10187000000001400010024000080140000C01403F
:1018800070B5044690F83C0000260D4601280FD0A4
:10189000012084F83C006AB1042A1DD0082A2FD008
:1018A0000C2A3FD00126002084F83C00304670BD51
:1018B000022070BD206801F0B5FD2068816941F00B
:1018C000080181612068816921F00401816120683B
:1018D00081692A69114311E0206801F0CBFD20687D
:1018E000816941F4006181612068816921F480612E
:1018F0008161206881692A6941EA02218161D2E718
:10190000206801F0E3FD2068C16941F00801C16170
:101910002068C16921F00401C1612068C1692A6998
:10192000114311E0206801F0FDFD2068C16941F418
:101930000061C1612068C16921F48061C1612068D2
:10194000C1692A6941EA0221C161ACE710B504000E
:1019500003D094F83D0010B107E0012010BD002035
:1019600084F83C00204600F01FF8022084F83D0077
:10197000211D206801F00CFD012084F8460084F848
:101980003E0084F83F0084F8400084F8410084F869
:10199000420084F8430084F8440084F8450084F849
:1019A0003D00002010BD000008B5006806498842CF
:1019B00008D10648C16941F00201C161C06900F067
:1019C0000200009008BD000000040040001002402A
:1019D00010B50446022249B104290ED0082913D0BB
:1019E00094F84100012816D0012010BD94F83E0063
:1019F0000128F9D184F83E200FE094F83F00012837
:101A0000F2D184F83F2008E094F840000128EBD19F
:101A100084F8402001E084F841200122206801F090
:101A2000F3FC0F492068884203D1426C42F4004223
:101A300042642068884208D0B0F1804F05D009493F
:101A4000884202D00849884204D1816801F0070128
:101A5000062903D0016841F001010160002010BD9A
:101A6000002C01400004004000080040FEE7000098
:101A700010B50F4C01212046FEF7F2FF80B1022184
:101A80002046FEF7EDFF68B104212046FEF7E8FF8F
:101A900050B108212046FEF7E3FF38B1002010BD09
:101AA000012010BD022010BD032010BD042010BD78
:101AB0000008014008B500248DF800402546174E67
:101AC00000F06CFA00F042FA002806D002DD4FF078
:101AD000010001E04FF0FF30B08000F02FFA08B1B4
:101AE0000120B070FEF7C6FF401B142811D3FEF78B
:101AF000C1FF05468DF80040FFF7BAFF040008D18A
:101B00009DF8000028B100231A466946F06802F0EB
:101B1000B1FD022001F080FDD2E7000008000020A6
:101B20000B4800F019F808B900F026F8094DAC1D73
:101B3000E87818B164221146104602E0A278617874
:101B4000207800F033F81E2001F066FDF0E7000079
:101B5000180100200800002000B540B1054900220E
:101B600008601146104600F021F8002000BD012059
:101B700000BD00003800002010B50B4C206880B17B
:101B80000421FFF725FF00280CD108212068FFF76A
:101B90001FFF002806D12068BDE810400C21FFF788
:101BA00017BF012010BD00003800002030B50C46E2
:101BB00001461546002000F00BF82146012000F0F8
:101BC00007F82946BDE83040022000F001B80000C7
:101BD000084A1268002A0BD0642900D964211268CF
:101BE000D26A4A436421B2FBF1F189B200F004B831
:101BF0007047000038000020104A1368002B12D0F4
:101C0000032810D280B1012810D002280BD10C2259
:101C10001868C36A994200D999B24AB1042A09D016
:101C2000082A09D0016470470422F1E70822EFE78F
:101C30004163704781637047C1637047380000207B
:101C40007CB500F058FB012106231CA2084600F0D9
:101C500085FC01F0F3F9002201210A2002F072FC58
:101C60001A4CE0601A4800F079F91A4A00211A4823
:101C700001F00EFDE061202004F11001C500CDE966
:101C8000000100232A4615A1164802F0D9FE04F1EE
:101C900018000824CDE9004000232A4612A1144868
:101CA00002F0CEFE094800231430CDE90040A20125
:101CB00010A1134802F0C4FE7CBD00004F53204C1D
:101CC0006F6164696E672E2E2E00000008000020F0
:101CD000D0000020644E0008EB3200084B657954B8
:101CE00061736B00B51A00084C45445461736B0076
:101CF000211B00084F4C45445461736B00000000E9
:101D0000C9260008F0B585B0002424480094019449
:101D100002940394816941F010018161816901F0AD
:101D200010010491816941F020018161816901F014
:101D300020010491816941F004018161816901F010
:101D400004010491816941F0080181618069144FA7
:101D500000F008004FF440760490002231463846E7
:101D6000FEF783FE0F2001258DE8310069460D48FE
:101D7000FEF786FD28038DE8310069463846FEF7F8
:101D80007FFD11200096CDE90105032003906946EF
:101D90003846FEF775FD05B0F0BD000000100240AA
:101DA000000C0140000801407CB500241E4801944D
:101DB0001C4900940160611E41604FF48071816094
:101DC000FFF7BCFA08B1FEF758FD01211648FFF7EE
:101DD00011FA43F2F225A84223D08DF804408DF881
:101DE00005408DF80640012201A90F48FFF76CFB62
:101DF00008B1FEF742FD01208DF800008DF80100CA
:101E00008DF8020002468DF8034069460648FFF748
:101E1000F9FA08B1FEF731FD2A4601210248FFF721
:101E2000F1F97CBD00280040BC00002010B58CB04A
:101E300024216846FEF7A9FB0024164809944FF0B8
:101E400080410A94C0E900144FF6FF71C0E90241D5
:101E50008021046181610120CDE900040C21CDE9DC
:101E600002040491CDE905400794694609480894A5
:101E7000FFF7E6FB08B1FEF700FD099409A9054844
:101E80000A94FFF7A9FB002801D0FEF7F6FC0CB07E
:101E900010BD0000D000002010B58AB000240794C7
:101EA0001C2168460894FEF770FB23482149016015
:101EB0004721C0E9011440F2E731C0E90314802151
:101EC0008161FFF743FD08B1FEF7D7FC079407A92E
:101ED00019480894FFF780FB08B1FEF7CEFC60209C
:101EE000CDE9000402940022694613480494FFF7E8
:101EF000C7FC08B1FEF7C1FC042269460E48FFF793
:101F0000BFFC08B1FEF7B9FC082269460A48FFF792
:101F1000B7FC08B1FEF7B1FC0C2269460648FFF792
:101F2000AFFC08B1FEF7A9FC0348FFF769FC0AB053
:101F300010BD0000000400401801002002490022EA
:101F4000087B0A73704700006005002002490022E8
:101F5000B1F908000A8170476005002010B500281B
:101F600019D00D4C20600020E0802081207300F00B
:101F70005DF8E072A0726073FEF77CFD20613C2189
:101F80002068FFF7F5FB206847F6FF710268516291
:101F90000068406AA08010BD6005002070B5224C2A
:101FA000206800283ED00068416AA088A180081AF5
:101FB00000B200F10801112900D30020E188081ABD
:101FC000E08004E0801EE0802089401C2081B4F97C
:101FD00006000228F6DA6FF0010100BFB4F906002E
:101FE000884205DC801CE0802089401E2081F5E7C6
:101FF00000F01CF80546FEF73DFD0146E07AA842D8
:1020000001D0E57221612069081A0A280AD3A07A52
:10201000A84207D0A572617B814203D18D4201D0D5
:102020000120207370BD00006005002010B54FF442
:1020300080510348FEF714FD012800D0002010BD98
:10204000000C0140FEE7FEE710B50021074C0A46F0
:10205000002004EBC1131A54401CC0B28028FAD3EC
:10206000491CC9B20829F3D310BD0000600100204B
:10207000F0B50B4424E0044685181DE07F2C19D8E8
:10208000002917DB3F2915DCCE1701EB56764FEA06
:10209000E60C0D4F26F0070607EBCC172744A1EB03
:1020A000060E97F800C0012606FA0EF62CEA060C7A
:1020B00087F800C0641C24B2A542DFDC491C09B2C9
:1020C0008B42D8DCF0BD0000600100202DE9F04F0C
:1020D0001E464FF0000904460D461746C846B14259
:1020E0000ED1BC4208DD2746144605E029462046AD
:1020F00000F062F8641C24B2BC42F7DDBDE8F08F4A
:10210000BC420DD1B54208DD1D460E4605E029460C
:10211000204600F051F86D1C2DB2B542F7DDEDE719
:1021200003DD274614461D460E46B54205DD6842CE
:1021300005B2704206B24FF00109701B391B88428C
:1021400007DD20462C4605463846374606464FF002
:102150000108701B4200391B0FFA82FB421A520021
:102160000FFA82FAC1EB400019E0604201B203E0CD
:10217000684201B203E02146284601E02946204694
:1021800000F01AF8BC42B9DA641C24B2002E02DA5C
:1021900006EB0B0003E06D1C2DB206EB0A0006B245
:1021A000B9F1000F03D0B8F1000FE1D0DDE7B8F1CD
:1021B000000FE3D0DFE7000010B57F2813D8002917
:1021C00011DB3F290FDCCA1701EB5272D410064B0A
:1021D00022F0070203EBC41318448A1A0378012182
:1021E00091400B43037010BD600100202DE9F043C6
:1021F0000446CD1807988846A618274668BB681E6F
:102200000FFA80F909E041463846FFF7D5FF494605
:102210003846FFF7D1FF7F1C3FB2BE42F3DC761E8B
:10222000474636B209E039462046FFF7C5FF30463B
:102230003946FFF7C1FF7F1C3FB2BD42F3DCBDE86A
:10224000F083444605E021463846FFF7B5FF641C9D
:1022500024B2A542F7DC7F1C3FB2BE42F1DCEEE7C0
:1022600010B500204FF47A720021491C9142FCD332
:10227000401C9042F8D3012000F0F4FEBDE810406D
:10228000012000F0F7BE70B500240646802525FA2F
:1022900004F0304000D0012000F0ECFE012000F0FE
:1022A000E1FE002000F0DEFE641CE4B2082CEED358
:1022B000012000F0D7FEBDE87040002000F0D2BE43
:1022C00010B5012000F0D6FE012000F0CBFE00206A
:1022D00000F0D0FEBDE81040002000F0C3BE10B5F5
:1022E000002000F0C7FE012000F0BCFEBDE8104059
:1022F000012000F0BFBE10B5FFF7B2FFAE2000F026
:10230000C1FED52000F0BEFE802000F0BBFEA8205C
:1023100000F0B8FE3F2000F0B5FED32000F0B2FE82
:10232000002000F0AFFE402000F0ACFEA12000F045
:10233000A9FEC82000F0A6FEDA2000F0A3FE1220BD
:1023400000F0A0FE812000F09DFECF2000F09AFE5C
:10235000D92000F097FEF12000F094FEDB2000F081
:1023600091FE302000F08EFEA42000F08BFEA6200F
:1023700000F088FE8D2000F085FE142000F082FE23
:10238000AF2000F07FFEFFF75FFEBDE8104000F0D9
:1023900055BE0246012000E05043491EFCD2704762
:1023A000F0B50B4423E0044685181CE07F2C18D8B8
:1023B000002916DB3F2914DCCE1701EB567C4FEACF
:1023C000EC070C4E2CF0070C06EBC7162644A1EBCD
:1023D0000C0E37784FF0010C0CFA0EFC87EA0C0754
:1023E0003770641C24B2A542E0DC491C09B28B4260
:1023F000D9DCF0BD6001002010B50C4640F0B00003
:1024000000F040FE102040EA141000F03BFE04F003
:102410000F00BDE8104000F035BE000008B5082BE5
:102420000DD0062B0AD10A4B02EB420203EB42020B
:10243000C03A00920823062200F00EF808BD054BB2
:1024400003EB0212A2F50072102300920822F3E7B8
:10245000C4540008D44E00082DE9F04F1F4616461C
:102460000D4682460024FFF703FE7F1EF81707EB98
:1024700050700121DFF898B001EBE00743E0002045
:102480003DE000BF0AEB00037F2B36D8E91705EBD0
:102490005171CA1021F00701691A002D03DA521E8A
:1024A000083112B209B202EB0409B9F1070F0ED8D4
:1024B000099A04FB06F802440BEBC91E18F8022027
:1024C0001EF803C08A404CEA020C0EF803C009F162
:1024D0000102072A11D80BEBC91202EB0308099A73
:1024E00004FB06FC024498F880301CF80220C1F17D
:1024F0000801CA40134388F88030401CC0B2B04283
:10250000C0D3641CE4B2A742B9DCBDE8F08F000080
:10251000600100202DE9F04700241D4690468A46C0
:1025200081460A27089E14E0291B0A20491EFFF74E
:1025300030FFB8FBF0F0B0FBF7F107FB110204FB32
:10254000069000B2334651463032FFF767FF641CF5
:10255000E4B2AC42E8D3BDE8F08700002DE9FF4FBC
:10256000002483B09B4690462546A246DFF8509152
:102570009EE0100610D403988DF80420641C2844B3
:10258000A4B28DF805A000B25B460499FFF746FFA0
:1025900005EB0B0085B28BE00620B0EB521F0ED18D
:1025A000641CA0B28DF8042018F80010002974D023
:1025B0008DF80510401C84B28DF806A03CE00E207A
:1025C000B0EB121F16D1641CA0B28DF8042018F8CD
:1025D0000010002971D0401C80B28DF8051018F849
:1025E0000010002969D08DF80610401C84B28DF8C7
:1025F00007A021E01E20B0EBD20F1FD1641CA0B2B7
:102600008DF8042018F80010002956D0401C80B224
:102610008DF8051018F8001000294ED0401C80B22B
:102620008DF8061018F80010002946D0401C8DF8CF
:10263000071084B28DF808A0002609E0641CA4B23B
:1026400036E0384601A9FDF7C7FF68B1761CB6B27F
:1026500006EB860000EB461101EB0900074619A1C5
:10266000FDF7BAFF0028ECD1BBF1080F03D0BBF196
:10267000060F1DD112E006EB860000EB461101EBC0
:102680000900401D009003981023284400B21A4608
:102690000499FFF7E1FE103509E00EE003980623E8
:1026A000284400B23F220499FFF7B8FEAD1DADB239
:1026B00018F80420002A7FF45CAF07B0BDE8F08F63
:1026C000FE56000800000000A6B0F74A002702F1FD
:1026D0002C004FF00E081BC80C931C91CDE915047B
:1026E000D2E900011797CDE90D0718970120099746
:1026F00004900390FF202290162008901B970A97C1
:1027000000201A97079714910697CDF814804FF080
:10271000010A8346209002F0F9F9239000258DF8F4
:102720007450142123A801F09DFDE04CB4F904601D
:10273000A58000221DA9E06802F0ACF8012802D1B2
:102740009DF874002070FEF795F9A0EB0B00B0F532
:10275000FA7F07D3FEF78EF98346BAF1000F2CD02B
:10276000002082465FB3012F7ED0032F7DD09DF8DD
:102770007400022F7AD0012879D0A07850B1A570CA
:102780000E98002874D000204FF0010A0E90FEF73A
:1027900071F98346002E6CD00E9800286AD01798E5
:1027A000002868D0012867D0022866D003287DD091
:1027B00004287CD003983044F6E20120D1E7002EB3
:1027C00009DD607800F10100607094F901000428CF
:1027D00007DB657005E004DA607880B16078401E40
:1027E0006070A078B0B360782290A570142020901B
:1027F0006078012805D06078022806D02AE00320FE
:10280000EEE7002001271A9024E0002221A9A84821
:10281000FEF727FD00221EA9A548FEF7FBFC9DF848
:10282000840006909DF8850009909DF886000A9026
:102830009DF87B0007909DF8790004909DF87A0040
:102840000390002017904FF0010A0E90FEF712F946
:102850008346042794F9010000EB40010E2000EBB1
:102860008100A0EB080009E060E0BAE0D7E018E2E0
:102870003CE246E23CE24BE259E267E200B2022867
:1028800001DD022004E06FF00101884200DA084611
:1028900040440FFA80F8FFF7D7FB0021062385A2FA
:1028A0000846FFF75BFE0A237F2201E05DE26BE250
:1028B00019460020FFF70AFC06230E211846159A38
:1028C000FFF74CFE06231A2118461C9AFFF746FE16
:1028D0000623262118460C9AFFF740FE06233221D4
:1028E0001846169AFFF73AFEA8F1010001B20A2332
:1028F00080220020FFF754FD2298FF2815D0209851
:102900000028FBD006236FA200214C20FFF726FEF3
:102910000620229A0090012300216A20521CFFF712
:10292000F9FD2098401EC0B220907CE39DF8740011
:1029300001280CD01A9800EB4001162000EB810012
:102940000899401A00B2022803DD022006E00027A1
:10295000E4E66FF00101884200DA08460899002E8B
:10296000084400B2089008DD1A9800F10100C0B2D6
:102970001A90022807D3002004E004DA1A9848B31A
:10298000401EC0B21A90A07818B1A5701A9818B35A
:102990000327FFF759FB002106234CA20846FFF747
:1029A000DDFD0A237F2219460020FFF78FFB062357
:1029B000162108200D9AFFF7D1FD062322210820B9
:1029C000149AFFF7CBFD08980923401E802201B21C
:1029D000002026E30120D5E70020189002271B9055
:1029E000D7E79DF87400012800D10127FFF72CFBE1
:1029F0000021062338A20846FFF7B0FD0A237F22F4
:102A000019460020FFF762FB062336A21C2108208E
:102A1000FFF7A4FD0623382134A200203EE101285F
:102A20000CD0189800EB40010E2000EB81000599B6
:102A3000401A00B2022805DD022008E0002001272C
:102A40001B906BE66FF00101884200DA0846059999
:102A5000084400B20590A07880B1A57018980028AD
:102A6000E07801D030B109E010B10020E07003E05F
:102A70000120FBE71B9820B100201B90E07810B1EB
:102A800055E00120F9E71B98B0B3B6B30748189991
:102A9000801D014411F8010C06EB8602104400B2BF
:102AA00000283FDA002040E05C4E000808000020CB
:102AB000BC000020536D61727420486F6D65204D1D
:102AC000656E75004F50454E3A0000004C696768CE
:102AD00074204D656E75000052474220436F6E743E
:102AE000726F6C00544F444F000000004B45593149
:102AF000204261636B00000000E010E0002E08DD62
:102B0000189800F10100C0B2189003280FD90020D6
:102B100004E00CDA189818B1401EC0B2189006E014
:102B20000320FBE7642800DD642001F8010CFE4A65
:102B3000107851789278E37813B1642002461146F8
:102B40008DF890008DF891108DF89220FFF77CFAA7
:102B500000210623F5A20846FFF700FD0A237F2285
:102B600019460020FFF7B2FA0623F3A20E21002037
:102B7000FFF7F4FCE07808B1F1A200E0F2A206232E
:102B80000E212420FFF7EAFC1B9828B11898012891
:102B900002D1BAF1000F0BD00623EDA21A210020BA
:102BA000FFF7DCFC1B9868B11898022807D009E0F1
:102BB0000623E9A21A210020FFF7D0FC02E0BAF1B7
:102BC000000F0BD00623E6A226210020FFF7C6FC4B
:102BD0001B9868B11898032807D009E00623DEA2E5
:102BE00026210020FFF7BAFC02E0BAF1000F43D023
:102BF0000623DDA232210020FFF7B0FC002424AE22
:102C000004EB44001A2101EB800000F0FF09305D65
:102C10003A2148436421B0FBF1F0C5B20020009096
:102C200008233C2249462220FFF7E0FA45B1012063
:102C3000009006232A4609F101012320FFF7D6FA66
:102C400006200090325D032349466220FFF762FCB4
:102C5000641CE4B2032CD3D31B9880B1189870B1D4
:102C6000BAF1000F16D005980923401E01B21E22AA
:102C70000020FFF795FB0DE00623B7A2BAE7059801
:102C80000923401E01B21E220020FFF789FB1B987A
:102C9000002805D00623B6A20E214820FFF75EFCCF
:102CA000C1E1019506988DF80400099800958DF80A
:102CB00005000A988DF8060007988DF8030004981F
:102CC0008DF8010003988DF802009DF878008DF8CA
:102CD0000000002201A9A748FEF7F6FB0022694682
:102CE000A448FEF78FFB00270E9717E501204BE560
:102CF0001798002E06DD052801D0401C04E00020B6
:102D000017905BE010B1401EC0B2F9E70520F7E76D
:102D10000698304400E0183000B20028FBDB01E0E8
:102D2000183800B21828FBDAC0B2069046E00998BD
:102D3000304400E03C3000B20028FBDB01E03C38CE
:102D400000B23C28FBDAC0B2099037E00A98304460
:102D500000E03C3000B20028FBDB01E03C3800B270
:102D60003C28FBDAC0B20A9028E00798304400E023
:102D7000643000B20028FBDB01E0643800B2642854
:102D8000FBDAC0B2079019E00498304400E00C3040
:102D900000B20128FBDB01E00C3800B20C28FBDCA0
:102DA000C0B204900AE01F3000B20128FBDB01E052
:102DB0001F3800B21F28FBDCC0B20390FFF744F9B4
:102DC00008236DA200211C20FFF7C8FB12237F22DD
:102DD00019460020FFF77AF9182320221946082007
:102DE0000095FFF703FA182320221946302000959A
:102DF000FFF7FCF918232022194658200095FFF709
:102E0000F5F9DDE90310CDE900015DA2102110A85C
:102E1000079BFDF729FA062310AA00213E20FFF7A1
:102E20009DFB179802280E984ED820B1179810B91C
:102E3000BAF1000F13D055A2102110A8069BFDF780
:102E400013FA062310AA20211020FFF787FB0E9803
:102E500028B11798012802D1BAF1000F13D04BA264
:102E6000102110A8099BFDF7FFF9062310AA2021C5
:102E70003820FFF773FB0E9828B11798022802D16B
:102E8000BAF1000F0BD041A2102110A80A9BFDF748
:102E9000EBF9062310AA20216020FFF75FFB062331
:102EA0003CA234210C20FFF759FB06233BA234211E
:102EB0003820FFF753FB062339A234216020FFF7A7
:102EC0004DFB179868B38FE028B11798032802D1FB
:102ED000BAF1000F13D02DA2102110A8079BFDF707
:102EE000C3F9062310AA20211020FFF737FB0E9804
:102EF00028B11798042802D1BAF1000F55D023A2A7
:102F0000102110A8049BFDF7AFF9062310AA202179
:102F10003820FFF723FB0E9820B11798052844D1DD
:102F200040E064E041E000000E0000204C454420F9
:102F3000436F6E74726F6C004D6F64653A000000F1
:102F40004175746F000000004D616E75616C00008A
:102F50004C4544313A000000202020202000000091
:102F60004C4544323A0000004C4544333A000000DE
:102F700041646A00BC00002054494D450000000037
:102F80003230253032642D253032642D25303264C4
:102F900000000000686F7572000000006D696E002F
:102FA00073656300BAF1000F0CD0AFF2200210215C
:102FB00010A8039BFDF758F9062310AA20216020D2
:102FC000FFF7CCFA062319A234210C20FFF7C6FA2A
:102FD000062318A234213820FFF7C0FA062316A2D0
:102FE00034216020FFF7BAFA1798032805D1162379
:102FF0001E2219210920FFF7D3F91798012801D0C3
:10300000042805D116231E2219213120FFF7C8F903
:103010001798022801D0052805D116231E22192150
:103020005920FFF7BDF900F009F891E47965617264
:10303000000000006D6F6E006461790070B5084D8E
:10304000002400212046FFF7D7F905EBC4108021AA
:1030500000F029F8641CE4B2082CF2D370BD000023
:103060006001002002464FF480710148FDF7FDBC6D
:10307000000C014002464FF400710148FDF7F5BC19
:10308000000C014010B50446FFF71AF97820FFF74D
:10309000FAF80020FFF7F7F82046FFF7F4F8BDE84C
:1030A0001040FFF71CB970B50D460646FFF708F94A
:1030B0007820FFF7E8F84020FFF7E5F8002404E067
:1030C000305DFFF7E0F8641CE4B2AC42F8D3BDE831
:1030D0007040FFF704B9010901EB810100F00F0016
:1030E00000EB4100C0B27047002102E00A38C0B2D4
:1030F000491C0A28FAD2090740EA116070472DE9F5
:10310000F04104460025C07B627BA37B42E0012A9C
:1031100016D0032A14D0052A12D0072A10D0082A64
:103120000ED00A2A0CD00C2A0AD0042A10D0062A63
:103130000ED0092A0CD00B2A0AD0022A0DD028E082
:103140001F2B0CD30C2A05D101221346401C20E072
:103150001E2B04D30123521C1BE01C2B02D203F1B3
:10316000010316E011D183B29E0710D16426B3FB90
:10317000F6F706FB173636B94FF4C876B3FBF6F709
:1031800006FB17331BB91D2303E01D2B01D10322BE
:1031900001236D1C8D42BAD3D1B2E0736173DAB2F0
:1031A000A27300F04FF82073BDE8F08170B50446BB
:1031B000FDF760FC05464FF47A7606E0FDF75AFC11
:1031C000401BB04201D9032070BD206840688006D2
:1031D000F4D52068416841F010014160002070BDC5
:1031E00070B504460068416821F010014160FDF7A8
:1031F00041FC05464FF47A7607E000BFFDF73AFC44
:10320000401BB04201D9032070BD20684068800691
:10321000F4D5002070BD0168086A496A89B241EAA4
:1032200000407047006881698AB2C1698BB28169C8
:1032300089B28A4203D0C06961F31F40704743EAF4
:1032400002407047F0B56424C1EBC1030927A50013
:10325000072603EB01130329B3FBF7F100F5FA602E
:10326000114401440AD2401EB0FBF4F201EB90017C
:10327000B0FBF5F0891A0844001D08E0B0FBF4F239
:1032800001EB9001B0FBF5F0891A0844801CB0FBFB
:10329000F6F106FB1100C0B2F0BD70B50D46064652
:1032A0000024FFF783FF48B93168280C08623168B1
:1032B000A8B248623046FFF793FF00B101242046D0
:1032C00070BD70B50D4606460024FFF76FFF48B984
:1032D0003168280C88613168A8B2C8613046FFF7B0
:1032E0007FFF00B10124204670BD4FF47A74204660
:1032F00000F092F9FBE710B5FDF7C2FB01F0F8FB17
:10330000012803D0BDE8104001F006B910BD70B52A
:1033100094B028216846FDF738F914210AA8FDF772
:1033200034F9002501240F95119505201295009080
:10333000CDE9025410954FF4803001900226049498
:10334000CDE907604FF4E01009906846FDF7C2FD33
:1033500008B172B6FEE70F20CDE90A064FF480608F
:10336000CDE90C5002210AA80E95FDF7E7FC08B143
:1033700072B6FEE74FF48070CDE90F400FA8FDF75D
:1033800067FC002801D072B6FEE714B070BD70472C
:10339000F0B50268194B1A4C1A4D4FF0804798420D
:1033A00005D0B84203D0A04201D0A84203D122F0F8
:1033B00070064A683243984205D0B84203D0A04212
:1033C00001D0A84203D122F44074CA6822434C6958
:1033D00022F08002224302608A68C2620A68826226
:1033E000984201D109690163012141610169C9075D
:1033F00003D0016921F001010161F0BD002C014001
:10340000000400400008004010B501F01F03012136
:10341000046A99408C430462016A9A401143016234
:1034200010BD000030B5036A026A22F00102026298
:103430004268846924F073050C682C4323F002056C
:103440008B682B430A4DA8420BD123F00805CB68AB
:1034500022F440722B434D6923F0040315438A691B
:103460002A434260846149684163036230BD0000C1
:10347000002C014030B5026A036A23F01003036296
:10348000436884690D6824F4E64444EA05248D68A1
:1034900022F0200242EA05120B4DA8420ED1CD685F
:1034A00022F0800242EA05124D6923F4406343EAA8
:1034B00085038D6922F0400243EA850343608461FD
:1034C00049688163026230BD002C014030B5036A57
:1034D000026A22F4807202624268C46923F40073B3
:1034E00024F073050C682C438D6843EA05230C4DCA
:1034F000A8420ED1CD6823F4006343EA05234D6949
:1035000022F4405242EA05128D6923F4806342EAB4
:1035100005124260C4614968C163036230BD0000A6
:10352000002C014030B5046A026A22F48052026223
:103530004268C3690D6823F4E64343EA05238D68B6
:1035400024F4005444EA0534064DA84204D14D69E0
:1035500022F4804242EA85124260C36149680164F4
:10356000046230BD002C0140FEE70907090E002867
:1035700004DB00F1E02080F80014704700F00F0039
:1035800000F1E02080F8141D704730380A2801D27D
:103590000120704700207047FDF77AFAFFF7B7FE69
:1035A000FEF7B0FBFEF742FCFEF7FEFBFEF774FCF5
:1035B00001211748FDF71EFE43F2F224A0421FD05E
:1035C00014481A210022C170032141700621817024
:1035D0000521017001460E48FDF714FF0D480E212C
:1035E000C01E01701E214170002181700A460146F3
:1035F0000748FDF769FF224601210548FDF702FE55
:1036000000F018F8FEF71CFB00F026F8FEE70000BB
:10361000BC0000200300002010B5EFF3058111B1BC
:103620006FF0050403E0002408B100F0F5FD20462A
:1036300010BD0000EFF3058010B16FF0050070477A
:103640000448016811B14FF0FF307047012101605B
:10365000002070478C00002010B5EFF3058010B1FA
:103660006FF0050010BD08480168012902D04FF035
:10367000FF3010BD054A002182F8141D02210160AF
:1036800000F078FE002010BD8C0000200BE000E070
:103690002DE9FF414FEA01034FF00005EFF30581EB
:1036A000039549BB40B38027182100244AB316680C
:1036B00006B1344696691EB13146761E382E02D2C6
:1036C0001679F60703D0002004B0BDE8F0815669F2
:1036D00006B1B708D2F808C0BCF1000F0DD0D5680C
:1036E0005C2D18D312693AB136B18DE806103A460E
:1036F000214601F0D2F903900DE0D6685EB9126957
:103700004AB903AACDE90012BAB2214601F098F9EC
:10371000012800D003950398D6E700002DE9F04179
:10372000134C0F460546E6682068001D00F040FC7B
:10373000681C07D137B12168BDE8F0410D48091D6B
:1037400000F086BC20683544B5424560216805D24A
:10375000A06BBDE8F041091D00F062BC606B091D63
:1037600000F05EFCA06A854200D2A562BDE8F0814F
:103770003C000020640A00202DE9F041054600F0DD
:1037800073FC2D4CA068401CA06020682B4F10B12A
:10379000606930B32BE02560A068012827D100269E
:1037A00006EB860007EB800000F02CFC761C382E20
:1037B000F6D3234800F026FC2148143000F022FC08
:1037C0001F48283000F01EFC1D483C3000F01AFC59
:1037D0001B48503000F016FC194860631430A06399
:1037E00005E02068E96AC06A884200D82560606AFE
:1037F000401C60626864E86A2169884200D92061DF
:1038000000EB800007EB8000291D00F021FC00F098
:103810004BFC606900280CD02068E96AC06A8842C5
:1038200007D208494FF080500860BFF34F8FBFF3B5
:103830006F8FBDE8F08100003C000020B40500203F
:10384000140A002004ED00E038B500F00DFC104C27
:103850002068C8B90F4800F0D5FB0E48143000F0BE
:10386000D1FB0C48E060143020610A4B0020F03B93
:10387000009003F1500210210A2000F084FE206025
:1038800010B105A100F092FCBDE8384000F00CBC7E
:1038900078000020680B0020546D72510000000079
:1038A00030B4026C0B46002A0BD0C1681144C160D1
:1038B0008468A14201D30168C16030BC1846FCF79E
:1038C00017BE30BC70472DE9F041856B17460446A2
:1038D0000026026C82B1C7B1E068FCF709FEE1681E
:1038E000206C091AE1602268914202D2A168081A8C
:1038F000E060022F16D017E02068A8B9A06801F098
:103900006FF906460020A0600EE06068FCF7F0FD4D
:10391000216C606808446060A168884204D3206814
:10392000606001E005B16D1E6D1CA5633046BDE809
:10393000F08110B5044690F8590058B101280CD018
:1039400002280FD0502080F31188BFF34F8FBFF3B0
:103950006F8FFEE7206B00F0BBFB2046BDE81040F8
:1039600000F0B6BB10BD000010484FF400514207F4
:1039700006D0C01D0D4920F00700411AC1F50051C5
:103980000B4A00230144C2E900030839183A21F028
:10399000070111604B600B600B1AC0E900139360C4
:1039A0004FF0004053605061704700004812002003
:1039B000A8000020144E154CA6F29C474FF08058EA
:1039C000DFF84C9012E000BF00F04EFBF068C568D5
:1039D000281D00F0EDFAA068401EA0606068401E3F
:1039E000606000F061FB2846FFF7A3FF60680028D5
:1039F000EAD138680128F9D9C9F80080BFF34F8FA0
:103A0000BFF36F8FF2E70000500A00203C00002057
:103A100004ED00E070B51D46049C51B1C4F80020CF
:103A2000C4E90F010121204600F0E0FD84F84C506C
:103A300070BD2460F4E700002DE9F05F8846DDE901
:103A40000B941546834691009A460A9EA522206B48
:103A5000FCF793FD6FF00301206B01EB8501084437
:103A600020F00707780707D0502080F31188BFF3B4
:103A70004F8FBFF36F8FFEE70025B8F1000F0FD017
:103A80005FF00000221818F8001082F8341018F8BF
:103A9000001011B1401C1028F4D384F8435001E009
:103AA00084F83450382E00D33726E662C4E9136513
:103AB000201D00F0B2FA04F1180000F0AEFA246103
:103AC000C6F138006462A061656584F858505246BA
:103AD0005946384600F05AFA2060B9F1000F01D07B
:103AE000C9F80040BDE8F09F30B5114900E011462B
:103AF0000A688242FBD34B685C18844203D1406859
:103B000018444860084643681C18944209D1084C80
:103B1000183C2468A24209D052681A4442600A68DC
:103B200012680260814200D0086030BD0460F9E78D
:103B3000A800002070B5002441600B4D0061914247
:103B400006D8D11A8269914206D2011D286907E080
:103B50009A4203D2994201D3012403E0011DE8688F
:103B600000F05EFA204670BD7800002010B50446D3
:103B700000F07AFAA06B28B15FF0000400F094FA2C
:103B8000204610BD0124F9E730B589B03C4D6EE008
:103B90000498002806DADDE90601059A90470498A2
:103BA000002864DB069C606910B1201D00F000FA5B
:103BB00003A800F0D7F8024604980A2857D2DFE895
:103BC00000F00505052D334A05052D3394F828002E
:103BD00040F0010084F828000599A069059B014484
:103BE0002046FFF7A7FF68B3216A2046884794F86C
:103BF000280040073BD5002000900598A1690023CC
:103C000042181946204601F0F5F8D8B9502080F343
:103C10001188BFF34F8FBFF36F8FFEE714F8280FA3
:103C200020F00100207022E094F8280040F001000C
:103C300084F828000598A06128B181181346204611
:103C4000FFF778FF13E0502080F31188BFF34F8F08
:103C5000BFF36F8FFEE794F82800810703D4204656
:103C600000F036FA03E020F0010084F8280000227A
:103C700004A9286800F00EFE002889D109B030BDE3
:103C8000780000202DE9FC410F46054600F0B6FB08
:103C900001A800F067F80446019818B101F018F87F
:103CA000BDE8FC81254EAFB130690068D0B3002774
:103CB000291B3A46306800F08DFA01F009F8002817
:103CC000EED11F494FF080500860BFF34F8FBFF314
:103CD0006F8FE5E7A542EBD800F0FAFFF0682746C2
:103CE000C068C468201D00F063F994F828004107FB
:103CF00019D5A0692B4641193A462046FFF71AFF0D
:103D0000A8B100200346014600902A46204601F053
:103D100071F860B9502080F31188BFF34F8FBFF363
:103D20006F8FFEE707E020F0010084F82800216A89
:103D300020468847B4E70127BAE700007800002052
:103D400004ED00E00648416B096829B1416BC96880
:103D5000C9684968816270474FF0FF31FAE7000097
:103D60003C00002070B5054600F0D0FE064E04462B
:103D7000B068844203D200F009F8012000E000207E
:103D800028602046B46070BD78000020F8B5194D59
:103D900020E0C068C4680668201D00F009F9216AA7
:103DA0002046884794F82800400713D5A06930447E
:103DB000B04206D924616060211DE86800F030F946
:103DC00008E000200346014600903246204601F0FC
:103DD00011F838B1E86801680029DAD12969C5E924
:103DE0000310F8BD502080F31188BFF34F8FBFF34D
:103DF0006F8FFEE77800002008484068401C4FF0B5
:103E0000500080F3118804D0BFF34F8FBFF36F8F42
:103E1000FEE7BFF34F8FBFF36F8FFEE7B0000020C8
:103E2000074CE068016841B1C0680021D0F800008B
:103E3000FFF728FFFFF7A8FEF3E701210020F7E7CF
:103E4000780000202DE9F041044600F00DF994F9C6
:103E5000455004F1240609E0606A48B1304600F09C
:103E6000FFFE08B100F04CFA6D1E6DB2002DF3DCC0
:103E70004FF0FF3684F8456000F016F900F0F4F8D2
:103E800094F9445004F1100709E0206948B138461C
:103E900000F0E6FE08B100F033FA6D1E6DB2002DA1
:103EA000F3DC84F84460BDE8F04100F0FDB80000A8
:103EB0002DE9F0410546002700F0A0FA324E3068A7
:103EC00008B9FFF751FD706905424ED1C5B30835F9
:103ED00068070ED005F00700C0F108000544680728
:103EE00007D0502080F31188BFF34F8FBFF36F8F3F
:103EF000FEE72DB37068854237D823481830014655
:103F00000C6801E020460C466168A94202D2216893
:103F10000029F7D131688C4227D0076821680160F9
:103F200060680837411B10290FD96019420708D073
:103F3000502080F31188BFF34F8FBFF36F8FFEE7E0
:103F400013E041606560FFF7CFFD61687068401A5B
:103F50007060B268904200D2B06070690143002086
:103F6000C4E90001F068401CF06000F0B1FE780781
:103F700007D0502080F31188BFF34F8FBFF36F8FAE
:103F8000FEE73846BDE8F0819000002010B5031F21
:103F90004FF080741C601B1F21F001011960191F74
:103FA000024B0B60143940380A6010BDF93D00081F
:103FB000D0E9013201699A60D0E901235A604A6868
:103FC000824201D182684A60002202610868401E74
:103FD0000860086870470000034B036003F15C0051
:103FE0000860802010607047900B0020044B036035
:103FF00003F15C0008604FF48070106070470000AF
:10400000EC0D002000F108014FF0FF32C0E9011271
:10401000C1600161002101607047002101617047AA
:1040200030B50B685A1C02D000F1080202E00269A8
:1040300004E02246546825689D42FAD953684B60D3
:1040400099608A60516008610168491C016030BD57
:1040500042684A6093688B60936859609160086118
:104060000168491C01607047502080F31188BFF33C
:104070004F8FBFF36F8F0A494868401C4860012882
:104080000CD10848006810F0FF0F07D0502080F3D3
:104090001188BFF34F8FBFF36F8FFEE770470000AB
:1040A000B000002004ED00E00849486828B1401E37
:1040B000486001D180F311887047502080F3118847
:1040C000BFF34F8FBFF36F8FFEE70000B0000020FB
:1040D00070B500282AD0164DA0F1080460686969FF
:1040E000084207D1502080F31188BFF34F8FBFF3F0
:1040F0006F8FFEE722683AB1502080F31188BFF33A
:104100004F8FBFF36F8FFEE78843606000F076F952
:1041100060686968084468602046FFF7E5FC286924
:10412000401C2861BDE8704000F0D2BD70BD0000A9
:10413000900000204FF0E0200021016181610549DD
:104140004FF47A720968B1FBF2F1491E416107210F
:10415000016170473400002010B5FCF761F8114987
:1041600010280ED300F1E02090F8F0030A78904276
:1041700007D2502080F31188BFF34F8FBFF36F8FAA
:10418000FEE709480068896800F4E060884207D9C2
:10419000502080F31188BFF34F8FBFF36F8FFEE77E
:1041A00010BD0000B00000200CED00E010B5084B81
:1041B000002200BF53F832401CB1521C082AF9D328
:1041C00010BD43F8321003EBC201486010BD00007F
:1041D0007405002070B515460E460446FFF744FFEF
:1041E00094F944100020491C01D184F8440094F94A
:1041F0004510491C01D184F84500FFF755FFA06B1D
:1042000028B92A46314604F1240000F097F82046E8
:10421000BDE87040FFF716BE10B5020014D00F487D
:10422000006B38B1502080F31188BFF34F8FBFF37C
:104230006F8FFEE700F0E2F800211046FFF76EFAFC
:1042400000F046FD002807D105494FF08050086076
:10425000BFF34F8FBFF36F8F10BD00003C000020F5
:1042600004ED00E070B50D4604000BD095B11E4A78
:10427000106BB8B1502080F31188BFF34F8FBFF39C
:104280006F8FFEE7502080F31188BFF34F8FBFF38D
:104290006F8FFEE7502080F31188BFF34F8FBFF37D
:1042A0006F8FFEE700F0AAF8D2682368591993428D
:1042B00004D98B420AD9914202D807E08B42FAD93D
:1042C000881A21600021FFF729FA00E0216000F040
:1042D000FFFC002807D105494FF080500860BFF36C
:1042E0004F8FBFF36F8F70BD3C00002004ED00E0E6
:1042F00002490A6A0260C968416070473C000020B8
:1043000001490120C86170473C00002010B50C46EF
:1043100050B1094909681831FFF782FE2046BDE80F
:1043200010400121FFF7FAB9502080F31188BFF344
:104330004F8FBFF36F8FFEE73C00002070B514462F
:104340000D4668B10A4909681831FFF781FE0CB1C2
:104350004FF0FF3521462846BDE87040FFF7DEB933
:10436000502080F31188BFF34F8FBFF36F8FFEE7AC
:104370003C00002030B587B00024039405AA04A9AE
:1043800003A80494FFF728FEDDE903010094CDE9BA
:104390000110002315A11748059A00F07EFB164D69
:1043A0000028E8621FD000F0F5FC012809D0401C6D
:1043B00019D1502080F31188BFF34F8FBFF36F8F57
:1043C000FEE7502080F31188BFF34F8FBFF36F8F4C
:1043D0004FF0FF30A86201206861EC6007B0BDE8D3
:1043E000304000F045B807B030BD000049444C45AE
:1043F00000000000B53900083C0000200248016BB5
:10440000491C0163704700003C000020164810B5AD
:10441000016B11B10121C16110BD0021C1610169B0
:10442000124A01E0B9B1491E01EB810352F8233071
:10443000002BF7D001EB810302EB830202F10804A9
:1044400053685B685360A34201D15B685360DA68CC
:104450000260016110BD502080F31188BFF34F8FBF
:10446000BFF36F8FFEE700003C000020B405002082
:104470001CB5264908780190FF20087008788DF84F
:1044800000009DF800009DF8002000F0F000904230
:1044900007D0502080F31188BFF34F8FBFF36F8F89
:1044A000FEE79DF800001A4C00F050002070072035
:1044B000A06005E09DF8002052008DF80020401E0D
:1044C0009DF800201206F5D4A060032807D05020E4
:1044D00080F31188BFF34F8FBFF36F8FFEE74FF468
:1044E0004070A060019808700A48016841F47001AA
:1044F0000160016841F070410160FFF71BFE002080
:104500006060FBF757FE00201CBD000000E400E0E7
:10451000B000002020ED00E010B5502080F311889D
:10452000BFF34F8FBFF36F8F00F0F6FA18B1044955
:104530004FF080500860002080F3118810BD00000B
:1045400004ED00E0F8B517460E46050013D005FB54
:1045500006F05030FFF7ACFC04000AD0002084F8CD
:10456000460004F150023B46314628460094FFF7CE
:1045700051FA2046F8BD502080F31188BFF34F8FC9
:10458000BFF36F8FFEE738B5049D18B153B1CAB1C0
:1045900081B120E0502080F31188BFF34F8FBFF32B
:1045A0006F8FFEE7502080F31188BFF34F8FBFF36A
:1045B0006F8FFEE7502080F31188BFF34F8FBFF35A
:1045C0006F8FFEE739B1502080F31188BFF34F8F12
:1045D000BFF36F8FFEE750241C46012384F846305A
:1045E0002B460094FFF716FA204638BD70B50D46ED
:1045F000040025D0FFF738FDD4E90F20216802FB25
:104600000011A1600021A163216861600A46D4E91C
:104610000F01401E00FB0121E16021464FF0FF30F9
:1046200001F8440F487004F110008DB1FFF7EAFC67
:1046300004F12400FFF7E6FCFFF736FD012070BD12
:10464000502080F31188BFF34F8FBFF36F8FFEE7C9
:1046500021690029F0D000F003FB0028ECD00449C8
:104660004FF080500860BFF34F8FBFF36F8FE3E7C9
:1046700004ED00E02DE9FF4782B01D468A464FF069
:104680000008040003D0BAF1000F08D011E0502058
:1046900080F31188BFF34F8FBFF36F8FFEE7206C5D
:1046A00038B1502080F31188BFF34F8FBFF36F8F65
:1046B000FEE7022D0AD1E06B012807D0502080F3DD
:1046C0001188BFF34F8FBFF36F8FFEE700F010FA32
:1046D0003F4F4FF000094FF0805648B9049838B169
:1046E000502080F31188BFF34F8FBFF36F8FFEE729
:1046F000FFF7BAFCA06BE16B884207D3022D05D00F
:104700000498D0B1B8F1000F1AD01EE02A465146E5
:104710002046FFF7D8F8616A19B104F1240000F0CF
:104720009FFA20B13E60BFF34F8FBFF36F8FFFF74B
:10473000BBFC012006B0BDE8F087FFF7B5FC22E026
:104740006846FFF7D5FD4FF00108FFF7ADFCFFF716
:1047500055FEFFF789FC94F94400401C01D184F810
:10476000449094F94500401C01D184F84590FFF72E
:104770009BFC04A9684600F029F930B12046FFF7F8
:1047800061FB00F0A5FA0020D4E7FFF76DFCA06BF9
:10479000E16B884213D1FFF787FC04F11000049904
:1047A000FFF7B4FD2046FFF74DFB00F091FA00281B
:1047B0009ED13E60BFF34F8FBFF36F8F98E7FFF737
:1047C00073FC2046FFF73EFB00F082FA90E7000002
:1047D00004ED00E02DE9F0471F46904689460400AD
:1047E00003D0B9F1000F08D011E0502080F31188F8
:1047F000BFF34F8FBFF36F8FFEE7206C38B15020AF
:1048000080F31188BFF34F8FBFF36F8FFEE7022F46
:104810000AD1E06B012807D0502080F31188BFF344
:104820004F8FBFF36F8FFEE7FFF796FC5020EFF33B
:10483000118680F31188BFF34F8FBFF36F8FA06B8A
:10484000E16B884206D3022F04D0002086F3118842
:10485000BDE8F08794F94550A06B3A46494620469A
:10486000FFF731F8681C04D06D1C84F84550012016
:10487000ECE7606A0028FAD004F1240000F0F0F9B7
:104880000028F4D0B8F1000FF1D00121C8F80010D1
:10489000EDE700002DE9F747002683B08A460400C3
:1048A00003D0BAF1000F08D011E0502080F3118836
:1048B000BFF34F8FBFF36F8FFEE7206C38B15020EE
:1048C00080F31188BFF34F8FBFF36F8FFEE700F0C7
:1048D0000FF9DFF8F4804FF000094FF0805748B926
:1048E000059838B1502080F31188BFF34F8FBFF384
:1048F0006F8FFEE7FFF7B8FBA56BC5B151462046A9
:10490000FEF7CEFF6D1EA563206950B104F11000C3
:1049100000F0A6F928B1C8F80070BFF34F8FBFF3BD
:104920006F8FFFF7C1FB012006B0BDE8F087059847
:1049300008B11EB106E0FFF7B7FB27E06846FFF7B6
:10494000D7FC0126FFF7B0FBFFF758FDFFF78CFB04
:1049500094F94400401C01D184F8449094F9450036
:10496000401C01D184F84590FFF79EFB05A96846DD
:1049700000F02CF8002820460AD0FFF763FA00F078
:10498000A7F92046FFF7F2F80028B3D00020CBE7C4
:10499000FFF7ECF890B104F124000599FFF7B6FC9D
:1049A0002046FFF74FFA00F093F90028A2D1C8F88B
:1049B0000070BFF34F8FBFF36F8F9BE72046FFF769
:1049C00041FA00F085F995E704ED00E02DE9F041AA
:1049D0000C46050011D0C4B1FFF746FB174BDA684F
:1049E0006E682068911B471C17D02F681B6A9F4276
:1049F00019D0964217D8012410E0502080F3118876
:104A0000BFF34F8FBFF36F8FFEE7502080F3118805
:104A1000BFF34F8FBFF36F8FFEE70024FFF744FB18
:104A20002046BDE8F081884205D9401A206028461A
:104A3000FFF75EFCF1E700202060DCE73C0000208F
:104A40002DE9FF5F8346DDE90E87994616468A46C3
:104A50009000FFF72DFA05001CD05C20FFF728FA24
:104A6000040014D00020256384F85900CDE90240E9
:104A7000CDE900874B46324651465846FEF7DCFFEB
:104A80002046FEF779FE012004B0BDE8F09F2846DD
:104A9000FFF71EFB4FF0FF30F6E7F0B585B0DDE91C
:104AA0000B640A9DA6B1DCB15C2700972663022641
:104AB00084F85960002604AFCDE90246CDE90057DD
:104AC000FEF7BAFF2046FEF757FE049805B0F0BD8A
:104AD000502080F31188BFF34F8FBFF36F8FFEE735
:104AE000502080F31188BFF34F8FBFF36F8FFEE725
:104AF0000548416919B1006B18B1002070470120C9
:104B000070470220704700003C0000200148C06848
:104B1000704700003C0000202DE9F0412E4C00279A
:104B2000206B28B1A069401CA0613846BDE8F08127
:104B3000E668761CE66013D1606B006838B15020DF
:104B400080F31188BFF34F8FBFF36F8FFEE7606B69
:104B5000A16B6163A063206A401C2062FFF7F2F83A
:104B6000A06ADFF87880864209D3606B0068A0B144
:104B7000606BC068C5686868864211D2A062206810
:104B8000C06A00EB800158F82100012800D90127F4
:104B9000E0690028C9D00127C7E74FF0FF30EDE7F3
:104BA000281DFFF705FAA86A18B105F11800FFF7EC
:104BB000FFF9E86A2169884200D9206100EB800191
:104BC00008EB8100291DFFF743FAE86A2168C96AEA
:104BD0008842CAD30127C8E73C000020B405002062
:104BE00070B504004FF0000133D01B4D286884429B
:104BF00007D0502080F31188BFF34F8FBFF36F8F22
:104C0000FEE7206D38B1401E2065E36CE26A9A42EF
:104C10001FD040B11DE0502080F31188BFF34F8FAB
:104C2000BFF36F8FFEE7201DFFF7C2F9E06CE06273
:104C3000C0F13800A061E06A2969884200D9286182
:104C4000064900EB800001EB8000211DFFF700FA10
:104C50000121084670BD00003C000020B405002082
:104C600070B5C068C46854B104F118000646FFF777
:104C70009FF9144D286B50B13146134815E0502070
:104C800080F31188BFF34F8FBFF36F8FFEE7201DB6
:104C9000FFF78EF9E06A2969884200D928610B493B
:104CA00000EB800001EB8000211DFFF7D1F9E06AE5
:104CB0002968C96A884202D90120E86170BD0020D4
:104CC00070BD00003C0000203C0A0020B40500201C
:104CD0002DE9F0472C4D00242746286B38B1FFF70B
:104CE000C3F9286B401E2863286B40B146E0502072
:104CF00080F31188BFF34F8FBFF36F8FFEE7A96872
:104D0000224E0120D1B3A6F5916980463068E0B10A
:104D1000F068C46804F11800FFF74AF9201DFFF796
:104D200047F9E06A2969884200D9286100EB8001CF
:104D300009EB8100211DFFF78BF9E06A2968C96A38
:104D40008842E3D3C5F81C80E0E70CB1FEF7FAFF18
:104D5000AC694CB14FEA0806FFF7DEFE00B1EE6128
:104D6000641EF9D10020A861E86938B1084901271B
:104D700038070860BFF34F8FBFF36F8FFFF794F9C9
:104D80003846BDE8F08700003C0000203C0A0020C7
:104D900004ED00E010B586B0FEF756FD114C20681A
:104DA000B8B100200390049005AA04A903A8FFF756
:104DB0001DF9DDE9032102208DE8070000230AA187
:104DC0000B48059AFFF769FE606010B106B001203C
:104DD00010BD502080F31188BFF34F8FBFF36F8F4A
:104DE000FEE7000078000020546D722053766300C7
:104DF000213E00082DE9FF411E46134602000A9D90
:104E00004FF0000016D0144C2768002F0FD0CDE9CA
:104E100000130292062917DAFFF76AFE02284FF004
:104E200000030FD0002269462068FFF723FC04B07E
:104E3000BDE8F081502080F31188BFF34F8FBFF39E
:104E40006F8FFEE72A46EEE7002332466946384672
:104E5000FFF7C0FCEBE7000078000020385A00089C
:104E60002C5A0008205A0008000000000000000032
:104E70000000000000000000000200001800000018
:104E800000000000000000004C5A0008545A0008BE
:104E9000185A0008445A00080102020304050607D4
:104EA00008090A0B0C0D0E0F101001020203040575
:104EB000060708090A0B0C0D0E0F10100000000069
:104EC00000000000010203040607080900000000BA
:104ED00001020304000000000000000000000000C8
:104EE00000000000000000F8000000000000003397
:104EF0003000000000160E00160E0000000000003A
:104F00000000000040C07840C0784000043F040426
:104F10003F040400007088FC08300000001820FFE7
:104F2000211E0000F008F000E018000000211C0322
:104F30001E211E0000F00888700000001E2123249E
:104F400019272110000000160E00000000000000CC
:104F500000000000000000E018040200000000074C
:104F60001820400000020418E00000000040201853
:104F700007000000404080F0804040000202010F26
:104F800001020200000000F0000000000101011F0A
:104F900001010100000000000000000000B07000EE
:104FA00000000000000000000000000000010101FE
:104FB000010101010000000000000000003030008D
:104FC0000000000000000000806018040060180667
:104FD0000100000000E010080810E000000F1020A1
:104FE00020100F00001010F8000000000020203FEB
:104FF0002020000000700808088870000030282475
:105000002221300000300888884830000018202015
:1050100020110E000000C02010F80000000704243A
:10502000243F240000F8088888080800001921207F
:1050300020110E0000E0108888180000000F1120D9
:1050400020110E0000380808C83808000000003F92
:10505000000000000070880808887000001C2221F1
:1050600021221C0000E010080810E000000031229E
:1050700022110F00000000C0C0000000000000303E
:1050800030000000000000C0C0000000000080B040
:1050900070000000000080402010080000010204A1
:1050A00008102000404040404040400004040404F8
:1050B00004040400000810204080000000201008B4
:1050C00004020100007048080808F00000000030E9
:1050D00036010000C030C828E810E0000718272477
:1050E00023140B000000C038E0000000203C230225
:1050F0000227382008F8888888700000203F202088
:1051000020110E00C03008080808380007182020B9
:105110002010080008F808080810E000203F2020B0
:1051200020100F0008F88888E8081000203F202091
:105130002320180008F88888E8081000203F200085
:1051400003000000C03008080838000007182020BD
:10515000221E020008F808000008F808203F21017C
:1051600001213F20000808F8080800000020203F27
:105170002020000000000808F8080800C080808097
:105180007F00000008F888C028180800203F200190
:105190002638200008F8080000000000203F2020EA
:1051A0002020300008F8F800F8F80800203F003F01
:1051B000003F200008F830C00008F808203F200019
:1051C00007183F00E01008080810E0000F1020202A
:1051D00020100F0008F808080808F000203F2101FF
:1051E00001010000E01008080810E0000F18242456
:1051F00038504F0008F8888888887000203F2000C9
:10520000030C30200070880808083800003820217E
:1052100021221C00180808F8080818000000203F88
:105220002000000008F808000008F808001F2020EF
:1052300020201F000878880000C8380800000738C0
:105240000E010000F80800F80008F800033C070011
:10525000073C0300081868808068180820302C0379
:10526000032C30200838C800C83808000000203F50
:105270002000000010080808C8380800203826213F
:1052800020201800000000FE020202000000007F43
:1052900040404000000C30C0000000000000000151
:1052A0000638C00000020202FE000000004040403C
:1052B0007F000000002010080408102000000000FB
:1052C00000000000000000000000000080808080DE
:1052D00080808080000204080000000000000000C0
:1052E000000000000000808080800000001924225F
:1052F00022223F2008F8008080000000003F11209B
:1053000020110E000000008080800000000E11209F
:1053100020201100000000808088F800000E11207D
:1053200020103F200000808080800000001F22228B
:1053300022221300008080F0888888180020203FF7
:10534000202000000000808080808000006B94940A
:105350009493600008F8008080800000203F2100C6
:1053600000203F2000809898000000000020203F8F
:1053700020200000000000809898000000C080807D
:10538000807F000008F8000080808000203F240219
:105390002D302000000808F8000000000020203F09
:1053A000202000008080808080808000203F2000BE
:1053B0003F20003F008080008080000000203F21CF
:1053C00000203F200000808080800000001F2020FF
:1053D00020201F00808000808000000080FFA1202E
:1053E00020110E000000008080808000000E11203F
:1053F00020A0FF80808080008080800020203F21CE
:105400002000010000008080808080000033242480
:1054100024241900008080E0808000000000001F2C
:10542000202000008080000000808000001F2020DD
:1054300020103F20808080000080808000010E309E
:105440000806010080800080008080800F300C03FF
:105450000C300F0000808000808080000020312E02
:105460000E312000808080000080808080818E70DE
:105470001806010000808080808080000021302C90
:105480002221300000000000807C020200000000A9
:10549000003F404000000000FF000000000000004E
:1054A000FF0000000002027C800000000040403F3E
:1054B00000000000008040408000008000000000EC
:1054C000000101000000000000000000002F0000AB
:1054D00000000700070000147F147F1400242A7FB7
:1054E0002A12002313086462003649552250000036
:1054F0000007000000001C224100000041221C00A7
:105500000014083E08140008083E0808000000A027
:105510006000000808080808000060600000002023
:1055200010080402003E5149453E0000427F400001
:10553000004261514946002141454B310018141287
:105540007F10002745454539003C4A494930000154
:105550007109050300364949493600064949291EA3
:105560000000363600000000563600000008142205
:105570004100001414141414000041221408000205
:1055800001510906003E4955592E007C1211127C2A
:10559000007F49494936003E41414122007F414157
:1055A000221C007F49494941007F09090901003E49
:1055B0004149497A007F0808087F0000417F410087
:1055C000002040413F01007F08142241007F4040FD
:1055D0004040007F020C027F007F0408107F003EE5
:1055E0004141413E007F09090906003E4151215ECB
:1055F000007F091929460046494949310001017FC8
:105600000101003F4040403F001F2040201F003F5D
:105610004038403F0063140814630007087008070F
:1056200000615149454300007F41410000020408E8
:105630001020000041417F000004020102040040EC
:1056400040404040000001020400002054545478BF
:10565000007F4844443800384444442000384444DF
:10566000487F00385454541800087E09010200187D
:10567000A4A4A47C007F080404780000447D4000BA
:10568000004080847D00007F102844000000417F9E
:105690004000007C04180478007C0804047800387A
:1056A0004444443800FC242424180018242418FC02
:1056B000007C0804040800485454542000043F446B
:1056C0004020003C4040207C001C2040201C003C2E
:1056D0004030403C004428102844001CA0A0A07C7E
:1056E000004464544C440000087F41000000007FE7
:1056F00000000000417F0800000804081008EFBC0B
:105700008C0000000000000000000000000000000D
:1057100000000000005838000000000000000000F9
:10572000000000E380820000000000000000000094
:1057300000000000000000000000182424180000F1
:105740000000000000000000E4BDA0000000806038
:10575000F8074020180F08C80808281800010000A2
:10576000FF00100C0340807F0001061800E5A5BD76
:1057700000001010F01F10F000808282E2928A86F2
:105780008000402215081661000040807F00000064
:105790000000E4B8960000202020FE2020FF2020FA
:1057A00020FF20202020000000007F40404744448C
:1057B00044474040400000E7958C0000000000FE98
:1057C000929292FE929292FE0000000008080484D9
:1057D000621E010001FE020404080800E6B8A900E8
:1057E000001060028C0000FE9292929292FE0000E5
:1057F0000004047E01407E42427E427E42427E4060
:1058000000E68EA70000101010FF9020984828098D
:105810000E2848A818000242817F004040424242C0
:105820007E4242424000E9A38E00000000FE0212C8
:1058300022C202C23202FE0000000080601F00206F
:10584000100C030C30000F3040F800E68987000090
:105850000000FC242424252624242424243C0000A5
:1058600040300F211549817F00211549817F0000BB
:10587000E6A8A100001010D0FF9014E4AFA4A4A4E7
:10588000AFE4040000040300FF00894B2A1A0E1A3B
:105890002A4B888000E5BC8F0000101090909090FB
:1058A000901010FF101011161000002060203F1003
:1058B000101000030C102040F800E9809F00004009
:1058C0004042CC0004F49494FF9494F4040000004B
:1058D00040201F20484442415F414244484000E587
:1058E000BAA600000000FC242424FC252624FC2465
:1058F0002424040040308F80844C55252525554CA8
:1059000080808000E6898B00000000242424242469
:10591000FC22222223220000000202020202428212
:105920007F0202020202020200E58AA8000040444F
:10593000C4444444401010FF101010F00000103C0C
:10594000131014B840300E014080403F0000E8873B
:10595000AA0000000000F8888C8A89888888F800EE
:10596000000000000000FF44444444444444FF005D
:10597000000000E981A50000404042CC00004A320E
:10598000222AF121312D00000080403F408081BD5E
:10599000A1A1BFA1A1BD8100E68EA700001010103B
:1059A000FF9020984828090E2848A8180002428134
:1059B0007F0040404242427E4242424000E599A878
:1059C000000080809E9292929EE0809EB2D2929E33
:1059D00080000808F4949292F10001F2929494F8F5
:1059E0000800E593A60000FC04FC9092FE5110FF15
:1059F00092540003010300080F040203040E000088
:105A0000000000000000000400000800000000008A
:105A1000000002000100001054696D6500000000E4
:105A200064656661756C745461736B005247422003
:105A3000436F6E74726F6C004C454420436F6E74FC
:105A4000726F6C0053797374656D000054656D70EE
:105A5000000000004C696768740000007C5A000870
:105A600000000020BC00000028010008385B00088E
:105A7000BC000020EC3700004401000800000000DA
:105A8000000000000000000000001E1E1E000000BC
:105A90000000000000000000000000000000000006
:105AA00000000000010000001000000000000000E5
:105AB00000127A000000000000000000000000005A
:105AC00000000000000000000000000000000000D6
:105AD00000000000000000000000000000000000C6
