:020000040800F2
:10000000B838002029020008F3220008C11C0008AB
:10001000F1220008770800084D3A000800000000AF
:100020000000000000000000000000009101000836
:100030003F0A000800000000D5010008DB37000877
:10004000430200084302000843020008430200087C
:10005000430200084302000843020008430200086C
:10006000430200084302000843020008430200085C
:10007000430200084302000843020008430200084C
:10008000430200084302000843020008430200083C
:10009000430200084302000843020008430200082C
:1000A000430200084302000843020008430200081C
:1000B000430200084302000843020008430200080C
:1000C00043020008430200084302000843020008FC
:1000D00043020008430200084302000843020008EC
:1000E00043020008430200084302000800F002F83F
:1000F00000F03FF80AA090E8000C82448344AAF183
:100100000107DA4501D100F034F8AFF2090EBAE880
:100110000F0013F0010F18BFFB1A43F0010318473B
:100120006C5E00008C5E0000103A24BF78C878C175
:10013000FAD8520724BF30C830C144BF04680C60ED
:10014000704700000023002400250026103A28BF35
:1001500078C1FBD8520728BF30C148BF0B60704739
:10016000642900F0C580002070471FB51FBD10B581
:1001700010BD00F04BFB1146FFF7F7FF03F08CFCBE
:1001800000F069FB03B4FFF7F2FF03BC00F06CFB67
:10019000224B19680868B0E8F00F80F30988BFF3B4
:1001A0006F8F4FF0000080F311884EF00D0E7047F6
:1001B0000000000006480068006880F3088862B606
:1001C00061B6BFF34F8FBFF36F8F00DF00BF00BF7B
:1001D00008ED00E0EFF30980BFF36F8F0F4B1A6853
:1001E00020E9F00F106008B54FF0500080F311883F
:1001F000BFF34F8FBFF36F8F04F098FB4FF00000F9
:1002000080F31188BDE8084019680868B0E8F00F6D
:1002100080F30988BFF36F8F704700BF480000204C
:10022000EFF3058070470000094880470948004700
:10023000FEE7FEE7FEE7FEE7FEE7FEE7FEE7FEE796
:10024000FEE7FEE704480549054A064B70470000F3
:1002500073380008ED000008B8320020B8380020DC
:10026000B8340020B83400200FB47CB50C0009AAC3
:10027000009001D02044401E084B7B446946019009
:10028000089800F04AFA05461CB10020694600F0C3
:1002900057FA28467CBC5DF814FB0000CD04000032
:1002A00070B5044685690068C10601D5302600E0B6
:1002B0002026C00707D070BDD4E901213046904701
:1002C000206A401C20626D1EF6D570BD70B50446D4
:1002D00085690078C00707D170BDD4E901212020CD
:1002E0009047206A401C20626D1EF6D570BD00004C
:1002F0002DE9F0410646002410687529314616A5FF
:1003000010D0AFF30080002802DA404213A507E0C6
:1003100031688A0701D512A502E0490704D511A565
:10032000012401E0AFF3008000210A2206F1240736
:1003300009E0B0FBF2FCB0FBF2F302FB1C00303032
:1003400078541846491C0028F3D123462A463046E3
:10035000BDE8F04100F083B9000000002D0000006E
:100360002B000000200000002DE9F05F89460446C4
:100370004FF0000ADFF874B1FB44C0F820A020461B
:10038000E1688847002874D0252806D0D4E90121E7
:100390009047206A401C2062F1E700265F46204615
:1003A000E16888472028054607DB312D05D27819FA
:1003B00010F8200C08B10643F1E7B00701D526F08C
:1003C0000406C4F81CA00027C4F818A02A2D09D0E0
:1003D000284603F04CFB38B304EB8708303DC8F8DF
:1003E000185019E059F8041B204604EB870291616C
:1003F000E1688847012F054618D1E069002820DA16
:1004000026F020061DE0D8F8180000EB800005EB70
:1004100040003038C8F818002046E1688847054693
:1004200003F025FB0028EED1012F0AD02E2D08D194
:100430002046E16888477F1C0546022F46F02006CB
:10044000C4DBA069002803DA404246F00106A0613F
:10045000F00701D026F010066C2D0BD0682D09D0C6
:100460004C2D39D06A2D35D0742D35D07A2D33D01E
:1004700016E038E0E1682F4620468847B842054636
:1004800009D16C2F26D04FF48060E16806432046E6
:100490008847054604E06C2F1AD04FF4807006435D
:1004A0000DB3A5F14100192802D8203546F40066A5
:1004B0004A462946204626604E46FFF751FE80B147
:1004C00001280BD0F61D26F0070000F1080956E7B9
:1004D0004020E4E78020D8E70020D6E706F10409B1
:1004E0004DE7284652E7206ABDE8F09FAF5B000069
:1004F000032A40F2308010F0030C00F0158011F850
:10050000013BBCF1020F624498BF11F801CB00F827
:10051000013B38BF11F8013BA2F1040298BF00F87B
:1005200001CB38BF00F8013B11F0030300F0158147
:10053000083AC0F0088051F8043B083A51F804CB5F
:10054000A0E80810F5E7121D5CBF51F8043B40F825
:10055000043BAFF30080D20724BF11F8013B11F830
:1005600001CB48BF11F8012B24BF00F8013B00F874
:1005700001CB48BF00F8012B704702F0FF0343EAAC
:10058000032242EA024200F01CB94FF0000200B51B
:10059000134694469646203922BFA0E80C50A0E8A6
:1005A0000C50B1F12001BFF4F7AF090728BFA0E854
:1005B0000C5048BF0CC05DF804EB890028BF40F820
:1005C000042B08BF704748BF20F8022B11F0804F62
:1005D00018BF00F8012B70474FF0013C50F8042B76
:1005E00051F8043B9A4221D1A2EB0C03934313EA46
:1005F000CC1317D150F8042B51F8043B9A4215D173
:10060000A2EB0C03934313EACC130BD150F8042B49
:1006100051F8043B9A4209D1A2EB0C03934313EA2D
:10062000CC13DBD04FF00000704700BFD01A01BAE6
:10063000B1FA81F101F0180122FA01F0CB40C1F1C9
:100640002001DBB2C0B2C01A2CFA01F3D11A9143D7
:1006500011EAC311E6D170477047704770472DE922
:10066000F0470D4699469246044600F12408016879
:10067000880604D5E06921F01001216000E0012026
:10068000A84201DD471B00E00027A1697A1902EBAF
:100690000900081AA0612078C00602D42046FFF79E
:1006A000FFFD002608E0D4E901211AF80600904772
:1006B000206A401C761C20624E45F4DB2078C00680
:1006C0000AD52046FFF7ECFD06E0D4E901213020F1
:1006D0009047206A401C2062381EA7F10107F4DC15
:1006E00007E0D4E9012118F805009047206A401C72
:1006F0002062281EA5F10105F3DC2046FFF7E6FD88
:100700002078000602D50220BDE8F0870120FBE733
:1007100001694A1C02610878704700B58FB0CDE9C5
:1007200001310021059105497944CDE903101146B5
:100730006846FFF719FE0FB000BD0000E5FFFFFFA0
:100740000A6802F8010B0A607047D1E900239A4257
:1007500002D2531C0B601070704710B5203AC0F0E5
:100760000B80B1E81850203AA0E81850B1E81850B2
:10077000A0E81850BFF4F5AF5FEA027C24BFB1E8EF
:100780001850A0E8185044BF18C918C0BDE8104060
:100790005FEA827C24BF51F8043B40F8043B08BF69
:1007A0007047D20728BF31F8023B48BF11F8012B30
:1007B00028BF20F8023B48BF00F8012B70474FF0DC
:1007C00000020429C0F0128010F0030C3FF4DFAEE9
:1007D000CCF1040CBCF1020F18BF00F8012BA8BF2C
:1007E00020F8022BA1EB0C01FFF7D1BE5FEAC17C20
:1007F00024BF00F8012B00F8012B48BF00F8012BA3
:100800007047000000487047543200207546FFF7DB
:10081000F9FFAE4605006946534620F007008546BD
:1008200018B020B5FFF70EFDBDE820404FF00006E0
:100830004FF000074FF000084FF0000B21F00701C8
:10084000AC46ACE8C009ACE8C009ACE8C009ACE80B
:10085000C0098D46704710B50446AFF300802046AE
:10086000BDE81040FFF78EBC01491820ABBEFEE783
:10087000260002007047FEE7AFF300801FB500209E
:10088000019003904FF400500090012002906946BF
:10089000014800F019F91FBD000C01402DE9F0419D
:1008A00086B006004FF00000009001906CD000F080
:1008B00005FA3E4F3968401AB0F57A7F03D202201C
:1008C00006B0BDE8F0814FF400581120CDE9028058
:1008D000012004900320364D0590444602A9284685
:1008E00000F0F2F800222146284600F0E2F903F079
:1008F00021F902284FF0140016D000F0D3F800BF01
:10090000EFF3108472B601224146284600F0D1F977
:100910001E2003F0B3F8FFF7B1FFC821002000F05C
:100920007DF838B11CB103E003F0F6F8E8E762B6F1
:100930000320C5E7C821012000F070F80028F1D19C
:10094000C82100F06BF80028ECD100254FEA0D0813
:1009500008EB050000F02EF80028E3D16D1CEDB285
:10096000052DF5D304B962B69DF800009DF801107D
:100970009DF802209DF8033001441A4411449DF86B
:100980000420C9B28A4201D0012099E730709DF855
:10099000010070709DF80200B0709DF80300F070C7
:1009A00000F08CF9386000208AE700004400002045
:1009B000000C01402DE9F04100240646254678212F
:1009C000002000F02BF888B97821012000F026F8EB
:1009D00060B9232003F052F800F018F8012808D07D
:1009E00000277821002000F019F820B10320BDE88D
:1009F000F0810127F5E760066D1CEDB247EA10644F
:100A0000082DDCD334700020F1E700004FF40051D2
:100A1000014800F049B90000000C014070B50C46D7
:100A2000054608E0FFF7F2FFA84201D1002070BDA3
:100A3000012003F023F8641EF4D2032070BD704738
:100A400008B5FFF719FF4FF49666304603F064F8D7
:100A50000A25124C01274FF000086846FFF71EFFD9
:100A6000607228B184F80880304603F055F8F4E746
:100A70009DF8020020719DF8000060719DF8030050
:100A8000B0FBF5F105FB1100A0719DF80100B0FB72
:100A9000F5F105FB1100E0712772E5E70800002081
:100AA00072B6FEE770B5044600F008F90546601C12
:100AB00002D004480078044400F000F9401BA04232
:100AC000FAD370BD300000202DE9F84FDFF8B8915F
:100AD0000024A9F1040B23460F2709F1040AABF106
:100AE000040EC9E00125A5402A40AA427DD1674EE7
:100AF000D1F804C0ACEB0608B44532D014DCBCF12C
:100B0000030F3AD009DCBCF1000F2AD0BCF1010F71
:100B10001CD0BCF1020F31D11DE0BCF1110F17D078
:100B2000BCF1120F2AD119E0B8F5881F19D006DCE4
:100B3000B8F5803F15D0B8F5801F1FD111E0B8F58A
:100B4000001F0ED0B8F5041F18D10AE0CB6815E0DD
:100B5000CB681B1D12E0CB6808330FE0CB680C3369
:100B60000CE08B682BB1012B4FF0080303D04561DB
:100B700004E0042302E0056100E00023FF2A01D81D
:100B8000064601E000F104064FEA840501D9A5F10B
:100B90002005D6F8008007FA05FC28EA0C0803FABD
:100BA00005F548EA0508C6F800804D68ED0062D5F5
:100BB000374DAE6946F00106AE61AD6924F003061B
:100BC00005F001050095334D06EB050CDCF80850E7
:100BD000A607360F07FA06F825EA0805DFF8B880F9
:100BE000404503D14FF0000817E044E0DFF8AC8047
:100BF000404502D14FF001080FE0DFF8A4804045E6
:100C000002D14FF0020808E0DFF89880404502D199
:100C10004FF0030801E04FF0040808FA06F848EA2C
:100C20000508CCF808804D68D9F80060ED024D4603
:100C300001D5164300E096432E604D68DAF8006057
:100C4000AD02554601D5164300E096432E604D682F
:100C5000DBF80060AD035D4601D5164300E0964326
:100C60002E604D68DEF80060ED03754601D5164331
:100C700000E096432E60641C0D682A46E5407FF430
:100C800031AFBDE8F88F00000804014000001110EA
:100C9000001002400000014000080140000C01402B
:100CA00000100140001401408068084000D001207D
:100CB00070470AB1016170470904FBE70148806889
:100CC000704700003000002002488168027811441B
:100CD0008160704730000020074810B5016841F07E
:100CE00010010160032000F06DF80F2000F006F8FD
:100CF00000F024F8002010BD0020024070B50D4D1A
:100D000004464FF47A712878B1FBF0F00A4909687B
:100D1000B1FBF0F000F075FD48B9102C07D20022AD
:100D20002146501E00F02EF800206C6070BD01209E
:100D300070BD0000300000203C0000200F4808B5C6
:100D4000816941F001018161816901F00101009136
:100D5000C16941F08051C161C069002200F080503A
:100D600000900F21901E00F00DF80548416821F019
:100D7000E06141F00071416008BD000000100240D8
:100D800000000140F0B40E4B1B680C46C3F3022375
:100D9000C3F10705042D00D90425191D072901D227
:100DA000002300E0DB1E012606FA05F1491E214062
:100DB00099409E40761E16403143F0BC02F047BE7B
:100DC0000CED00E0064900F0070208684FF6FF034B
:100DD000184040EA0220034A1043086070470000B0
:100DE0000CED00E00000FA0501490120086270479F
:100DF00000000E4210B501460020234C012922D0EC
:100E0000022939D010291DD161682268D20119D573
:100E10001E48C1F38342C903805C0AD561681B4A3E
:100E2000C1F34041921E515C194AB2FBF1F14843B3
:100E300001E0184948436168490203D44000032196
:100E4000B0FBF1F010BD226AC2F30121012903D1E8
:100E5000920701D5C80310BD022905D1626A920725
:100E600002D549F6404010BD0329FCD12168890311
:100E7000F9D54FF2244010BD00F020F96168C1F3AC
:100E80008131491C4900DBE700100240D0530008C3
:100E900000127A0000093D002DE9F843054600786C
:100EA000354CC00754D0E0690026C00008D4E06982
:100EB00040F08050E061E069012600F08050009031
:100EC0002E480168C90512D40168804641F480713A
:100ED0000160FFF7F3FE074605E000BFFFF7EEFEF7
:100EE000C01B642823D8D8F80000C005F6D5206AB6
:100EF00010F4407021D0A98801F4407181421CD0C7
:100F0000206A1F49012220F440700A6000220A6012
:100F10002062C00711D0FFF7D1FE074641F28838A2
:100F200008E000BFFFF7CAFEC11B414502D90320FC
:100F3000BDE8F883206A8007F4D5206A696820F448
:100F40004070084320621EB1E06920F08050E061EB
:100F50002878800705D56068A96820F440400843D8
:100F600060602878C00605D56068E96820F48000D4
:100F7000084360600020DBE7001002400070004082
:100F8000400442422DE9F0470F46050061D0434E30
:100F9000306800F00700B84209D2306820F007003E
:100FA00038433060306800F00700B84251D12868FB
:100FB0003B4C810712D5400703D5606840F4E060E0
:100FC00060602878000703D5606840F46050606076
:100FD0006068A96820F0F000084360602878C007C6
:100FE00028D06868012810D02168022810D089070D
:100FF00000292EDA616821F0030101436160FFF7E7
:101000005DFE804641F288390DE021688903EFE7F3
:101010008901EDE7FFF752FEA0EB0801494502D92F
:101020000320BDE8F0876068696800F00C00B0EB51
:10103000810FEFD1306800F00700B8420BD930685B
:1010400020F0070038433060306800F00700B842F5
:1010500001D00120E5E72878400705D56068E968F8
:1010600020F4E060084360602878000706D56068D7
:10107000296920F4605040EAC100606000F02EF859
:101080006168084AC1F30311515CC8400649086011
:1010900006480068FFF732FE0020C2E70020024049
:1010A00000100240E05300083C0000203400002003
:1010B00001480068704700003C00002004480549D2
:1010C00000684968044AC1F3C221515CC8407047B6
:1010D0003C00002000100240F05300080E4A516806
:1010E0000E4801F00C03042B11D0082B0FD10C4833
:1010F000C1F38343C903C05C0AD55168084AC1F3F0
:101100004041921E515C054A5043B0FBF1F07047DC
:1011100004494843704700000010024000127A0062
:10112000BE53000800093D002DE9F84F040070D0BF
:101130002078C04DC00749D06868C0F381000128FD
:1011400007D06868C0F38100022809D16868C0032D
:1011500006D52868800339D560680028E7D035E0D7
:101160006068B0F5803F0BD010B1B0F5A02F11D062
:10117000286820F480302860286820F4802002E06D
:10118000286840F480302860606890B1FFF796FDD1
:1011900006460AE0286840F480202860F0E700BF97
:1011A000FFF78CFD801B642873D828688003F7D56F
:1011B0000CE0FFF783FD064605E000BFFFF77EFD6C
:1011C000801B6428F0D828688003F7D420789A4ED2
:1011D00080074FF001094FF0000839D5686810F01A
:1011E0000C0F07D06868C0F38100022809D1686835
:1011F000C00306D42868800714D52069012808D1C7
:1012000010E02069B0B1C6F80090FFF757FD07461F
:1012100005E00AE1FFF752FDC01B0228C4D8286888
:101220008007F7D52868616920F0F80040EAC1001E
:1012300028600DE0C6F80080FFF740FD074604E097
:10124000FFF73CFDC01B022823D828688007F7D48D
:10125000207800072CD57948A169D9B1C0F8009051
:10126000FFF72CFD074604E0FFF728FDC01B02280E
:101270000FD8686A8007F7D571484FF4FA510068B3
:10128000B0FBF1F0009000BF0098411E0091FAD22F
:101290000EE080E0C0F80080FFF710FD074604E094
:1012A000FFF70CFDC01B022875D8686A8007F7D4C9
:1012B0002078400760D5E8690027C00008D4E869B5
:1012C00040F08050E861E869012700F0805000900C
:1012D0005C480168C90513D40168834641F48071F4
:1012E0000160FFF7EBFC824606E000BFFFF7E6FC7B
:1012F000A0EB0A0064284ED8DBF80000C005F5D545
:10130000E06801280AD008B1052813D0286A20F027
:1013100001002862286A20F0040002E0286A40F0F8
:1013200001002862E06841F2883B98B1FFF7C6FCF3
:1013300082460BE0286A40F004002862EEE700BF16
:10134000FFF7BCFCA0EB0A0159455AD8286A800770
:10135000F6D50CE0FFF7B2FC824605E0FFF7AEFCE5
:10136000A0EB0A0159454CD8286A8007F6D41FB172
:10137000E86920F08050E861E06988B36968C1F3EA
:101380008101022944D00228C6F8608004D0FFF70A
:1013900095FC044638E034E0FFF790FC074604E093
:1013A000FFF78CFCC01B02282BD828688001F7D4DB
:1013B000206AB0F5803F05D16868A16820F400304C
:1013C00008436860D4E908010843696821F474118E
:1013D00008436860C6F86090FFF770FC044606E0BA
:1013E00025E000BFFFF76AFC001B022809D8286827
:1013F0008001F7D51BE000BFFFF760FC001B02284F
:1014000002D90320BDE8F88F28688001F4D40EE0EB
:101410000128F7D06868226A00F48031914204D133
:10142000616A00F47010884201D00120EAE70020D0
:10143000E8E70000001002400000424280044242FF
:101440003C00002000700040024850F8210080B2AB
:1014500070470000006C0040024800EB810091B230
:1014600001607047006C0040F8B505004FF00000C7
:1014700016460C46009006D02CB10022694628463C
:1014800000F019F808B10120F8BD287B2070E87B36
:10149000E070697B6170A97BA17056B102F096F88B
:1014A000E070607802F092F86070A07802F08EF838
:1014B000A0700020F8BD2DE9F04791460C465FEA88
:1014C00000084AD084B3D8F800004068400744D4EC
:1014D000404602F019F94FF461620546B0FBF2F1A3
:1014E000B0FBF2F302FB13503C23B0FBF3F0B5FB6F
:1014F000F2F6607002FB1650B0FBF3F203FB120031
:10150000A070182931D31820B1FBF0F7B1FBF0F22D
:1015100000FB12102070404602F0EFF8411C04D08E
:10152000A84202D9461B02E017E04FF0FF36A7EBB6
:10153000071000EB4000C0EB001005EBC01529467A
:10154000404602F030F940B9701C01D0711900E03A
:101550003146404602F013F910B10120BDE8F08792
:101560003946404602F03DF800E02170B9F1000F25
:101570000BD0207802F02AF82070607802F026F86C
:101580006070A07802F022F8A0700020E6E700006A
:1015900070B5040003D0607C002610B105E0012086
:1015A00070BD2674204600F03DF80220607420468D
:1015B00000F00AF9042550BB204602F069F830BB60
:1015C0002068416821F007014160A06820B11448FB
:1015D000016821F0010101601148001F0168A26843
:1015E00021F46071114301606068411C04D1012045
:1015F000FFF700FC58B1401E2268C0F30341916020
:10160000216880B2C860204602F05CF808B16574B9
:10161000C5E7E67301206073A0736074002070BD9D
:10162000306C004008B50068084988420DD1FFF7CA
:10163000DBFB0748C16941F00061C161C069054930
:1016400000F0006000900120086008BD0028004004
:10165000001002403C0442422DE9F0410D460400D6
:101660003BD0C5B3207C01283AD04FF0010884F864
:10167000108002206074E87872B301F09EFFE0737E
:10168000687801F09AFF6073A87801F096FFA07364
:10169000C2B2617BE07B02F047F8207328702046DD
:1016A00002F032F84FF46161B0FBF1F10025182926
:1016B0002DD91822B1FBF2F1A1EB011101EB41018F
:1016C000C1EB011100EBC1163146204602F06BF868
:1016D0000427C8B90BE000E004E00120BDE8F08178
:1016E0000220FBE7E07368786073A878CFE72046B4
:1016F00002F003F8411C0AD0B04208D20649014466
:10170000204602F03CF810B167742574E5E784F8D0
:10171000118025740020E1E7805101002DE9F0419E
:101720000D46040024D01DB3207C012823D04FF0A7
:10173000010884F81080022060742878EAB101F072
:101740003CFF4FF4616100FB01F6687801F035FF62
:10175000C0EB001006EB8006A87801F02EFF3518CC
:101760002946204602F01FF80026042710BB0FE090
:101770000120BDE8F0810220FBE74FF4616148439E
:101780006978C1EB011100EB8100A9784518E7E702
:101790002068416821F005014160204601F0ADFF5D
:1017A000411C0AD0A84208D206490144204601F053
:1017B000E6FF10B167742674DAE784F811802674A6
:1017C0000020D6E78051010070B504000AD02068DF
:1017D000416821F008014160FFF770FA05464FF4B7
:1017E0007A7608E0012070BDFFF768FA401BB0422E
:1017F00001D9032070BD206840680007F4D500209F
:1018000070BD10B5401EB0F1807F01D3012010BD26
:101810004FF0E02460610F21601702F018F90020FA
:10182000A06107202061002010BD000070B590F875
:101830003C20012A26D0012480F83C40022280F876
:101840003D2003685A689D6822F070060A6832439A
:101850005A600D4B02689A4208D0B2F1804F05D011
:101860000A4B9A4202D00A4B9A4204D1496825F0A9
:1018700080031943916080F83D40002180F83C10BE
:10188000084670BD022070BD002C014000040040DD
:10189000000800402DE9F0410D46040003D094F803
:1018A0003D0018B108E00120BDE8F081002084F877
:1018B0003C00204600F040F8022084F83D002068FB
:1018C000816844F2070291438160211D206801F084
:1018D000D1FF226890689169166A2B68AF6903434B
:1018E00040F20330814341EA0721A868EF690843C9
:1018F0004FF6FC418843E96840EA07200143286924
:101900002F6A000140EA0730084369686D6926F0D4
:10191000220646EA0515294393602268906154F82F
:10192000460B0162012004F81F09E0752076E0767D
:101930002077A0750020B7E710B586B0002400948A
:101940000194029403940068B0F1804F30D119489B
:10195000C16941F00101C161C16901F00101049156
:10196000816941F004018161816901F00401049100
:10197000816941F0080181618069694600F00800D1
:1019800004904FF4004000900B48FFF79DF80820AA
:10199000CDE90004694609480294FFF795F8084923
:1019A000486820F4407040F0E06040F48070486087
:1019B00006B010BD0010024000080140000C0140BC
:1019C0000000014070B590F83E60044690F83F502A
:1019D00090F8423090F84320022021B104290ED023
:1019E000012E1BD114E0012E18D1012B16D184F841
:1019F0003E0084F8420001220021206820E0012DF1
:101A00000CD1012A0AD184F83F0084F8430014E085
:101A1000012D03D1012B01D1012A01D0012070BD7C
:101A200084F83E0084F83F0084F8420084F84300C4
:101A300001220021206801F059FF012204212068C1
:101A400001F054FF2068016841F0010101600020AD
:101A500070BD000010B586B0002100910191029187
:101A6000039100681649884228D11648416821F43C
:101A7000406141F0E06141601348816941F0040137
:101A80008161816901F004010491816941F00801DB
:101A900081618069022400F008000490C020CDE933
:101AA0000004694609480394FFF70EF80320CDE9C6
:101AB0000004694606480394FFF706F806B010BD17
:101AC00000040040000001400010024000080140F6
:101AD000000C014070B5044690F83C0000260D460D
:101AE00001280FD0012084F83C006AB1042A1DD0DF
:101AF000082A2FD00C2A3FD00126002084F83C0071
:101B0000304670BD022070BD206801F0FDFE2068E7
:101B1000816941F0080181612068816921F0040137
:101B20008161206881692A69114311E0206801F010
:101B300013FF2068816941F4006181612068816937
:101B400021F480618161206881692A6941EA02216A
:101B50008161D2E7206801F02BFF2068C16941F064
:101B60000801C1612068C16921F00401C1612068D8
:101B7000C1692A69114311E0206801F045FF20681E
:101B8000C16941F40061C1612068C16921F48061CB
:101B9000C1612068C1692A6941EA0221C161ACE7DB
:101BA00010B5040003D094F83D0010B107E0012007
:101BB00010BD002084F83C00204600F01FF80220F1
:101BC00084F83D00211D206801F054FE012084F8B6
:101BD000460084F83E0084F83F0084F8400084F812
:101BE000410084F8420084F8430084F8440084F8FB
:101BF000450084F83D00002010BD000008B50068D5
:101C00000649884208D10648C16941F00201C16114
:101C1000C06900F00200009008BD00000004004010
:101C20000010024010B50446022249B104290ED02A
:101C3000082913D094F84100012816D0012010BDC6
:101C400094F83E000128F9D184F83E200FE094F882
:101C50003F000128F2D184F83F2008E094F84000CA
:101C60000128EBD184F8402001E084F841200122D2
:101C7000206801F03BFE0F492068884203D1426C86
:101C800042F4004242642068884208D0B0F1804F9C
:101C900005D00949884202D00849884204D18168A8
:101CA00001F00701062903D0016841F0010101603C
:101CB000002010BD002C014000040040000800403E
:101CC000FEE7000010B50F4C01212046FEF7ECFFA7
:101CD00080B102212046FEF7E7FF68B104212046CB
:101CE000FEF7E2FF50B108212046FEF7DDFF38B1D4
:101CF000002010BD012010BD022010BD032010BD2A
:101D0000042010BD0008014008B500248DF80040F3
:101D10002546174E00F098FA00F06EFA002806D01B
:101D200002DD4FF0010001E04FF0FF30708100F064
:101D30005BFA08B10120B070FEF7C0FF401B142809
:101D400011D3FEF7BBFF05468DF80040FFF7BAFF41
:101D5000040008D19DF8000028B100231A46694606
:101D6000306902F017FF022001F0D6FED2E7000032
:101D7000080000200B4800F019F808B900F026F818
:101D8000094D05F10C04E87818B16422114610469B
:101D900002E0A2786178207800F032F81E2001F08D
:101DA000BBFEF0E7240100200800002000B540B190
:101DB0000549002208601146104600F021F8002075
:101DC00000BD012000BD00004000002010B50B4CFC
:101DD000206880B10421FFF725FF00280CD10821DD
:101DE0002068FFF71FFF002806D12068BDE81040DB
:101DF0000C21FFF717BF012010BD0000400000209C
:101E000030B50C4601461546002000F00BF821467F
:101E1000012000F007F82946BDE83040022000F01C
:101E200001B80000084A1268002A0BD0642900D9C2
:101E300064211268D26A4A436421B2FBF1F189B28B
:101E400000F004B87047000040000020104A1368FA
:101E5000002B12D0032810D280B1012810D0022804
:101E60000BD10C221868C36A994200D999B24AB1C1
:101E7000042A09D0082A09D0016470470422F1E736
:101E80000822EFE74163704781637047C163704781
:101E9000400000207CB500F084FB0121062321A234
:101EA000084600F0B1FC01F03BFB002201210A20B2
:101EB00002F0D8FD1F4C20611F4800F0A5F91F4A11
:101EC00000211F4801F074FE6062202004F114011B
:101ED000C500CDE9000100232A461AA11B4803F0E2
:101EE0003FF804F11C000824CDE9004000232A46F5
:101EF00017A1194803F034F80E4800232030CDE92B
:101F000000402A4615A1174803F02AF80948002383
:101F10001830CDE90040A20113A1164803F020F8C3
:101F20007CBD00004F53204C6F6164696E672E2E9C
:101F30002E00000008000020DC000020885300086C
:101F4000CF3700084B65795461736B00091D000899
:101F50004C45445461736B00751D0008454E565442
:101F600061736B00410A00084F4C45445461736B28
:101F700000000000752900082DE9F04186B0002519
:101F800031480095019502950395816941F0100152
:101F90008161816901F010010491816941F02001A2
:101FA0008161816901F020010491816941F004019E
:101FB0008161816901F004010491816941F00801A6
:101FC00081618069DFF8848000F0080004900022BD
:101FD0004FF40C514046FEF76CFE01229703394640
:101FE0004046FEF766FE0F20CDE900050124694654
:101FF00002941748FEF768FD2003CDE90005694605
:1020000002944046FEF760FD600300901126CDE982
:1020100001650325694640460395FEF755FD0220FC
:10202000CDE90240CDE9007469464046FEF74CFD1B
:102030002802CDE9000669464046CDE90245FEF793
:1020400043FD06B0BDE8F08100100240000C0140E5
:10205000000801407CB500241E4801941C490094EE
:102060000160611E41604FF480718160FFF790FA5A
:1020700008B1FEF715FD01211648FFF7E5F943F217
:10208000F225A84223D08DF804408DF805408DF844
:102090000640012201A90F48FFF740FB08B1FEF7F7
:1020A000FFFC01208DF800008DF801008DF8020082
:1020B00002468DF8034069460648FFF7CDFA08B19D
:1020C000FEF7EEFC2A4601210248FFF7C5F97CBD68
:1020D00000280040C800002010B58CB024216846BC
:1020E000FEF753FA0024164809944FF080410A94F1
:1020F000C0E900144FF6FF71C0E90241802104617C
:1021000081610120CDE900040C21CDE90204049194
:10211000CDE905400794694609480894FFF7BAFBE2
:1021200008B1FEF7BDFC099409A905480A94FFF718
:102130007DFB002801D0FEF7B3FC0CB010BD000001
:10214000DC00002010B58AB0002407941C216846EA
:102150000894FEF71AFA2348214901604721C0E993
:10216000011440F2E731C0E9031480218161FFF7D7
:1021700017FD08B1FEF794FC079407A919480894C5
:10218000FFF754FB08B1FEF78BFC6020CDE900049B
:1021900002940022694613480494FFF79BFC08B19F
:1021A000FEF77EFC042269460E48FFF793FC08B157
:1021B000FEF776FC082269460A48FFF78BFC08B157
:1021C000FEF76EFC0C2269460648FFF783FC08B157
:1021D000FEF766FC0348FFF73DFC0AB010BD0000A7
:1021E000000400402401002002490022087B0A73F9
:1021F000704700006C05002002490022B1F9080078
:102200000A8170476C05002010B5002819D00D4CCC
:1022100020600020E0802081207300F05DF8E072F3
:10222000A0726073FEF74AFD20613C212068FFF731
:10223000C9FB206847F6FF71026851620068406A76
:10224000A08010BD6C05002070B5224C20680028CD
:102250003ED00068416AA088A180081A00B200F14F
:102260000801112900D30020E188081AE08004E069
:10227000801EE0802089401C2081B4F906000228DD
:10228000F6DA6FF0010100BFB4F90600884205DC00
:10229000801CE0802089401E2081F5E700F01CF8BA
:1022A0000546FEF70BFD0146E07AA84201D0E57233
:1022B00021612069081A0A280AD3A07AA84207D007
:1022C000A572617B814203D18D4201D00120207330
:1022D00070BD00006C05002010B54FF4805103481C
:1022E000FEF7E2FC012800D0002010BD000C0140E8
:1022F000FEE7FEE710B50021074C0A46002004EB7C
:10230000C1131A54401CC0B28028FAD3491CC9B268
:102310000829F3D310BD00006C010020F0B50B4478
:1023200024E0044685181DE07F2C19D8002917DB0E
:102330003F2915DCCE1701EB56764FEAE60C0D4F20
:1023400026F0070607EBCC172744A1EB060E97F8FB
:1023500000C0012606FA0EF62CEA060C87F800C02B
:10236000641C24B2A542DFDC491C09B28B42D8DCD4
:10237000F0BD00006C0100202DE9F04F1E464FF02B
:10238000000904460D461746C846B1420ED1BC426C
:1023900008DD2746144605E02946204600F062F88D
:1023A000641C24B2BC42F7DDBDE8F08FBC420DD105
:1023B000B54208DD1D460E4605E02946204600F0E0
:1023C00051F86D1C2DB2B542F7DDEDE703DD274670
:1023D00014461D460E46B54205DD684205B2704200
:1023E00006B24FF00109701B391B884207DD2046F9
:1023F0002C4605463846374606464FF00108701B06
:102400004200391B0FFA82FB421A52000FFA82FA7D
:10241000C1EB400019E0604201B203E0684201B242
:1024200003E02146284601E02946204600F01AF83C
:10243000BC42B9DA641C24B2002E02DA06EB0B00AF
:1024400003E06D1C2DB206EB0A0006B2B9F1000FD5
:1024500003D0B8F1000FE1D0DDE7B8F1000FE3D011
:10246000DFE7000010B57F2813D8002911DB3F29D2
:102470000FDCCA1701EB5272D410064B22F0070290
:1024800003EBC41318448A1A0378012191400B43CB
:10249000037010BD6C0100202DE9F0430446CD18F7
:1024A00007988846A618274668BB681E0FFA80F969
:1024B00009E041463846FFF7D5FF49463846FFF761
:1024C000D1FF7F1C3FB2BE42F3DC761E474636B2D8
:1024D00009E039462046FFF7C5FF30463946FFF789
:1024E000C1FF7F1C3FB2BD42F3DCBDE8F083444630
:1024F00005E021463846FFF7B5FF641C24B2A5422B
:10250000F7DC7F1C3FB2BE42F1DCEEE710B50020E5
:102510004FF47A720021491C9142FCD3401C904236
:10252000F8D3012001F010F8BDE81040012001F0BF
:1025300013B870B500240646802525FA04F0304013
:1025400000D0012001F008F8012000F0FDFF00207C
:1025500000F0FAFF641CE4B2082CEED3012000F076
:10256000F3FFBDE87040002000F0EEBF10B5012081
:1025700000F0F2FF012000F0E7FF002000F0ECFF88
:10258000BDE81040002000F0DFBF10B5002000F0D3
:10259000E3FF012000F0D8FFBDE81040012000F06B
:1025A000DBBF10B5FFF7B2FFAE2000F0DDFFD52096
:1025B00000F0DAFF802000F0D7FFA82000F0D4FF61
:1025C0003F2000F0D1FFD32000F0CEFF002000F02C
:1025D000CBFF402000F0C8FFA12000F0C5FFC820BD
:1025E00000F0C2FFDA2000F0BFFF122000F0BCFFB5
:1025F000812000F0B9FFCF2000F0B6FFD92000F015
:10260000B3FFF12000F0B0FFDB2000F0ADFF302081
:1026100000F0AAFFA42000F0A7FFA62000F0A4FF6E
:102620008D2000F0A1FF142000F09EFFAF2000F0ED
:102630009BFFFFF75FFEBDE8104000F071BF024650
:10264000012000E05043491EFCD27047F0B50B4416
:1026500023E0044685181CE07F2C18D8002916DBDF
:102660003F2914DCCE1701EB567C4FEAEC070C4EE9
:102670002CF0070C06EBC7162644A1EB0C0E37789E
:102680004FF0010C0CFA0EFC87EA0C073770641C43
:1026900024B2A542E0DC491C09B28B42D9DCF0BD72
:1026A0006C01002010B50C4640F0B00000F05CFF5B
:1026B000102040EA141000F057FF04F00F00BDE8AE
:1026C000104000F051BF000008B5082B0DD0062BBC
:1026D0000AD10A4B02EB420203EB4202C03A0092DB
:1026E0000823062200F00EF808BD054B03EB02128A
:1026F000A2F50072102300920822F3E7E8590008BF
:10270000F85300082DE9F04F1F4616460D46824645
:102710000024FFF703FE7F1EF81707EB507001211E
:10272000DFF898B001EBE00743E000203DE000BF98
:102730000AEB00037F2B36D8E91705EB5171CA105D
:1027400021F00701691A002D03DA521E083112B276
:1027500009B202EB0409B9F1070F0ED8099A04FB7C
:1027600006F802440BEBC91E18F802201EF803C03D
:102770008A404CEA020C0EF803C009F10102072A54
:1027800011D80BEBC91202EB0308099A04FB06FCF3
:10279000024498F880301CF80220C1F10801CA40B8
:1027A000134388F88030401CC0B2B042C0D3641CD0
:1027B000E4B2A742B9DCBDE8F08F00006C01002054
:1027C0002DE9F04700241D4690468A4681460A2797
:1027D000089E14E0291B0A20491EFFF730FFB8FBB2
:1027E000F0F0B0FBF7F107FB110204FB069000B21A
:1027F000334651463032FFF767FF641CE4B2AC4207
:10280000E8D3BDE8F08700002DE9FF4F002483B036
:102810009B4690462546A246DFF850919EE0100662
:1028200010D403988DF80420641C2844A4B28DF8B9
:1028300005A000B25B460499FFF746FF05EB0B00CD
:1028400085B28BE00620B0EB521F0ED1641CA0B203
:102850008DF8042018F80010002974D08DF80510A8
:10286000401C84B28DF806A03CE00E20B0EB121F95
:1028700016D1641CA0B28DF8042018F800100029AD
:1028800071D0401C80B28DF8051018F80010002996
:1028900069D08DF80610401C84B28DF807A021E0A5
:1028A0001E20B0EBD20F1FD1641CA0B28DF8042003
:1028B00018F80010002956D0401C80B28DF8051081
:1028C00018F8001000294ED0401C80B28DF8061078
:1028D00018F80010002946D0401C8DF8071084B26B
:1028E0008DF808A0002609E0641CA4B236E0384642
:1028F00001A9FDF771FE68B1761CB6B206EB860041
:1029000000EB461101EB0900074619A1FDF764FE33
:102910000028ECD1BBF1080F03D0BBF1060F1DD18D
:1029200012E006EB860000EB461101EB0900401DAA
:10293000009003981023284400B21A460499FFF728
:10294000E1FE103509E00EE003980623284400B2AA
:102950003F220499FFF7B8FEAD1DADB218F8042070
:10296000002A7FF45CAF07B0BDE8F08F225C00085E
:1029700000000000A8B0F749002501F130004FF039
:102980000E091DC8CDE91D03CDE91742D1E90102A9
:102990001C921690086803950D95269001201995B4
:1029A00009951A950A950490069505900B95FF20B8
:1029B00024901620159000201B95CDF84C904FF0D8
:1029C000010A8346209002F031FB259000268DF805
:1029D0008C60142125A801F0D5FEDF4CB4F90A70F3
:1029E0006681002223A9206902F0E4F9012802D1BE
:1029F0009DF88C002070FEF761F9A0EB0B00B0F59C
:102A0000FA7F07D3FEF75AF98346BAF1000F34D0A4
:102A1000002082469DF88C00012831D07DB3012D25
:102A20007CD0032D73D0052D72D0022D71D0042DD2
:102A300070D0072D6FD0062D6ED0A07850B1A67043
:102A40001B98002869D000204FF0010A1B90FEF768
:102A500035F98346002F7DD01B9800287BD0039842
:102A6000002879D0012878D0022877D0032876D0A2
:102A7000042875D004983844ABE30120C9E705E089
:102A8000012D4BD015B1A67001259FE7002202A9A8
:102A9000B248FEF710FD002207A9B048FEF7E4FC9B
:102AA000A0780028EFD1FFF725FC0623ACA2002177
:102AB0002420FFF7A9FE0A237F2219460020FFF7F2
:102AC0005BFC9DF81E109DF81D00CDE900019DF8EE
:102AD0001F30A6A210210FA8FDF7C6FB06230FAAE0
:102AE00018211C20FFF790FE9DF80A109DF80900A0
:102AF000CDE900019DF80830A1A210210FA8FDF733
:102B0000B3FB082326210FAA1C201DE306E09BE04F
:102B1000ACE0F2E09DE1F1E107E218E3002F09DD0E
:102B2000607800F10100607094F90100042807DB6F
:102B3000667005E004DA6078E8B16078401E607085
:102B4000A078F8B160782490A67014202090607866
:102B5000012806E006E3FCE20BE319E327E335E393
:102B6000B0E30AD0607860B1607802280BD060785A
:102B700003280AD00AE00320E1E700200425199089
:102B800004E0022502E0032500E0052594F9010098
:102B900000EB40010E2000EB8100A0EB090000B229
:102BA000022801DD022004E06FF00101884200DA12
:102BB000084648440FFA80F9FFF79CFB00210623E2
:102BC00073A20846FFF720FE0A237F221946002041
:102BD000FFF7D2FB06230E2118461D9AFFF714FEBD
:102BE00006231A211846189AFFF70EFE06232621FF
:102BF00018461E9AFFF708FE062332211846179A38
:102C0000FFF702FEA9F1010001B20A238022002091
:102C1000FFF71CFD2498FF2815D020980028FBD032
:102C200006235FA200214C20FFF7EEFD0620249A28
:102C30000090012300216A20521CFFF7C1FD20985B
:102C4000401EC0B2209081E2FFF754FB0021062312
:102C500055A20846FFF7D8FD0A237F221946002017
:102C6000FFF78AFB062352A21C21E6E0A07828B3D6
:102C7000A670002221A93948FEF71DFC002222A9D6
:102C80003648FEF7F1FB9DF8840009909DF8850019
:102C900006909DF886000B909DF88B000A909DF899
:102CA000890005909DF88A000490002003904FF061
:102CB000010A1B90FEF702F883460825FFF71AFB6E
:102CC000002106233FA20846FFF79EFD0A237F222C
:102CD00019460020FFF750FB062310210020269AFA
:102CE000FFF792FD0A23802217210020FFF7AEFC98
:102CF000062337A23821002026E2FFF7FBFA002145
:102D0000062336A20846FFF77FFD0A237F221946D5
:102D10000020FFF731FB207AD0B1A0790090237911
:102D200031A210210FA8FDF79FFA06230FAA102148
:102D30000020FFF769FDE079009063792EA2102151
:102D40000FA8FDF791FA06231C210FAA002075E0B9
:102D50005AE000007C53000808000020C800002052
:102D6000536D61727420486F6D65000032302530FC
:102D700032642D253032642D25303264000000008D
:102D8000253032643A253032643A2530326400000E
:102D9000536D61727420486F6D65204D656E7500CE
:102DA0004F50454E3A000000537769746368000045
:102DB000544F444F3A2052656C6179204374726CD1
:102DC0000000000053797374656D204D656E7500C9
:102DD0004B4559313A4D656E75000000456E766978
:102DE000726F6E6D656E740054656D703A25326455
:102DF0002E2531644300000048756D693A25326420
:102E00002E253164252500000623F2A21821082072
:102E1000FFF7FAFC0623F4A224210820FFF7F4FCB4
:102E2000607A03280DD0607A01280DD0607A4FF0C7
:102E3000060302280BD0F0A230210820FFF7E4FCA3
:102E400056E70623F0A2F7E70623F3A2F4E7F6A27B
:102E5000F2E71998162100EB400001EB800015996C
:102E6000401A00B2022801DD022004E06FF00101E7
:102E7000884200DA08461599002F084400B21590E0
:102E800008DD199800F10100C0B21990022807D39B
:102E9000002004E004DA199848B3401EC0B219902B
:102EA000A07818B1A670199818B30725FFF722FA71
:102EB00000210623DFA20846FFF7A6FC0A237F2293
:102EC00019460020FFF758FA062316210820169A03
:102ED000FFF79AFC0623222108201C9AFFF794FC96
:102EE00015980923401E802201B20020FDE2012036
:102EF000D5E700200D9006251A90D7E7FFF7FAF9DD
:102F000000210623CEA20846FFF77EFC0A237F227B
:102F100019460020FFF730FA0623CCA21C21082016
:102F2000FFF772FC0623CBA2E4E60D9800EB40010C
:102F30000E2000EB81001399401A00B2022801DD37
:102F4000022004E06FF00101884200DA084613997C
:102F5000084400B21390A07880B1A6700D980028A4
:102F6000E07801D030B109E010B10020E07003E05A
:102F70000120FBE71A9820B100201A90E07810B1E8
:102F80002AE00120F9E71A9868B12FB3B4480D99E7
:102F9000014411F8012C07EB8700104400B200280F
:102FA00015DA002016E0002F08DD0D9800F1010071
:102FB000C0B20D9003280FD9002004E00CDA0D9860
:102FC00018B1401EC0B20D9006E00320FBE7642854
:102FD00000DD642001F8010CA14908784A7889785D
:102FE000E37813B1642001460A468DF89C008DF801
:102FF0009D208DF89E10FFF77DF90021062399A2F0
:103000000846FFF701FC0A237F2219460020FFF73C
:10301000B3F9062396A20E210020FFF7F5FBE07816
:1030200008B195A200E096A206230E212420FFF706
:10303000EBFB1A9828B10D98012802D1BAF1000FC4
:103040000BD0062390A21A210020FFF7DDFB1A986F
:1030500068B10D98022807D009E006238CA21A2136
:103060000020FFF7D1FB02E0BAF1000F0BD00623DE
:1030700089A226210020FFF7C7FB1A9868B10D9896
:10308000032807D009E0062381A226210020FFF7AC
:10309000BBFB02E0BAF1000F44D0062380A232212C
:1030A0000020FFF7B1FB00240DF19C0704EB440066
:1030B0001A2101EB800000F0FF08395D3A204143FE
:1030C0006420B1FBF0F0C6B20020009008233C223F
:1030D00041462220FFF7E0F946B101200090062387
:1030E000324608F101012320FFF7D6F906200090AF
:1030F0003A5D032341466220FFF762FB641CE4B2A1
:10310000032CD3D31A9880B10D9870B1BAF1000F87
:1031100016D013980923401E01B21E220020FFF78B
:1031200095FA0DE006235AA2B9E713980923401E29
:1031300001B21E220020FFF789FA1A98002805D054
:10314000062359A20E214820FFF75EFBCFE10120A4
:103150007AE40398002F06DD052801D0401C04E026
:1031600000200390C8E010B1401EC0B2F9E705206E
:10317000F7E70998384400E0183000B20028FBDB7C
:1031800001E0183800B21828FBDAC0B20990B3E0A9
:103190000698384400E03C3000B20028FBDB01E038
:1031A0003C3800B23C28FBDAC0B20690A4E00B9891
:1031B000384400E03C3000B20028FBDB01E03C3842
:1031C00000B23C28FBDAC0B20B9095E00A98384474
:1031D0006DE087E053656E736F722072656164699C
:1031E0006E672E2E2E00000043484B204448543179
:1031F00031205749524500004552523A20554E4B16
:103200004E4F574E000000004552523A2054494D4F
:10321000454F5554000000004552523A204348455E
:10322000434B53554D0000004552523A20425553EE
:10323000590000004C69676874204D656E75000088
:1032400052474220436F6E74726F6C00544F444F6C
:10325000000000004B455931204261636B000000C3
:10326000140000204C454420436F6E74726F6C0054
:103270004D6F64653A0000004175746F00000000F6
:103280004D616E75616C00004C4544313A000000A0
:1032900020202020200000004C4544323A0000004D
:1032A0004C4544333A00000041646A00643000B287
:1032B0000028FBDB01E0643800B26428FBDAC0B20E
:1032C0000A9019E00598384400E00C3000B201285B
:1032D000FBDB01E00C3800B20C28FBDCC0B205902F
:1032E0000AE01F3000B20128FBDB01E01F3800B20A
:1032F0001F28FBDCC0B20490FEF7FCFF08237EA26F
:1033000000211C20FFF780FA12237F22194600209B
:10331000FFF732F818232022194608200096FFF7FD
:10332000BBF818232022194630200096FFF7B4F886
:1033300018232022194658200096FFF7ADF8DDE942
:103340000410CDE90001AFF2DC5210210FA80A9B56
:10335000FCF78AFF06230FAA00213E20FFF754FA4C
:10336000039802281B9851D820B1039810B9BAF1DC
:10337000000F14D0AFF2006210210FA8099BFCF7D8
:1033800073FF06230FAA20211020FFF73DFA1B9898
:1033900028B10398012802D1BAF1000F14D0AFF27E
:1033A000286210210FA8069BFCF75EFF06230FAAD8
:1033B00020213820FFF728FA1B9828B1039802280B
:1033C00002D1BAF1000F0CD0AFF2546210210FA855
:1033D0000B9BFCF749FF06230FAA20216020FFF773
:1033E00013FA062346A234210C20FFF70DFA062318
:1033F00045A234213820FFF707FA062343A23421DF
:103400006020FFF701FA0398E8B351E028B1039870
:10341000032802D1BAF1000F14D0AFF2A462102138
:103420000FA80A9BFCF720FF06230FAA20211020DB
:10343000FFF7EAF91B9828B10398042802D1BAF1E2
:10344000000F14D0AFF2D06210210FA8059BFCF73B
:103450000BFF06230FAA20213820FFF7D5F91B9870
:1034600028B10398052802D1BAF1000F0ED0AFF2AF
:10347000F86210210FA8049BFCF7F6FE062320211A
:103480000FAA602000E016E0FFF7BEF9062320A295
:1034900034210C20FFF7B8F906231FA2342138206D
:1034A000FFF7B2F906231DA234216020FFF7ACF923
:1034B0000398032805D116231E2219210920FFF79E
:1034C000C5F80398012801D0042805D116231E222F
:1034D00019213120FFF7BAF80398022801D00528F6
:1034E00005D116231E2219215920FFF7AFF800F04D
:1034F00017F8FFF76BBA000054494D450000000073
:10350000686F7572000000006D696E00736563007E
:1035100079656172000000006D6F6E006461790072
:1035200070B5084D002400212046FFF7BBF805EBDD
:10353000C410802100F029F8641CE4B2082CF2D3F6
:1035400070BD00006C01002002464FF480710148FC
:10355000FDF7AFBB000C014002464FF4007101487B
:10356000FDF7A7BB000C014010B50446FEF7FEFFB7
:103570007820FEF7DEFF0020FEF7DBFF2046FEF797
:10358000D8FFBDE81040FFF700B870B50D460646FD
:10359000FEF7ECFF7820FEF7CCFF4020FEF7C9FFD6
:1035A000002404E0305DFEF7C4FF641CE4B2AC42CA
:1035B000F8D3BDE87040FEF7E8BF010901EB8101D7
:1035C00000F00F0000EB4100C0B27047002102E0A4
:1035D0000A38C0B2491C0A28FAD2090740EA116029
:1035E00070472DE9F04104460025C07B627BA37B38
:1035F00042E0012A16D0032A14D0052A12D0072A45
:1036000010D0082A0ED00A2A0CD00C2A0AD0042A7C
:1036100010D0062A0ED0092A0CD00B2A0AD0022A72
:103620000DD028E01F2B0CD30C2A05D10122134604
:10363000401C20E01E2B04D30123521C1BE01C2B3A
:1036400002D203F1010316E011D183B29E0710D11B
:103650006426B3FBF6F706FB173636B94FF4C87687
:10366000B3FBF6F706FB17331BB91D2303E01D2B35
:1036700001D1032201236D1C8D42BAD3D1B2E07374
:103680006173DAB2A27300F04FF82073BDE8F081E5
:1036900070B50446FDF712FB05464FF47A7606E056
:1036A000FDF70CFB401BB04201D9032070BD206820
:1036B00040688006F4D52068416841F010014160FF
:1036C000002070BD70B504460068416821F010010B
:1036D0004160FDF7F3FA05464FF47A7607E000BF44
:1036E000FDF7ECFA401BB04201D9032070BD206801
:1036F00040688006F4D5002070BD0168086A496AF8
:1037000089B241EA00407047006881698AB2C169A4
:103710008BB2816989B28A4203D0C06961F31F40CC
:10372000704743EA02407047F0B56424C1EBC1031F
:103730000927A500072603EB01130329B3FBF7F1C3
:1037400000F5FA60114401440AD2401EB0FBF4F2C5
:1037500001EB9001B0FBF5F0891A0844001D08E068
:10376000B0FBF4F201EB9001B0FBF5F0891A0844CC
:10377000801CB0FBF6F106FB1100C0B2F0BD70B5C5
:103780000D4606460024FFF783FF48B93168280C30
:1037900008623168A8B248623046FFF793FF00B173
:1037A0000124204670BD70B50D4606460024FFF783
:1037B0006FFF48B93168280C88613168A8B2C861C8
:1037C0003046FFF77FFF00B10124204670BD4FF463
:1037D0007A74204600F0A0F9FBE710B5FDF774FA03
:1037E00001F016FC012803D0BDE8104001F024B917
:1037F00010BD70B594B028216846FCF7C6FE1421B0
:103800000AA8FCF7C2FE002501240F95119505209A
:1038100012950090CDE9025410954FF4803001903C
:1038200002260494CDE907604FF4E0100990684641
:10383000FDF77AFC08B172B6FEE70F20CDE90A0663
:103840004FF48060CDE90C5002210AA80E95FDF7D7
:1038500099FB08B172B6FEE74FF48070CDE90F40D6
:103860000FA8FDF719FB002801D072B6FEE714B0CF
:1038700070BD7047F0B50268194B1A4C1A4D4FF0E5
:103880008047984205D0B84203D0A04201D0A84258
:1038900003D122F070064A683243984205D0B842FC
:1038A00003D0A04201D0A84203D122F44074CA68D8
:1038B00022434C6922F08002224302608A68C2627D
:1038C0000A688262984201D109690163012141615C
:1038D0000169C90703D0016921F001010161F0BD4F
:1038E000002C0140000400400008004010B501F029
:1038F0001F030121046A99408C430462016A9A40C3
:103900001143016210BD000030B5036A026A22F063
:10391000010202624268846924F073050C682C433A
:1039200023F002058B682B430A4DA8420BD123F0EC
:103930000805CB6822F440722B434D6923F0040341
:1039400015438A692A43426084614968416303627E
:1039500030BD0000002C014030B5026A036A23F03C
:1039600010030362436884690D6824F4E64444EA62
:1039700005248D6822F0200242EA05120B4DA84270
:103980000ED1CD6822F0800242EA05124D6923F47F
:10399000406343EA85038D6922F0400243EA8503D0
:1039A0004360846149688163026230BD002C01403C
:1039B00030B5036A026A22F4807202624268C46906
:1039C00023F4007324F073050C682C438D6843EADC
:1039D00005230C4DA8420ED1CD6823F4006343EAC1
:1039E00005234D6922F4405242EA05128D6923F401
:1039F000806342EA05124260C4614968C1630362A0
:103A000030BD0000002C014030B5046A026A22F487
:103A1000805202624268C3690D6823F4E64343EAB8
:103A200005238D6824F4005444EA0534064DA84269
:103A300004D14D6922F4804242EA85124260C3619A
:103A400049680164046230BD002C0140FEE70907AB
:103A5000090E002804DB00F1E02080F80014704714
:103A600000F00F0000F1E02080F8141D704730389E
:103A70000A2801D2012070470020704710B5044683
:103A8000FDF716FB0349B0FBF1F16143491EFDD27E
:103A900010BD000000127A00FDF71EF9FFF7A9FE25
:103AA000FEF76AFAFEF718FBFEF7D4FAFEF74AFBB8
:103AB00001211748FDF7C8FC43F2F224A0421FD0B1
:103AC00014481A210022C17003214170062181701F
:103AD0000521017001460E48FDF7BEFD0D480E217F
:103AE000C01E01701E214170002181700A460146EE
:103AF0000748FDF713FE224601210548FDF7ACFCFF
:103B000000F028F8FEF7C6F900F036F8FEE70000EE
:103B1000C80000200300002010B5EFF3058111B1AB
:103B20006FF0050403E0002408B100F005FE204614
:103B300010BD000010B501F06BFA38B1022804D0B6
:103B400003480068012800D0002010BD032010BDEC
:103B500098000020EFF3058010B16FF0050070476A
:103B60000448016811B14FF0FF3070470121016036
:103B7000002070479800002010B5EFF3058010B1C9
:103B80006FF0050010BD08480168012902D04FF010
:103B9000FF3010BD054A002182F8141D022101608A
:103BA00000F078FE002010BD980000200BE000E03F
:103BB0002DE9FF414FEA01034FF00005EFF30581C6
:103BC000039549BB40B38027182100244AB31668E7
:103BD00006B1344696691EB13146761E382E02D2A1
:103BE0001679F60703D0002004B0BDE8F0815669CD
:103BF00006B1B708D2F808C0BCF1000F0DD0D568E7
:103C00005C2D18D312693AB136B18DE806103A46E8
:103C1000214601F0D2F903900DE0D6685EB9126931
:103C20004AB903AACDE90012BAB2214601F098F9C7
:103C3000012800D003950398D6E700002DE9F04154
:103C4000134C0F460546E6682068001D00F040FC56
:103C5000681C07D137B12168BDE8F0410D48091D46
:103C600000F086BC20683544B5424560216805D225
:103C7000A06BBDE8F041091D00F062BC606B091D3E
:103C800000F05EFCA06A854200D2A562BDE8F0812A
:103C900048000020700A00202DE9F041054600F0A0
:103CA00073FC2D4CA068401CA06020682B4F10B105
:103CB000606930B32BE02560A068012827D1002679
:103CC00006EB860007EB800000F02CFC761C382EFB
:103CD000F6D3234800F026FC2148143000F022FCE3
:103CE0001F48283000F01EFC1D483C3000F01AFC34
:103CF0001B48503000F016FC194860631430A06374
:103D000005E02068E96AC06A884200D82560606AD8
:103D1000401C60626864E86A2169884200D92061B9
:103D200000EB800007EB8000291D00F021FC00F073
:103D30004BFC606900280CD02068E96AC06A8842A0
:103D400007D208494FF080500860BFF34F8FBFF390
:103D50006F8FBDE8F081000048000020C005002002
:103D6000200A002004ED00E038B500F00DFC104CF6
:103D70002068C8B90F4800F0D5FB0E48143000F099
:103D8000D1FB0C48E060143020610A4B0020F03B6E
:103D9000009003F1500210210A2000F084FE206000
:103DA00010B105A100F092FCBDE8384000F00CBC59
:103DB00084000020740B0020546D7251000000003C
:103DC00030B4026C0B46002A0BD0C1681144C160AC
:103DD0008468A14201D30168C16030BC1846FCF779
:103DE00087BB30BC70472DE9F041856B1746044610
:103DF0000026026C82B1C7B1E068FCF779FBE1688C
:103E0000206C091AE1602268914202D2A168081A66
:103E1000E060022F16D017E02068A8B9A06801F072
:103E20006FF906460020A0600EE06068FCF760FBBA
:103E3000216C606808446060A168884204D32068EF
:103E4000606001E005B16D1E6D1CA5633046BDE8E4
:103E5000F08110B5044690F8590058B101280CD0F3
:103E600002280FD0502080F31188BFF34F8FBFF38B
:103E70006F8FFEE7206B00F0BBFB2046BDE81040D3
:103E800000F0B6BB10BD000010484FF400514207CF
:103E900006D0C01D0D4920F00700411AC1F50051A0
:103EA0000B4A00230144C2E900030839183A21F003
:103EB000070111604B600B600B1AC0E9001393609F
:103EC0004FF00040536050617047000054120020D2
:103ED000B4000020144E154CA6F29C474FF08058B9
:103EE000DFF84C9012E000BF00F04EFBF068C568B0
:103EF000281D00F0EDFAA068401EA0606068401E1A
:103F0000606000F061FB2846FFF7A3FF60680028AF
:103F1000EAD138680128F9D9C9F80080BFF34F8F7A
:103F2000BFF36F8FF2E700005C0A0020480000201A
:103F300004ED00E070B51D46049C51B1C4F80020AA
:103F4000C4E90F010121204600F0E0FD84F84C5047
:103F500070BD2460F4E700002DE9F05F8846DDE9DC
:103F60000B941546834691009A460A9EA522206B23
:103F7000FCF703FB6FF00301206B01EB85010844A4
:103F800020F00707780707D0502080F31188BFF38F
:103F90004F8FBFF36F8FFEE70025B8F1000F0FD0F2
:103FA0005FF00000221818F8001082F8341018F89A
:103FB000001011B1401C1028F4D384F8435001E0E4
:103FC00084F83450382E00D33726E662C4E91365EE
:103FD000201D00F0B2FA04F1180000F0AEFA2461DE
:103FE000C6F138006462A061656584F85850524695
:103FF0005946384600F05AFA2060B9F1000F01D056
:10400000C9F80040BDE8F09F30B5114900E0114605
:104010000A688242FBD34B685C18844203D1406833
:1040200018444860084643681C18944209D1084C5B
:10403000183C2468A24209D052681A4442600A68B7
:1040400012680260814200D0086030BD0460F9E768
:10405000B400002070B5002441600B4D0061914216
:1040600006D8D11A8269914206D2011D286907E05B
:104070009A4203D2994201D3012403E0011DE8686A
:1040800000F05EFA204670BD8400002010B50446A2
:1040900000F07AFAA06B28B15FF0000400F094FA07
:1040A000204610BD0124F9E730B589B03C4D6EE0E3
:1040B0000498002806DADDE90601059A904704987D
:1040C000002864DB069C606910B1201D00F000FA36
:1040D00003A800F0D7F8024604980A2857D2DFE870
:1040E00000F00505052D334A05052D3394F8280009
:1040F00040F0010084F828000599A069059B01445F
:104100002046FFF7A7FF68B3216A2046884794F846
:10411000280040073BD5002000900598A1690023A6
:1041200042181946204601F0F5F8D8B9502080F31E
:104130001188BFF34F8FBFF36F8FFEE714F8280F7E
:1041400020F00100207022E094F8280040F00100E7
:1041500084F828000598A06128B1811813462046EC
:10416000FFF778FF13E0502080F31188BFF34F8FE3
:10417000BFF36F8FFEE794F82800810703D4204631
:1041800000F036FA03E020F0010084F82800002255
:1041900004A9286800F00EFE002889D109B030BDBE
:1041A000840000202DE9FC410F46054600F0B6FBD7
:1041B00001A800F067F80446019818B101F018F85A
:1041C000BDE8FC81254EAFB130690068D0B300274F
:1041D000291B3A46306800F08DFA01F009F80028F2
:1041E000EED11F494FF080500860BFF34F8FBFF3EF
:1041F0006F8FE5E7A542EBD800F0FAFFF06827469D
:10420000C068C468201D00F063F994F828004107D5
:1042100019D5A0692B4641193A462046FFF71AFFE7
:10422000A8B100200346014600902A46204601F02E
:1042300071F860B9502080F31188BFF34F8FBFF33E
:104240006F8FFEE707E020F0010084F82800216A64
:1042500020468847B4E70127BAE700008400002021
:1042600004ED00E00648416B096829B1416BC9685B
:10427000C9684968816270474FF0FF31FAE7000072
:104280004800002070B5054600F0D0FE064E0446FA
:10429000B068844203D200F009F8012000E0002059
:1042A00028602046B46070BD84000020F8B5194D28
:1042B00020E0C068C4680668201D00F009F9216A82
:1042C0002046884794F82800400713D5A069304459
:1042D000B04206D924616060211DE86800F030F921
:1042E00008E000200346014600903246204601F0D7
:1042F00011F838B1E86801680029DAD12969C5E9FF
:104300000310F8BD502080F31188BFF34F8FBFF327
:104310006F8FFEE78400002008484068401C4FF083
:10432000500080F3118804D0BFF34F8FBFF36F8F1D
:10433000FEE7BFF34F8FBFF36F8FFEE7BC00002097
:10434000074CE068016841B1C0680021D0F8000066
:10435000FFF728FFFFF7A8FEF3E701210020F7E7AA
:10436000840000202DE9F041044600F00DF994F995
:10437000455004F1240609E0606A48B1304600F077
:10438000FFFE08B100F04CFA6D1E6DB2002DF3DC9B
:104390004FF0FF3684F8456000F016F900F0F4F8AD
:1043A00094F9445004F1100709E0206948B13846F7
:1043B00000F0E6FE08B100F033FA6D1E6DB2002D7C
:1043C000F3DC84F84460BDE8F04100F0FDB8000083
:1043D0002DE9F0410546002700F0A0FA324E306882
:1043E00008B9FFF751FD706905424ED1C5B30835D4
:1043F00068070ED005F00700C0F108000544680703
:1044000007D0502080F31188BFF34F8FBFF36F8F19
:10441000FEE72DB37068854237D82348183001462F
:104420000C6801E020460C466168A94202D221686E
:104430000029F7D131688C4227D0076821680160D4
:1044400060680837411B10290FD96019420708D04E
:10445000502080F31188BFF34F8FBFF36F8FFEE7BB
:1044600013E041606560FFF7CFFD61687068401A36
:104470007060B268904200D2B06070690143002061
:10448000C4E90001F068401CF06000F0B1FE78075C
:1044900007D0502080F31188BFF34F8FBFF36F8F89
:1044A000FEE73846BDE8F0819C00002010B5031FF0
:1044B0004FF080741C601B1F21F001011960191F4F
:1044C000024B0B60143940380A6010BD19430008D4
:1044D000D0E9013201699A60D0E901235A604A6843
:1044E000824201D182684A60002202610868401E4F
:1044F0000860086870470000034B036003F15C002C
:1045000008608020106070479C0B0020044B036003
:1045100003F15C0008604FF4807010607047000089
:10452000F80D002000F108014FF0FF32C0E9011240
:10453000C160016100210160704700210161704785
:1045400030B50B685A1C02D000F1080202E0026983
:1045500004E02246546825689D42FAD953684B60AE
:1045600099608A60516008610168491C016030BD32
:1045700042684A6093688B609368596091600861F3
:104580000168491C01607047502080F31188BFF317
:104590004F8FBFF36F8F0A494868401C486001285D
:1045A0000CD10848006810F0FF0F07D0502080F3AE
:1045B0001188BFF34F8FBFF36F8FFEE77047000086
:1045C000BC00002004ED00E00849486828B1401E06
:1045D000486001D180F311887047502080F3118822
:1045E000BFF34F8FBFF36F8FFEE70000BC000020CA
:1045F00070B500282AD0164DA0F1080460686969DA
:10460000084207D1502080F31188BFF34F8FBFF3CA
:104610006F8FFEE722683AB1502080F31188BFF314
:104620004F8FBFF36F8FFEE78843606000F076F92D
:1046300060686968084468602046FFF7E5FC2869FF
:10464000401C2861BDE8704000F0D2BD70BD000084
:104650009C0000204FF0E0200021016181610549AC
:104660004FF47A720968B1FBF2F1491E41610721EA
:10467000016170473C00002010B5FBF7D1FD1149E6
:1046800010280ED300F1E02090F8F0030A78904251
:1046900007D2502080F31188BFF34F8FBFF36F8F85
:1046A000FEE709480068896800F4E060884207D99D
:1046B000502080F31188BFF34F8FBFF36F8FFEE759
:1046C00010BD0000BC0000200CED00E010B5084B50
:1046D000002200BF53F832401CB1521C082AF9D303
:1046E00010BD43F8321003EBC201486010BD00005A
:1046F0008005002070B515460E460446FFF744FFBE
:1047000094F944100020491C01D184F8440094F924
:104710004510491C01D184F84500FFF755FFA06BF7
:1047200028B92A46314604F1240000F097F82046C3
:10473000BDE87040FFF716BE10B5020014D00F4858
:10474000006B38B1502080F31188BFF34F8FBFF357
:104750006F8FFEE700F0E2F800211046FFF76EFAD7
:1047600000F046FD002807D105494FF08050086051
:10477000BFF34F8FBFF36F8F10BD000048000020C4
:1047800004ED00E070B50D4604000BD095B11E4A53
:10479000106BB8B1502080F31188BFF34F8FBFF377
:1047A0006F8FFEE7502080F31188BFF34F8FBFF368
:1047B0006F8FFEE7502080F31188BFF34F8FBFF358
:1047C0006F8FFEE700F0AAF8D26823685919934268
:1047D00004D98B420AD9914202D807E08B42FAD918
:1047E000881A21600021FFF729FA00E0216000F01B
:1047F000FFFC002807D105494FF080500860BFF347
:104800004F8FBFF36F8F70BD4800002004ED00E0B4
:1048100002490A6A0260C968416070474800002086
:1048200001490120C86170474800002010B50C46BE
:1048300050B1094909681831FFF782FE2046BDE8EA
:1048400010400121FFF7FAB9502080F31188BFF31F
:104850004F8FBFF36F8FFEE74800002070B51446FE
:104860000D4668B10A4909681831FFF781FE0CB19D
:104870004FF0FF3521462846BDE87040FFF7DEB90E
:10488000502080F31188BFF34F8FBFF36F8FFEE787
:104890004800002030B587B00024039405AA04A97D
:1048A00003A80494FFF728FEDDE903010094CDE995
:1048B0000110002315A11748059A00F07EFB164D44
:1048C0000028E8621FD000F0F5FC012809D0401C48
:1048D00019D1502080F31188BFF34F8FBFF36F8F32
:1048E000FEE7502080F31188BFF34F8FBFF36F8F27
:1048F0004FF0FF30A86201206861EC6007B0BDE8AE
:10490000304000F045B807B030BD000049444C4588
:1049100000000000D53E0008480000200248016B5E
:10492000491C01637047000048000020164810B57C
:10493000016B11B10121C16110BD0021C16101698B
:10494000124A01E0B9B1491E01EB810352F823304C
:10495000002BF7D001EB810302EB830202F1080484
:1049600053685B685360A34201D15B685360DA68A7
:104970000260016110BD502080F31188BFF34F8F9A
:10498000BFF36F8FFEE7000048000020C005002045
:104990001CB5264908780190FF20087008788DF82A
:1049A00000009DF800009DF8002000F0F00090420B
:1049B00007D0502080F31188BFF34F8FBFF36F8F64
:1049C000FEE79DF800001A4C00F050002070072010
:1049D000A06005E09DF8002052008DF80020401EE8
:1049E0009DF800201206F5D4A060032807D05020BF
:1049F00080F31188BFF34F8FBFF36F8FFEE74FF443
:104A00004070A060019808700A48016841F4700184
:104A10000160016841F070410160FFF71BFE00205A
:104A20006060FBF7C7FB00201CBD000000E400E055
:104A3000BC00002020ED00E010B5502080F311886C
:104A4000BFF34F8FBFF36F8F00F0F6FA18B1044930
:104A50004FF080500860002080F3118810BD0000E6
:104A600004ED00E0F8B517460E46050013D005FB2F
:104A700006F05030FFF7ACFC04000AD0002084F8A8
:104A8000460004F150023B46314628460094FFF7A9
:104A900051FA2046F8BD502080F31188BFF34F8FA4
:104AA000BFF36F8FFEE738B5049D18B153B1CAB19B
:104AB00081B120E0502080F31188BFF34F8FBFF306
:104AC0006F8FFEE7502080F31188BFF34F8FBFF345
:104AD0006F8FFEE7502080F31188BFF34F8FBFF335
:104AE0006F8FFEE739B1502080F31188BFF34F8FED
:104AF000BFF36F8FFEE750241C46012384F8463035
:104B00002B460094FFF716FA204638BD70B50D46C7
:104B1000040025D0FFF738FDD4E90F20216802FBFF
:104B20000011A1600021A163216861600A46D4E9F7
:104B30000F01401E00FB0121E16021464FF0FF30D4
:104B400001F8440F487004F110008DB1FFF7EAFC42
:104B500004F12400FFF7E6FCFFF736FD012070BDED
:104B6000502080F31188BFF34F8FBFF36F8FFEE7A4
:104B700021690029F0D000F003FB0028ECD00449A3
:104B80004FF080500860BFF34F8FBFF36F8FE3E7A4
:104B900004ED00E02DE9FF4782B01D468A464FF044
:104BA0000008040003D0BAF1000F08D011E0502033
:104BB00080F31188BFF34F8FBFF36F8FFEE7206C38
:104BC00038B1502080F31188BFF34F8FBFF36F8F40
:104BD000FEE7022D0AD1E06B012807D0502080F3B8
:104BE0001188BFF34F8FBFF36F8FFEE700F010FA0D
:104BF0003F4F4FF000094FF0805648B9049838B144
:104C0000502080F31188BFF34F8FBFF36F8FFEE703
:104C1000FFF7BAFCA06BE16B884207D3022D05D0E9
:104C20000498D0B1B8F1000F1AD01EE02A465146C0
:104C30002046FFF7D8F8616A19B104F1240000F0AA
:104C40009FFA20B13E60BFF34F8FBFF36F8FFFF726
:104C5000BBFC012006B0BDE8F087FFF7B5FC22E001
:104C60006846FFF7D5FD4FF00108FFF7ADFCFFF7F1
:104C700055FEFFF789FC94F94400401C01D184F8EB
:104C8000449094F94500401C01D184F84590FFF709
:104C90009BFC04A9684600F029F930B12046FFF7D3
:104CA00061FB00F0A5FA0020D4E7FFF76DFCA06BD4
:104CB000E16B884213D1FFF787FC04F110000499DF
:104CC000FFF7B4FD2046FFF74DFB00F091FA0028F6
:104CD0009ED13E60BFF34F8FBFF36F8F98E7FFF712
:104CE00073FC2046FFF73EFB00F082FA90E70000DD
:104CF00004ED00E02DE9F0471F4690468946040088
:104D000003D0B9F1000F08D011E0502080F31188D2
:104D1000BFF34F8FBFF36F8FFEE7206C38B1502089
:104D200080F31188BFF34F8FBFF36F8FFEE7022F21
:104D30000AD1E06B012807D0502080F31188BFF31F
:104D40004F8FBFF36F8FFEE7FFF796FC5020EFF316
:104D5000118680F31188BFF34F8FBFF36F8FA06B65
:104D6000E16B884206D3022F04D0002086F311881D
:104D7000BDE8F08794F94550A06B3A464946204675
:104D8000FFF731F8681C04D06D1C84F845500120F1
:104D9000ECE7606A0028FAD004F1240000F0F0F992
:104DA0000028F4D0B8F1000FF1D00121C8F80010AC
:104DB000EDE700002DE9F747002683B08A4604009E
:104DC00003D0BAF1000F08D011E0502080F3118811
:104DD000BFF34F8FBFF36F8FFEE7206C38B15020C9
:104DE00080F31188BFF34F8FBFF36F8FFEE700F0A2
:104DF0000FF9DFF8F4804FF000094FF0805748B901
:104E0000059838B1502080F31188BFF34F8FBFF35E
:104E10006F8FFEE7FFF7B8FBA56BC5B15146204683
:104E2000FEF7CEFF6D1EA563206950B104F110009E
:104E300000F0A6F928B1C8F80070BFF34F8FBFF398
:104E40006F8FFFF7C1FB012006B0BDE8F087059822
:104E500008B11EB106E0FFF7B7FB27E06846FFF791
:104E6000D7FC0126FFF7B0FBFFF758FDFFF78CFBDF
:104E700094F94400401C01D184F8449094F9450011
:104E8000401C01D184F84590FFF79EFB05A96846B8
:104E900000F02CF8002820460AD0FFF763FA00F053
:104EA000A7F92046FFF7F2F80028B3D00020CBE79F
:104EB000FFF7ECF890B104F124000599FFF7B6FC78
:104EC0002046FFF74FFA00F093F90028A2D1C8F866
:104ED0000070BFF34F8FBFF36F8F9BE72046FFF744
:104EE00041FA00F085F995E704ED00E02DE9F04185
:104EF0000C46050011D0C4B1FFF746FB174BDA682A
:104F00006E682068911B471C17D02F681B6A9F4250
:104F100019D0964217D8012410E0502080F3118850
:104F2000BFF34F8FBFF36F8FFEE7502080F31188E0
:104F3000BFF34F8FBFF36F8FFEE70024FFF744FBF3
:104F40002046BDE8F081884205D9401A20602846F5
:104F5000FFF75EFCF1E700202060DCE7480000205E
:104F60002DE9FF5F8346DDE90E87994616468A469E
:104F70009000FFF72DFA05001CD05C20FFF728FAFF
:104F8000040014D00020256384F85900CDE90240C4
:104F9000CDE900874B46324651465846FEF7DCFFC6
:104FA0002046FEF779FE012004B0BDE8F09F2846B8
:104FB000FFF71EFB4FF0FF30F6E7F0B585B0DDE9F7
:104FC0000B640A9DA6B1DCB15C270097266302261C
:104FD00084F85960002604AFCDE90246CDE90057B8
:104FE000FEF7BAFF2046FEF757FE049805B0F0BD65
:104FF000502080F31188BFF34F8FBFF36F8FFEE710
:10500000502080F31188BFF34F8FBFF36F8FFEE7FF
:105010000548416919B1006B18B1002070470120A3
:105020007047022070470000480000200148C06817
:1050300070470000480000202DE9F0412E4C002769
:10504000206B28B1A069401CA0613846BDE8F08102
:10505000E668761CE66013D1606B006838B15020BA
:1050600080F31188BFF34F8FBFF36F8FFEE7606B44
:10507000A16B6163A063206A401C2062FFF7F2F815
:10508000A06ADFF87880864209D3606B0068A0B11F
:10509000606BC068C5686868864211D2A0622068EB
:1050A000C06A00EB800158F82100012800D90127CF
:1050B000E0690028C9D00127C7E74FF0FF30EDE7CE
:1050C000281DFFF705FAA86A18B105F11800FFF7C7
:1050D000FFF9E86A2169884200D9206100EB80016C
:1050E00008EB8100291DFFF743FAE86A2168C96AC5
:1050F0008842CAD30127C8E748000020C005002025
:1051000070B504004FF0000133D01B4D2868844275
:1051100007D0502080F31188BFF34F8FBFF36F8FFC
:10512000FEE7206D38B1401E2065E36CE26A9A42CA
:105130001FD040B11DE0502080F31188BFF34F8F86
:10514000BFF36F8FFEE7201DFFF7C2F9E06CE0624E
:10515000C0F13800A061E06A2969884200D928615D
:10516000064900EB800001EB8000211DFFF700FAEB
:105170000121084670BD000048000020C005002045
:1051800070B5C068C46854B104F118000646FFF752
:105190009FF9144D286B50B13146134815E050204B
:1051A00080F31188BFF34F8FBFF36F8FFEE7201D91
:1051B000FFF78EF9E06A2969884200D928610B4916
:1051C00000EB800001EB8000211DFFF7D1F9E06AC0
:1051D0002968C96A884202D90120E86170BD0020AF
:1051E00070BD000048000020480A0020C0050020D3
:1051F0002DE9F0472C4D00242746286B38B1FFF7E6
:10520000C3F9286B401E2863286B40B146E050204C
:1052100080F31188BFF34F8FBFF36F8FFEE7A9684C
:10522000224E0120D1B3A6F5916980463068E0B1E5
:10523000F068C46804F11800FFF74AF9201DFFF771
:1052400047F9E06A2969884200D9286100EB8001AA
:1052500009EB8100211DFFF78BF9E06A2968C96A13
:105260008842E3D3C5F81C80E0E70CB1FEF7FAFFF3
:10527000AC694CB14FEA0806FFF7DEFE00B1EE6103
:10528000641EF9D10020A861E86938B108490127F6
:1052900038070860BFF34F8FBFF36F8FFFF794F9A4
:1052A0003846BDE8F087000048000020480A00208A
:1052B00004ED00E010B586B0FEF756FD114C2068F5
:1052C000B8B100200390049005AA04A903A8FFF731
:1052D0001DF9DDE9032102208DE8070000230AA162
:1052E0000B48059AFFF769FE606010B106B0012017
:1052F00010BD502080F31188BFF34F8FBFF36F8F25
:10530000FEE7000084000020546D72205376630095
:10531000414300082DE9FF411E46134602000A9D45
:105320004FF0000016D0144C2768002F0FD0CDE9A5
:1053300000130292062917DAFFF76AFE02284FF0DF
:1053400000030FD0002269462068FFF723FC04B059
:10535000BDE8F081502080F31188BFF34F8FBFF379
:105360006F8FFEE72A46EEE700233246694638464D
:10537000FFF7C0FCEBE70000840000203C5F000862
:10538000645F0008585F00084C5F000800000000E0
:10539000000000000000000000000000000200000B
:1053A000180000000000000000000000805F0008FE
:1053B000785F0008445F0008705F00080102020384
:1053C0000405060708090A0B0C0D0E0F1010010248
:1053D00002030405060708090A0B0C0D0E0F101036
:1053E0000000000000000000010203040607080995
:1053F00000000000010203040000000000000000A3
:105400000000000000000000000000F800000000A4
:10541000000000333000000000160E00160E0000E1
:10542000000000000000000040C07840C07840004C
:10543000043F04043F040400007088FC08300000AE
:10544000001820FF211E0000F008F000E018000006
:1054500000211C031E211E0000F0088870000000BF
:105460001E21232419272110000000160E00000021
:105470000000000000000000000000E0180402002E
:10548000000000071820400000020418E00000009F
:105490000040201807000000404080F0804040009D
:1054A0000202010F01020200000000F000000000F3
:1054B0000101011F010101000000000000000000C7
:1054C00000B07000000000000000000000000000BC
:1054D00000010101010101010000000000000000C5
:1054E0000030300000000000000000008060180460
:1054F000006018060100000000E010080810E0003D
:10550000000F102020100F00001010F80000000005
:105510000020203F2020000000700808088870004C
:1055200000302824222130000030088888483000CC
:105530000018202020110E000000C02010F80000EC
:1055400000070424243F240000F808888808080085
:105550000019212020110E0000E01088881800009A
:10556000000F112020110E0000380808C83808006C
:105570000000003F000000000070880808887000EC
:10558000001C222121221C0000E010080810E0006D
:105590000000312222110F00000000C0C0000000F6
:1055A0000000003030000000000000C0C00000001B
:1055B000000080B070000000000080402010080053
:1055C00000010204081020004040404040404000DC
:1055D00004040404040404000008102040800000B7
:1055E0000020100804020100007048080808F000BC
:1055F0000000003036010000C030C828E810E0008C
:105600000718272423140B000000C038E000000016
:10561000203C23020227382008F888888870000080
:10562000203F202020110E00C03008080808380054
:10563000071820202010080008F808080810E000CB
:10564000203F202020100F0008F88888E80810006C
:10565000203F20202320180008F88888E808100040
:10566000203F200003000000C03008080838000078
:1056700007182020221E020008F808000008F80879
:10568000203F210101213F20000808F80808000000
:105690000020203F2020000000000808F808080033
:1056A000C08080807F00000008F888C028180800AB
:1056B000203F20012638200008F8080000000000E4
:1056C000203F20202020300008F8F800F8F80800DB
:1056D000203F003F003F200008F830C00008F808D5
:1056E000203F200007183F00E01008080810E000E5
:1056F0000F10202020100F0008F808080808F000FC
:10570000203F210101010000E01008080810E0001E
:105710000F18242438504F0008F8888888887000B3
:10572000203F2000030C3020007088080808380053
:105730000038202121221C00180808F80808180049
:105740000000203F2000000008F808000008F808CA
:10575000001F202020201F000878880000C838087B
:10576000000007380E010000F80800F80008F800F3
:10577000033C0700073C030008186880806818088D
:1057800020302C03032C30200838C800C83808000B
:105790000000203F2000000010080808C83808005A
:1057A0002038262120201800000000FE02020200FE
:1057B0000000007F40404000000C30C000000000AE
:1057C000000000010638C00000020202FE000000D6
:1057D000004040407F000000002010080408102016
:1057E00000000000000000000000000000000000B9
:1057F000808080808080808000020408000000009B
:105800000000000000000000000080808080000098
:105810000019242222223F2008F800808000000086
:10582000003F112020110E00000000808080000049
:10583000000E112020201100000000808088F80058
:10584000000E112020103F2000008080808000008A
:10585000001F222222221300008080F088888818EE
:105860000020203F202000000000808080808000F9
:10587000006B94949493600008F80080808000008E
:10588000203F210000203F20008098980000000069
:105890000020203F20200000000000809898000099
:1058A00000C08080807F000008F8000080808000B9
:1058B000203F24022D302000000808F800000000DE
:1058C0000020203F20200000808080808080800099
:1058D000203F20003F20003F0080800080800000AB
:1058E00000203F2100203F200000808080800000B9
:1058F000001F202020201F008080008080000000EA
:1059000080FFA12020110E00000000808080800018
:10591000000E112020A0FF80808080008080800009
:1059200020203F2120000100000080808080800036
:105930000033242424241900008080E080800000AB
:105940000000001F202000008080000000808000F8
:10595000001F202020103F20808080000080808059
:1059600000010E30080601008080008000808080E9
:105970000F300C030C300F0000808000808080000E
:105980000020312E0E312000808080000080808039
:1059900080818E70180601000080808080808000E9
:1059A0000021302C2221300000000000807C020207
:1059B00000000000003F404000000000FF00000029
:1059C00000000000FF0000000002027C80000000D8
:1059D0000040403F00000000008040408000008008
:1059E00000000000000101000000000000000000B5
:1059F000002F000000000700070000147F147F1430
:105A000000242A7F2A1200231308646200364955B5
:105A1000225000000007000000001C22410000008E
:105A200041221C000014083E08140008083E080823
:105A3000000000A06000000808080808000060607E
:105A40000000002010080402003E5149453E0000BD
:105A5000427F4000004261514946002141454B319F
:105A6000001814127F10002745454539003C4A496B
:105A700049300001710905030036494949360006DD
:105A80004949291E00003636000000005636000045
:105A900000081422410000141414141400004122C0
:105AA0001408000201510906003E4955592E007C98
:105AB0001211127C007F49494936003E4141412282
:105AC000007F4141221C007F49494941007F09096B
:105AD0000901003E4149497A007F0808087F00001B
